{
	"data": {
		"bytecode": {
			"linkReferences": {},
			"object": "6080604052604051600e906075565b604051809103905ff0801580156026573d5f803e3d5ffd5b5060015f6101000a81548173ffffffffffffffffffffffffffffffffffffffff021916908373ffffffffffffffffffffffffffffffffffffffff1602179055503480156070575f80fd5b506082565b6101728061015883390190565b60ca8061008e5f395ff3fe6080604052348015600e575f80fd5b50600436106026575f3560e01c8063c853c58e14602a575b5f80fd5b60306032565b005b60015f9054906101000a900473ffffffffffffffffffffffffffffffffffffffff165f806101000a81548173ffffffffffffffffffffffffffffffffffffffff021916908373ffffffffffffffffffffffffffffffffffffffff16021790555056fea26469706673582212203888b09eb0245660150a1cb160e560320495e53bb37e69586ecc482aadd3fb3564736f6c634300081a00336080604052348015600e575f80fd5b506101568061001c5f395ff3fe608060405234801561000f575f80fd5b5060043610610034575f3560e01c80637bfdec3b14610038578063d09de08a14610056575b5f80fd5b610040610060565b60405161004d9190610093565b60405180910390f35b61005e610065565b005b5f5481565b5f808154610072906100d9565b91905081905550565b5f819050919050565b61008d8161007b565b82525050565b5f6020820190506100a65f830184610084565b92915050565b7f4e487b71000000000000000000000000000000000000000000000000000000005f52601160045260245ffd5b5f6100e38261007b565b91507fffffffffffffffffffffffffffffffffffffffffffffffffffffffffffffffff8203610115576101146100ac565b5b60018201905091905056fea264697066735822122094cfb6967acb1713772f049b2e44872806a71d81cab393cf75c0e3bc130a62f364736f6c634300081a0033",
			"opcodes": "PUSH1 0x80 PUSH1 0x40 MSTORE PUSH1 0x40 MLOAD PUSH1 0xE SWAP1 PUSH1 0x75 JUMP JUMPDEST PUSH1 0x40 MLOAD DUP1 SWAP2 SUB SWAP1 PUSH0 CREATE DUP1 ISZERO DUP1 ISZERO PUSH1 0x26 JUMPI RETURNDATASIZE PUSH0 DUP1 RETURNDATACOPY RETURNDATASIZE PUSH0 REVERT JUMPDEST POP PUSH1 0x1 PUSH0 PUSH2 0x100 EXP DUP2 SLOAD DUP2 PUSH20 0xFFFFFFFFFFFFFFFFFFFFFFFFFFFFFFFFFFFFFFFF MUL NOT AND SWAP1 DUP4 PUSH20 0xFFFFFFFFFFFFFFFFFFFFFFFFFFFFFFFFFFFFFFFF AND MUL OR SWAP1 SSTORE POP CALLVALUE DUP1 ISZERO PUSH1 0x70 JUMPI PUSH0 DUP1 REVERT JUMPDEST POP PUSH1 0x82 JUMP JUMPDEST PUSH2 0x172 DUP1 PUSH2 0x158 DUP4 CODECOPY ADD SWAP1 JUMP JUMPDEST PUSH1 0xCA DUP1 PUSH2 0x8E PUSH0 CODECOPY PUSH0 RETURN INVALID PUSH1 0x80 PUSH1 0x40 MSTORE CALLVALUE DUP1 ISZERO PUSH1 0xE JUMPI PUSH0 DUP1 REVERT JUMPDEST POP PUSH1 0x4 CALLDATASIZE LT PUSH1 0x26 JUMPI PUSH0 CALLDATALOAD PUSH1 0xE0 SHR DUP1 PUSH4 0xC853C58E EQ PUSH1 0x2A JUMPI JUMPDEST PUSH0 DUP1 REVERT JUMPDEST PUSH1 0x30 PUSH1 0x32 JUMP JUMPDEST STOP JUMPDEST PUSH1 0x1 PUSH0 SWAP1 SLOAD SWAP1 PUSH2 0x100 EXP SWAP1 DIV PUSH20 0xFFFFFFFFFFFFFFFFFFFFFFFFFFFFFFFFFFFFFFFF AND PUSH0 DUP1 PUSH2 0x100 EXP DUP2 SLOAD DUP2 PUSH20 0xFFFFFFFFFFFFFFFFFFFFFFFFFFFFFFFFFFFFFFFF MUL NOT AND SWAP1 DUP4 PUSH20 0xFFFFFFFFFFFFFFFFFFFFFFFFFFFFFFFFFFFFFFFF AND MUL OR SWAP1 SSTORE POP JUMP INVALID LOG2 PUSH5 0x6970667358 0x22 SLT KECCAK256 CODESIZE DUP9 0xB0 SWAP15 0xB0 0x24 JUMP PUSH1 0x15 EXP SHR 0xB1 PUSH1 0xE5 PUSH1 0x32 DIV SWAP6 0xE5 EXTCODESIZE 0xB3 PUSH31 0x69586ECC482AADD3FB3564736F6C634300081A00336080604052348015600E JUMPI PUSH0 DUP1 REVERT JUMPDEST POP PUSH2 0x156 DUP1 PUSH2 0x1C PUSH0 CODECOPY PUSH0 RETURN INVALID PUSH1 0x80 PUSH1 0x40 MSTORE CALLVALUE DUP1 ISZERO PUSH2 0xF JUMPI PUSH0 DUP1 REVERT JUMPDEST POP PUSH1 0x4 CALLDATASIZE LT PUSH2 0x34 JUMPI PUSH0 CALLDATALOAD PUSH1 0xE0 SHR DUP1 PUSH4 0x7BFDEC3B EQ PUSH2 0x38 JUMPI DUP1 PUSH4 0xD09DE08A EQ PUSH2 0x56 JUMPI JUMPDEST PUSH0 DUP1 REVERT JUMPDEST PUSH2 0x40 PUSH2 0x60 JUMP JUMPDEST PUSH1 0x40 MLOAD PUSH2 0x4D SWAP2 SWAP1 PUSH2 0x93 JUMP JUMPDEST PUSH1 0x40 MLOAD DUP1 SWAP2 SUB SWAP1 RETURN JUMPDEST PUSH2 0x5E PUSH2 0x65 JUMP JUMPDEST STOP JUMPDEST PUSH0 SLOAD DUP2 JUMP JUMPDEST PUSH0 DUP1 DUP2 SLOAD PUSH2 0x72 SWAP1 PUSH2 0xD9 JUMP JUMPDEST SWAP2 SWAP1 POP DUP2 SWAP1 SSTORE POP JUMP JUMPDEST PUSH0 DUP2 SWAP1 POP SWAP2 SWAP1 POP JUMP JUMPDEST PUSH2 0x8D DUP2 PUSH2 0x7B JUMP JUMPDEST DUP3 MSTORE POP POP JUMP JUMPDEST PUSH0 PUSH1 0x20 DUP3 ADD SWAP1 POP PUSH2 0xA6 PUSH0 DUP4 ADD DUP5 PUSH2 0x84 JUMP JUMPDEST SWAP3 SWAP2 POP POP JUMP JUMPDEST PUSH32 0x4E487B7100000000000000000000000000000000000000000000000000000000 PUSH0 MSTORE PUSH1 0x11 PUSH1 0x4 MSTORE PUSH1 0x24 PUSH0 REVERT JUMPDEST PUSH0 PUSH2 0xE3 DUP3 PUSH2 0x7B JUMP JUMPDEST SWAP2 POP PUSH32 0xFFFFFFFFFFFFFFFFFFFFFFFFFFFFFFFFFFFFFFFFFFFFFFFFFFFFFFFFFFFFFFFF DUP3 SUB PUSH2 0x115 JUMPI PUSH2 0x114 PUSH2 0xAC JUMP JUMPDEST JUMPDEST PUSH1 0x1 DUP3 ADD SWAP1 POP SWAP2 SWAP1 POP JUMP INVALID LOG2 PUSH5 0x6970667358 0x22 SLT KECCAK256 SWAP5 0xCF 0xB6 SWAP7 PUSH27 0xCB1713772F049B2E44872806A71D81CAB393CF75C0E3BC130A62F3 PUSH5 0x736F6C6343 STOP ADDMOD BYTE STOP CALLER "
		},
		"gasEstimates": {
			"creation": {
				"codeDepositCost": "40400",
				"executionCost": "infinite",
				"totalCost": "infinite"
			},
			"external": {
				"myincrement()": "26522"
			}
		},
		"methodIdentifiers": {
			"myincrement()": "c853c58e"
		}
	},
	"abi": [
		{
			"inputs": [],
			"name": "myincrement",
			"outputs": [],
			"stateMutability": "nonpayable",
			"type": "function"
		}
	]
}