{
	"Bank/bank.sol": {
		"Bank": {
			"abi": [
				{
					"inputs": [],
					"stateMutability": "nonpayable",
					"type": "constructor"
				},
				{
					"inputs": [
						{
							"internalType": "address",
							"name": "",
							"type": "address"
						}
					],
					"name": "balanceMap",
					"outputs": [
						{
							"internalType": "uint256",
							"name": "",
							"type": "uint256"
						}
					],
					"stateMutability": "view",
					"type": "function"
				},
				{
					"inputs": [],
					"name": "getBalance",
					"outputs": [
						{
							"internalType": "uint256",
							"name": "",
							"type": "uint256"
						}
					],
					"stateMutability": "view",
					"type": "function"
				},
				{
					"inputs": [],
					"name": "getContractBalance",
					"outputs": [
						{
							"internalType": "uint256",
							"name": "",
							"type": "uint256"
						}
					],
					"stateMutability": "view",
					"type": "function"
				},
				{
					"inputs": [],
					"name": "getRank",
					"outputs": [
						{
							"internalType": "address[3]",
							"name": "",
							"type": "address[3]"
						}
					],
					"stateMutability": "view",
					"type": "function"
				},
				{
					"inputs": [],
					"name": "owner",
					"outputs": [
						{
							"internalType": "address",
							"name": "",
							"type": "address"
						}
					],
					"stateMutability": "view",
					"type": "function"
				},
				{
					"inputs": [
						{
							"internalType": "uint256",
							"name": "",
							"type": "uint256"
						}
					],
					"name": "rank",
					"outputs": [
						{
							"internalType": "address",
							"name": "",
							"type": "address"
						}
					],
					"stateMutability": "view",
					"type": "function"
				},
				{
					"inputs": [
						{
							"internalType": "uint256",
							"name": "amount",
							"type": "uint256"
						}
					],
					"name": "withdraw",
					"outputs": [],
					"stateMutability": "nonpayable",
					"type": "function"
				},
				{
					"stateMutability": "payable",
					"type": "receive"
				}
			],
			"devdoc": {
				"kind": "dev",
				"methods": {},
				"version": 1
			},
			"evm": {
				"assembly": "    /* \"Bank/bank.sol\":389:1763  contract Bank {... */\n  mstore(0x40, 0x80)\n    /* \"Bank/bank.sol\":556:605  constructor() {... */\n  callvalue\n  dup1\n  iszero\n  tag_1\n  jumpi\n  0x00\n  dup1\n  revert\ntag_1:\n  pop\n    /* \"Bank/bank.sol\":588:598  msg.sender */\n  caller\n    /* \"Bank/bank.sol\":580:585  owner */\n  0x00\n  dup1\n    /* \"Bank/bank.sol\":580:598  owner = msg.sender */\n  0x0100\n  exp\n  dup2\n  sload\n  dup2\n  0xffffffffffffffffffffffffffffffffffffffff\n  mul\n  not\n  and\n  swap1\n  dup4\n  0xffffffffffffffffffffffffffffffffffffffff\n  and\n  mul\n  or\n  swap1\n  sstore\n  pop\n    /* \"Bank/bank.sol\":389:1763  contract Bank {... */\n  dataSize(sub_0)\n  dup1\n  dataOffset(sub_0)\n  0x00\n  codecopy\n  0x00\n  return\nstop\n\nsub_0: assembly {\n        /* \"Bank/bank.sol\":389:1763  contract Bank {... */\n      mstore(0x40, 0x80)\n      jumpi(tag_1, lt(calldatasize, 0x04))\n      shr(0xe0, calldataload(0x00))\n      dup1\n      0x8da5cb5b\n      gt\n      tag_10\n      jumpi\n      dup1\n      0x8da5cb5b\n      eq\n      tag_6\n      jumpi\n      dup1\n      0xb37c191b\n      eq\n      tag_7\n      jumpi\n      dup1\n      0xd250496c\n      eq\n      tag_8\n      jumpi\n      dup1\n      0xd303e7b2\n      eq\n      tag_9\n      jumpi\n      jump(tag_2)\n    tag_10:\n      dup1\n      0x12065fe0\n      eq\n      tag_3\n      jumpi\n      dup1\n      0x2e1a7d4d\n      eq\n      tag_4\n      jumpi\n      dup1\n      0x6f9fb98a\n      eq\n      tag_5\n      jumpi\n      jump(tag_2)\n    tag_1:\n      jumpi(tag_2, calldatasize)\n        /* \"Bank/bank.sol\":704:713  msg.value */\n      callvalue\n        /* \"Bank/bank.sol\":678:688  balanceMap */\n      0x01\n        /* \"Bank/bank.sol\":678:700  balanceMap[msg.sender] */\n      0x00\n        /* \"Bank/bank.sol\":689:699  msg.sender */\n      caller\n        /* \"Bank/bank.sol\":678:700  balanceMap[msg.sender] */\n      0xffffffffffffffffffffffffffffffffffffffff\n      and\n      0xffffffffffffffffffffffffffffffffffffffff\n      and\n      dup2\n      mstore\n      0x20\n      add\n      swap1\n      dup2\n      mstore\n      0x20\n      add\n      0x00\n      keccak256\n      0x00\n        /* \"Bank/bank.sol\":678:713  balanceMap[msg.sender] += msg.value */\n      dup3\n      dup3\n      sload\n      tag_13\n      swap2\n      swap1\n      tag_14\n      jump\t// in\n    tag_13:\n      swap3\n      pop\n      pop\n      dup2\n      swap1\n      sstore\n      pop\n        /* \"Bank/bank.sol\":752:762  balanceMap */\n      0x01\n        /* \"Bank/bank.sol\":752:771  balanceMap[rank[2]] */\n      0x00\n        /* \"Bank/bank.sol\":763:767  rank */\n      0x02\n        /* \"Bank/bank.sol\":768:769  2 */\n      dup1\n        /* \"Bank/bank.sol\":763:770  rank[2] */\n      0x03\n      dup2\n      lt\n      tag_15\n      jumpi\n      tag_16\n      tag_17\n      jump\t// in\n    tag_16:\n    tag_15:\n      add\n      0x00\n      swap1\n      sload\n      swap1\n      0x0100\n      exp\n      swap1\n      div\n      0xffffffffffffffffffffffffffffffffffffffff\n      and\n        /* \"Bank/bank.sol\":752:771  balanceMap[rank[2]] */\n      0xffffffffffffffffffffffffffffffffffffffff\n      and\n      0xffffffffffffffffffffffffffffffffffffffff\n      and\n      dup2\n      mstore\n      0x20\n      add\n      swap1\n      dup2\n      mstore\n      0x20\n      add\n      0x00\n      keccak256\n      sload\n        /* \"Bank/bank.sol\":727:737  balanceMap */\n      0x01\n        /* \"Bank/bank.sol\":727:749  balanceMap[msg.sender] */\n      0x00\n        /* \"Bank/bank.sol\":738:748  msg.sender */\n      caller\n        /* \"Bank/bank.sol\":727:749  balanceMap[msg.sender] */\n      0xffffffffffffffffffffffffffffffffffffffff\n      and\n      0xffffffffffffffffffffffffffffffffffffffff\n      and\n      dup2\n      mstore\n      0x20\n      add\n      swap1\n      dup2\n      mstore\n      0x20\n      add\n      0x00\n      keccak256\n      sload\n        /* \"Bank/bank.sol\":727:771  balanceMap[msg.sender] > balanceMap[rank[2]] */\n      gt\n        /* \"Bank/bank.sol\":723:810  if (balanceMap[msg.sender] > balanceMap[rank[2]]) {... */\n      iszero\n      tag_19\n      jumpi\n        /* \"Bank/bank.sol\":787:799  updateRank() */\n      tag_20\n        /* \"Bank/bank.sol\":787:797  updateRank */\n      tag_21\n        /* \"Bank/bank.sol\":787:799  updateRank() */\n      jump\t// in\n    tag_20:\n        /* \"Bank/bank.sol\":723:810  if (balanceMap[msg.sender] > balanceMap[rank[2]]) {... */\n    tag_19:\n        /* \"Bank/bank.sol\":389:1763  contract Bank {... */\n      stop\n    tag_2:\n      0x00\n      dup1\n      revert\n        /* \"Bank/bank.sol\":1170:1270  function getBalance() external view returns (uint256) {... */\n    tag_3:\n      callvalue\n      dup1\n      iszero\n      tag_22\n      jumpi\n      0x00\n      dup1\n      revert\n    tag_22:\n      pop\n      tag_23\n      tag_24\n      jump\t// in\n    tag_23:\n      mload(0x40)\n      tag_25\n      swap2\n      swap1\n      tag_26\n      jump\t// in\n    tag_25:\n      mload(0x40)\n      dup1\n      swap2\n      sub\n      swap1\n      return\n        /* \"Bank/bank.sol\":822:1069  function withdraw(uint256 amount) external {... */\n    tag_4:\n      callvalue\n      dup1\n      iszero\n      tag_27\n      jumpi\n      0x00\n      dup1\n      revert\n    tag_27:\n      pop\n      tag_28\n      0x04\n      dup1\n      calldatasize\n      sub\n      dup2\n      add\n      swap1\n      tag_29\n      swap2\n      swap1\n      tag_30\n      jump\t// in\n    tag_29:\n      tag_31\n      jump\t// in\n    tag_28:\n      stop\n        /* \"Bank/bank.sol\":1276:1383  function getContractBalance() external view returns (uint256) {... */\n    tag_5:\n      callvalue\n      dup1\n      iszero\n      tag_32\n      jumpi\n      0x00\n      dup1\n      revert\n    tag_32:\n      pop\n      tag_33\n      tag_34\n      jump\t// in\n    tag_33:\n      mload(0x40)\n      tag_35\n      swap2\n      swap1\n      tag_26\n      jump\t// in\n    tag_35:\n      mload(0x40)\n      dup1\n      swap2\n      sub\n      swap1\n      return\n        /* \"Bank/bank.sol\":450:470  address public owner */\n    tag_6:\n      callvalue\n      dup1\n      iszero\n      tag_36\n      jumpi\n      0x00\n      dup1\n      revert\n    tag_36:\n      pop\n      tag_37\n      tag_38\n      jump\t// in\n    tag_37:\n      mload(0x40)\n      tag_39\n      swap2\n      swap1\n      tag_40\n      jump\t// in\n    tag_39:\n      mload(0x40)\n      dup1\n      swap2\n      sub\n      swap1\n      return\n        /* \"Bank/bank.sol\":527:549  address[3] public rank */\n    tag_7:\n      callvalue\n      dup1\n      iszero\n      tag_41\n      jumpi\n      0x00\n      dup1\n      revert\n    tag_41:\n      pop\n      tag_42\n      0x04\n      dup1\n      calldatasize\n      sub\n      dup2\n      add\n      swap1\n      tag_43\n      swap2\n      swap1\n      tag_30\n      jump\t// in\n    tag_43:\n      tag_44\n      jump\t// in\n    tag_42:\n      mload(0x40)\n      tag_45\n      swap2\n      swap1\n      tag_40\n      jump\t// in\n    tag_45:\n      mload(0x40)\n      dup1\n      swap2\n      sub\n      swap1\n      return\n        /* \"Bank/bank.sol\":476:521  mapping(address => uint256) public balanceMap */\n    tag_8:\n      callvalue\n      dup1\n      iszero\n      tag_46\n      jumpi\n      0x00\n      dup1\n      revert\n    tag_46:\n      pop\n      tag_47\n      0x04\n      dup1\n      calldatasize\n      sub\n      dup2\n      add\n      swap1\n      tag_48\n      swap2\n      swap1\n      tag_49\n      jump\t// in\n    tag_48:\n      tag_50\n      jump\t// in\n    tag_47:\n      mload(0x40)\n      tag_51\n      swap2\n      swap1\n      tag_26\n      jump\t// in\n    tag_51:\n      mload(0x40)\n      dup1\n      swap2\n      sub\n      swap1\n      return\n        /* \"Bank/bank.sol\":1075:1164  function getRank() external view returns (address[3] memory) {... */\n    tag_9:\n      callvalue\n      dup1\n      iszero\n      tag_52\n      jumpi\n      0x00\n      dup1\n      revert\n    tag_52:\n      pop\n      tag_53\n      tag_54\n      jump\t// in\n    tag_53:\n      mload(0x40)\n      tag_55\n      swap2\n      swap1\n      tag_56\n      jump\t// in\n    tag_55:\n      mload(0x40)\n      dup1\n      swap2\n      sub\n      swap1\n      return\n        /* \"Bank/bank.sol\":1389:1761  function updateRank() internal {... */\n    tag_21:\n        /* \"Bank/bank.sol\":1430:1445  uint256 balance */\n      0x00\n        /* \"Bank/bank.sol\":1448:1458  balanceMap */\n      0x01\n        /* \"Bank/bank.sol\":1448:1470  balanceMap[msg.sender] */\n      0x00\n        /* \"Bank/bank.sol\":1459:1469  msg.sender */\n      caller\n        /* \"Bank/bank.sol\":1448:1470  balanceMap[msg.sender] */\n      0xffffffffffffffffffffffffffffffffffffffff\n      and\n      0xffffffffffffffffffffffffffffffffffffffff\n      and\n      dup2\n      mstore\n      0x20\n      add\n      swap1\n      dup2\n      mstore\n      0x20\n      add\n      0x00\n      keccak256\n      sload\n        /* \"Bank/bank.sol\":1430:1470  uint256 balance = balanceMap[msg.sender] */\n      swap1\n      pop\n        /* \"Bank/bank.sol\":1485:1492  uint8 i */\n      0x00\n        /* \"Bank/bank.sol\":1480:1755  for (uint8 i = 0; i < 3; i++) {... */\n    tag_58:\n        /* \"Bank/bank.sol\":1502:1503  3 */\n      0x03\n        /* \"Bank/bank.sol\":1498:1499  i */\n      dup2\n        /* \"Bank/bank.sol\":1498:1503  i < 3 */\n      0xff\n      and\n      lt\n        /* \"Bank/bank.sol\":1480:1755  for (uint8 i = 0; i < 3; i++) {... */\n      iszero\n      tag_59\n      jumpi\n        /* \"Bank/bank.sol\":1539:1549  balanceMap */\n      0x01\n        /* \"Bank/bank.sol\":1539:1558  balanceMap[rank[i]] */\n      0x00\n        /* \"Bank/bank.sol\":1550:1554  rank */\n      0x02\n        /* \"Bank/bank.sol\":1555:1556  i */\n      dup4\n        /* \"Bank/bank.sol\":1550:1557  rank[i] */\n      0xff\n      and\n      0x03\n      dup2\n      lt\n      tag_61\n      jumpi\n      tag_62\n      tag_17\n      jump\t// in\n    tag_62:\n    tag_61:\n      add\n      0x00\n      swap1\n      sload\n      swap1\n      0x0100\n      exp\n      swap1\n      div\n      0xffffffffffffffffffffffffffffffffffffffff\n      and\n        /* \"Bank/bank.sol\":1539:1558  balanceMap[rank[i]] */\n      0xffffffffffffffffffffffffffffffffffffffff\n      and\n      0xffffffffffffffffffffffffffffffffffffffff\n      and\n      dup2\n      mstore\n      0x20\n      add\n      swap1\n      dup2\n      mstore\n      0x20\n      add\n      0x00\n      keccak256\n      sload\n        /* \"Bank/bank.sol\":1528:1535  balance */\n      dup3\n        /* \"Bank/bank.sol\":1528:1558  balance >= balanceMap[rank[i]] */\n      lt\n        /* \"Bank/bank.sol\":1524:1745  if (balance >= balanceMap[rank[i]]) {... */\n      tag_64\n      jumpi\n        /* \"Bank/bank.sol\":1583:1590  uint8 j */\n      0x00\n        /* \"Bank/bank.sol\":1593:1594  2 */\n      0x02\n        /* \"Bank/bank.sol\":1583:1594  uint8 j = 2 */\n      swap1\n      pop\n        /* \"Bank/bank.sol\":1578:1670  for (uint8 j = 2; j > i; j--) {... */\n    tag_65:\n        /* \"Bank/bank.sol\":1600:1601  i */\n      dup2\n        /* \"Bank/bank.sol\":1596:1601  j > i */\n      0xff\n      and\n        /* \"Bank/bank.sol\":1596:1597  j */\n      dup2\n        /* \"Bank/bank.sol\":1596:1601  j > i */\n      0xff\n      and\n      gt\n        /* \"Bank/bank.sol\":1578:1670  for (uint8 j = 2; j > i; j--) {... */\n      iszero\n      tag_66\n      jumpi\n        /* \"Bank/bank.sol\":1640:1644  rank */\n      0x02\n        /* \"Bank/bank.sol\":1649:1650  1 */\n      0x01\n        /* \"Bank/bank.sol\":1645:1646  j */\n      dup3\n        /* \"Bank/bank.sol\":1645:1650  j - 1 */\n      tag_68\n      swap2\n      swap1\n      tag_69\n      jump\t// in\n    tag_68:\n        /* \"Bank/bank.sol\":1640:1651  rank[j - 1] */\n      0xff\n      and\n      0x03\n      dup2\n      lt\n      tag_70\n      jumpi\n      tag_71\n      tag_17\n      jump\t// in\n    tag_71:\n    tag_70:\n      add\n      0x00\n      swap1\n      sload\n      swap1\n      0x0100\n      exp\n      swap1\n      div\n      0xffffffffffffffffffffffffffffffffffffffff\n      and\n        /* \"Bank/bank.sol\":1630:1634  rank */\n      0x02\n        /* \"Bank/bank.sol\":1635:1636  j */\n      dup3\n        /* \"Bank/bank.sol\":1630:1637  rank[j] */\n      0xff\n      and\n      0x03\n      dup2\n      lt\n      tag_73\n      jumpi\n      tag_74\n      tag_17\n      jump\t// in\n    tag_74:\n    tag_73:\n      add\n      0x00\n        /* \"Bank/bank.sol\":1630:1651  rank[j] = rank[j - 1] */\n      0x0100\n      exp\n      dup2\n      sload\n      dup2\n      0xffffffffffffffffffffffffffffffffffffffff\n      mul\n      not\n      and\n      swap1\n      dup4\n      0xffffffffffffffffffffffffffffffffffffffff\n      and\n      mul\n      or\n      swap1\n      sstore\n      pop\n        /* \"Bank/bank.sol\":1603:1606  j-- */\n      dup1\n      dup1\n      tag_76\n      swap1\n      tag_77\n      jump\t// in\n    tag_76:\n      swap2\n      pop\n      pop\n        /* \"Bank/bank.sol\":1578:1670  for (uint8 j = 2; j > i; j--) {... */\n      jump(tag_65)\n    tag_66:\n      pop\n        /* \"Bank/bank.sol\":1697:1707  msg.sender */\n      caller\n        /* \"Bank/bank.sol\":1687:1691  rank */\n      0x02\n        /* \"Bank/bank.sol\":1692:1693  i */\n      dup3\n        /* \"Bank/bank.sol\":1687:1694  rank[i] */\n      0xff\n      and\n      0x03\n      dup2\n      lt\n      tag_78\n      jumpi\n      tag_79\n      tag_17\n      jump\t// in\n    tag_79:\n    tag_78:\n      add\n      0x00\n        /* \"Bank/bank.sol\":1687:1707  rank[i] = msg.sender */\n      0x0100\n      exp\n      dup2\n      sload\n      dup2\n      0xffffffffffffffffffffffffffffffffffffffff\n      mul\n      not\n      and\n      swap1\n      dup4\n      0xffffffffffffffffffffffffffffffffffffffff\n      and\n      mul\n      or\n      swap1\n      sstore\n      pop\n        /* \"Bank/bank.sol\":1725:1730  break */\n      jump(tag_59)\n        /* \"Bank/bank.sol\":1524:1745  if (balance >= balanceMap[rank[i]]) {... */\n    tag_64:\n        /* \"Bank/bank.sol\":1505:1508  i++ */\n      dup1\n      dup1\n      0x01\n      add\n      swap2\n      pop\n      pop\n        /* \"Bank/bank.sol\":1480:1755  for (uint8 i = 0; i < 3; i++) {... */\n      jump(tag_58)\n    tag_59:\n      pop\n        /* \"Bank/bank.sol\":1420:1761  {... */\n      pop\n        /* \"Bank/bank.sol\":1389:1761  function updateRank() internal {... */\n      jump\t// out\n        /* \"Bank/bank.sol\":1170:1270  function getBalance() external view returns (uint256) {... */\n    tag_24:\n        /* \"Bank/bank.sol\":1215:1222  uint256 */\n      0x00\n        /* \"Bank/bank.sol\":1241:1251  balanceMap */\n      0x01\n        /* \"Bank/bank.sol\":1241:1263  balanceMap[msg.sender] */\n      0x00\n        /* \"Bank/bank.sol\":1252:1262  msg.sender */\n      caller\n        /* \"Bank/bank.sol\":1241:1263  balanceMap[msg.sender] */\n      0xffffffffffffffffffffffffffffffffffffffff\n      and\n      0xffffffffffffffffffffffffffffffffffffffff\n      and\n      dup2\n      mstore\n      0x20\n      add\n      swap1\n      dup2\n      mstore\n      0x20\n      add\n      0x00\n      keccak256\n      sload\n        /* \"Bank/bank.sol\":1234:1263  return balanceMap[msg.sender] */\n      swap1\n      pop\n        /* \"Bank/bank.sol\":1170:1270  function getBalance() external view returns (uint256) {... */\n      swap1\n      jump\t// out\n        /* \"Bank/bank.sol\":822:1069  function withdraw(uint256 amount) external {... */\n    tag_31:\n        /* \"Bank/bank.sol\":897:902  owner */\n      0x00\n      dup1\n      sload\n      swap1\n      0x0100\n      exp\n      swap1\n      div\n      0xffffffffffffffffffffffffffffffffffffffff\n      and\n        /* \"Bank/bank.sol\":883:902  msg.sender == owner */\n      0xffffffffffffffffffffffffffffffffffffffff\n      and\n        /* \"Bank/bank.sol\":883:893  msg.sender */\n      caller\n        /* \"Bank/bank.sol\":883:902  msg.sender == owner */\n      0xffffffffffffffffffffffffffffffffffffffff\n      and\n      eq\n        /* \"Bank/bank.sol\":875:935  require(msg.sender == owner, unicode\"账户无提现权限\") */\n      tag_83\n      jumpi\n      mload(0x40)\n      0x08c379a000000000000000000000000000000000000000000000000000000000\n      dup2\n      mstore\n      0x04\n      add\n      tag_84\n      swap1\n      tag_85\n      jump\t// in\n    tag_84:\n      mload(0x40)\n      dup1\n      swap2\n      sub\n      swap1\n      revert\n    tag_83:\n        /* \"Bank/bank.sol\":978:984  amount */\n      dup1\n        /* \"Bank/bank.sol\":953:974  address(this).balance */\n      selfbalance\n        /* \"Bank/bank.sol\":953:984  address(this).balance >= amount */\n      lt\n      iszero\n        /* \"Bank/bank.sol\":945:1020  require(address(this).balance >= amount, unicode\"合约账户余额不足\") */\n      tag_86\n      jumpi\n      mload(0x40)\n      0x08c379a000000000000000000000000000000000000000000000000000000000\n      dup2\n      mstore\n      0x04\n      add\n      tag_87\n      swap1\n      tag_88\n      jump\t// in\n    tag_87:\n      mload(0x40)\n      dup1\n      swap2\n      sub\n      swap1\n      revert\n    tag_86:\n        /* \"Bank/bank.sol\":1039:1044  owner */\n      0x00\n      dup1\n      sload\n      swap1\n      0x0100\n      exp\n      swap1\n      div\n      0xffffffffffffffffffffffffffffffffffffffff\n      and\n        /* \"Bank/bank.sol\":1031:1054  payable(owner).transfer */\n      0xffffffffffffffffffffffffffffffffffffffff\n      and\n        /* \"Bank/bank.sol\":1031:1062  payable(owner).transfer(amount) */\n      0x08fc\n        /* \"Bank/bank.sol\":1055:1061  amount */\n      dup3\n        /* \"Bank/bank.sol\":1031:1062  payable(owner).transfer(amount) */\n      swap1\n      dup2\n      iszero\n      mul\n      swap1\n      mload(0x40)\n      0x00\n      mload(0x40)\n      dup1\n      dup4\n      sub\n      dup2\n      dup6\n      dup9\n      dup9\n      call\n      swap4\n      pop\n      pop\n      pop\n      pop\n      iszero\n      dup1\n      iszero\n      tag_90\n      jumpi\n      returndatasize\n      0x00\n      dup1\n      returndatacopy\n      revert(0x00, returndatasize)\n    tag_90:\n      pop\n        /* \"Bank/bank.sol\":822:1069  function withdraw(uint256 amount) external {... */\n      pop\n      jump\t// out\n        /* \"Bank/bank.sol\":1276:1383  function getContractBalance() external view returns (uint256) {... */\n    tag_34:\n        /* \"Bank/bank.sol\":1329:1336  uint256 */\n      0x00\n        /* \"Bank/bank.sol\":1355:1376  address(this).balance */\n      selfbalance\n        /* \"Bank/bank.sol\":1348:1376  return address(this).balance */\n      swap1\n      pop\n        /* \"Bank/bank.sol\":1276:1383  function getContractBalance() external view returns (uint256) {... */\n      swap1\n      jump\t// out\n        /* \"Bank/bank.sol\":450:470  address public owner */\n    tag_38:\n      0x00\n      dup1\n      sload\n      swap1\n      0x0100\n      exp\n      swap1\n      div\n      0xffffffffffffffffffffffffffffffffffffffff\n      and\n      dup2\n      jump\t// out\n        /* \"Bank/bank.sol\":527:549  address[3] public rank */\n    tag_44:\n      0x02\n      dup2\n      0x03\n      dup2\n      lt\n      tag_92\n      jumpi\n      0x00\n      dup1\n      revert\n    tag_92:\n      add\n      0x00\n      swap2\n      pop\n      sload\n      swap1\n      0x0100\n      exp\n      swap1\n      div\n      0xffffffffffffffffffffffffffffffffffffffff\n      and\n      dup2\n      jump\t// out\n        /* \"Bank/bank.sol\":476:521  mapping(address => uint256) public balanceMap */\n    tag_50:\n      mstore(0x20, 0x01)\n      dup1\n      0x00\n      mstore\n      keccak256(0x00, 0x40)\n      0x00\n      swap2\n      pop\n      swap1\n      pop\n      sload\n      dup2\n      jump\t// out\n        /* \"Bank/bank.sol\":1075:1164  function getRank() external view returns (address[3] memory) {... */\n    tag_54:\n        /* \"Bank/bank.sol\":1117:1134  address[3] memory */\n      tag_94\n      tag_95\n      jump\t// in\n    tag_94:\n        /* \"Bank/bank.sol\":1153:1157  rank */\n      0x02\n        /* \"Bank/bank.sol\":1146:1157  return rank */\n      0x03\n      dup1\n      0x20\n      mul\n      mload(0x40)\n      swap1\n      dup2\n      add\n      0x40\n      mstore\n      dup1\n      swap3\n      swap2\n      swap1\n      dup3\n      0x03\n      dup1\n      iszero\n      tag_97\n      jumpi\n      0x20\n      mul\n      dup3\n      add\n      swap2\n    tag_98:\n      dup2\n      0x00\n      swap1\n      sload\n      swap1\n      0x0100\n      exp\n      swap1\n      div\n      0xffffffffffffffffffffffffffffffffffffffff\n      and\n      0xffffffffffffffffffffffffffffffffffffffff\n      and\n      dup2\n      mstore\n      0x20\n      add\n      swap1\n      0x01\n      add\n      swap1\n      dup1\n      dup4\n      gt\n      tag_98\n      jumpi\n    tag_97:\n      pop\n      pop\n      pop\n      pop\n      pop\n      swap1\n      pop\n        /* \"Bank/bank.sol\":1075:1164  function getRank() external view returns (address[3] memory) {... */\n      swap1\n      jump\t// out\n    tag_95:\n      mload(0x40)\n      dup1\n      0x60\n      add\n      0x40\n      mstore\n      dup1\n      0x03\n      swap1\n      0x20\n      dup3\n      mul\n      dup1\n      calldatasize\n      dup4\n      calldatacopy\n      dup1\n      dup3\n      add\n      swap2\n      pop\n      pop\n      swap1\n      pop\n      pop\n      swap1\n      jump\t// out\n        /* \"#utility.yul\":7:84   */\n    tag_99:\n        /* \"#utility.yul\":44:51   */\n      0x00\n        /* \"#utility.yul\":73:78   */\n      dup2\n        /* \"#utility.yul\":62:78   */\n      swap1\n      pop\n        /* \"#utility.yul\":7:84   */\n      swap2\n      swap1\n      pop\n      jump\t// out\n        /* \"#utility.yul\":90:270   */\n    tag_100:\n        /* \"#utility.yul\":138:215   */\n      0x4e487b7100000000000000000000000000000000000000000000000000000000\n        /* \"#utility.yul\":135:136   */\n      0x00\n        /* \"#utility.yul\":128:216   */\n      mstore\n        /* \"#utility.yul\":235:239   */\n      0x11\n        /* \"#utility.yul\":232:233   */\n      0x04\n        /* \"#utility.yul\":225:240   */\n      mstore\n        /* \"#utility.yul\":259:263   */\n      0x24\n        /* \"#utility.yul\":256:257   */\n      0x00\n        /* \"#utility.yul\":249:264   */\n      revert\n        /* \"#utility.yul\":276:467   */\n    tag_14:\n        /* \"#utility.yul\":316:319   */\n      0x00\n        /* \"#utility.yul\":335:355   */\n      tag_129\n        /* \"#utility.yul\":353:354   */\n      dup3\n        /* \"#utility.yul\":335:355   */\n      tag_99\n      jump\t// in\n    tag_129:\n        /* \"#utility.yul\":330:355   */\n      swap2\n      pop\n        /* \"#utility.yul\":369:389   */\n      tag_130\n        /* \"#utility.yul\":387:388   */\n      dup4\n        /* \"#utility.yul\":369:389   */\n      tag_99\n      jump\t// in\n    tag_130:\n        /* \"#utility.yul\":364:389   */\n      swap3\n      pop\n        /* \"#utility.yul\":412:413   */\n      dup3\n        /* \"#utility.yul\":409:410   */\n      dup3\n        /* \"#utility.yul\":405:414   */\n      add\n        /* \"#utility.yul\":398:414   */\n      swap1\n      pop\n        /* \"#utility.yul\":433:436   */\n      dup1\n        /* \"#utility.yul\":430:431   */\n      dup3\n        /* \"#utility.yul\":427:437   */\n      gt\n        /* \"#utility.yul\":424:460   */\n      iszero\n      tag_131\n      jumpi\n        /* \"#utility.yul\":440:458   */\n      tag_132\n      tag_100\n      jump\t// in\n    tag_132:\n        /* \"#utility.yul\":424:460   */\n    tag_131:\n        /* \"#utility.yul\":276:467   */\n      swap3\n      swap2\n      pop\n      pop\n      jump\t// out\n        /* \"#utility.yul\":473:653   */\n    tag_17:\n        /* \"#utility.yul\":521:598   */\n      0x4e487b7100000000000000000000000000000000000000000000000000000000\n        /* \"#utility.yul\":518:519   */\n      0x00\n        /* \"#utility.yul\":511:599   */\n      mstore\n        /* \"#utility.yul\":618:622   */\n      0x32\n        /* \"#utility.yul\":615:616   */\n      0x04\n        /* \"#utility.yul\":608:623   */\n      mstore\n        /* \"#utility.yul\":642:646   */\n      0x24\n        /* \"#utility.yul\":639:640   */\n      0x00\n        /* \"#utility.yul\":632:647   */\n      revert\n        /* \"#utility.yul\":659:777   */\n    tag_101:\n        /* \"#utility.yul\":746:770   */\n      tag_135\n        /* \"#utility.yul\":764:769   */\n      dup2\n        /* \"#utility.yul\":746:770   */\n      tag_99\n      jump\t// in\n    tag_135:\n        /* \"#utility.yul\":741:744   */\n      dup3\n        /* \"#utility.yul\":734:771   */\n      mstore\n        /* \"#utility.yul\":659:777   */\n      pop\n      pop\n      jump\t// out\n        /* \"#utility.yul\":783:1005   */\n    tag_26:\n        /* \"#utility.yul\":876:880   */\n      0x00\n        /* \"#utility.yul\":914:916   */\n      0x20\n        /* \"#utility.yul\":903:912   */\n      dup3\n        /* \"#utility.yul\":899:917   */\n      add\n        /* \"#utility.yul\":891:917   */\n      swap1\n      pop\n        /* \"#utility.yul\":927:998   */\n      tag_137\n        /* \"#utility.yul\":995:996   */\n      0x00\n        /* \"#utility.yul\":984:993   */\n      dup4\n        /* \"#utility.yul\":980:997   */\n      add\n        /* \"#utility.yul\":971:977   */\n      dup5\n        /* \"#utility.yul\":927:998   */\n      tag_101\n      jump\t// in\n    tag_137:\n        /* \"#utility.yul\":783:1005   */\n      swap3\n      swap2\n      pop\n      pop\n      jump\t// out\n        /* \"#utility.yul\":1092:1209   */\n    tag_103:\n        /* \"#utility.yul\":1201:1202   */\n      0x00\n        /* \"#utility.yul\":1198:1199   */\n      dup1\n        /* \"#utility.yul\":1191:1203   */\n      revert\n        /* \"#utility.yul\":1338:1460   */\n    tag_105:\n        /* \"#utility.yul\":1411:1435   */\n      tag_142\n        /* \"#utility.yul\":1429:1434   */\n      dup2\n        /* \"#utility.yul\":1411:1435   */\n      tag_99\n      jump\t// in\n    tag_142:\n        /* \"#utility.yul\":1404:1409   */\n      dup2\n        /* \"#utility.yul\":1401:1436   */\n      eq\n        /* \"#utility.yul\":1391:1454   */\n      tag_143\n      jumpi\n        /* \"#utility.yul\":1450:1451   */\n      0x00\n        /* \"#utility.yul\":1447:1448   */\n      dup1\n        /* \"#utility.yul\":1440:1452   */\n      revert\n        /* \"#utility.yul\":1391:1454   */\n    tag_143:\n        /* \"#utility.yul\":1338:1460   */\n      pop\n      jump\t// out\n        /* \"#utility.yul\":1466:1605   */\n    tag_106:\n        /* \"#utility.yul\":1512:1517   */\n      0x00\n        /* \"#utility.yul\":1550:1556   */\n      dup2\n        /* \"#utility.yul\":1537:1557   */\n      calldataload\n        /* \"#utility.yul\":1528:1557   */\n      swap1\n      pop\n        /* \"#utility.yul\":1566:1599   */\n      tag_145\n        /* \"#utility.yul\":1593:1598   */\n      dup2\n        /* \"#utility.yul\":1566:1599   */\n      tag_105\n      jump\t// in\n    tag_145:\n        /* \"#utility.yul\":1466:1605   */\n      swap3\n      swap2\n      pop\n      pop\n      jump\t// out\n        /* \"#utility.yul\":1611:1940   */\n    tag_30:\n        /* \"#utility.yul\":1670:1676   */\n      0x00\n        /* \"#utility.yul\":1719:1721   */\n      0x20\n        /* \"#utility.yul\":1707:1716   */\n      dup3\n        /* \"#utility.yul\":1698:1705   */\n      dup5\n        /* \"#utility.yul\":1694:1717   */\n      sub\n        /* \"#utility.yul\":1690:1722   */\n      slt\n        /* \"#utility.yul\":1687:1806   */\n      iszero\n      tag_147\n      jumpi\n        /* \"#utility.yul\":1725:1804   */\n      tag_148\n      tag_103\n      jump\t// in\n    tag_148:\n        /* \"#utility.yul\":1687:1806   */\n    tag_147:\n        /* \"#utility.yul\":1845:1846   */\n      0x00\n        /* \"#utility.yul\":1870:1923   */\n      tag_149\n        /* \"#utility.yul\":1915:1922   */\n      dup5\n        /* \"#utility.yul\":1906:1912   */\n      dup3\n        /* \"#utility.yul\":1895:1904   */\n      dup6\n        /* \"#utility.yul\":1891:1913   */\n      add\n        /* \"#utility.yul\":1870:1923   */\n      tag_106\n      jump\t// in\n    tag_149:\n        /* \"#utility.yul\":1860:1923   */\n      swap2\n      pop\n        /* \"#utility.yul\":1816:1933   */\n      pop\n        /* \"#utility.yul\":1611:1940   */\n      swap3\n      swap2\n      pop\n      pop\n      jump\t// out\n        /* \"#utility.yul\":1946:2072   */\n    tag_107:\n        /* \"#utility.yul\":1983:1990   */\n      0x00\n        /* \"#utility.yul\":2023:2065   */\n      0xffffffffffffffffffffffffffffffffffffffff\n        /* \"#utility.yul\":2016:2021   */\n      dup3\n        /* \"#utility.yul\":2012:2066   */\n      and\n        /* \"#utility.yul\":2001:2066   */\n      swap1\n      pop\n        /* \"#utility.yul\":1946:2072   */\n      swap2\n      swap1\n      pop\n      jump\t// out\n        /* \"#utility.yul\":2078:2174   */\n    tag_108:\n        /* \"#utility.yul\":2115:2122   */\n      0x00\n        /* \"#utility.yul\":2144:2168   */\n      tag_152\n        /* \"#utility.yul\":2162:2167   */\n      dup3\n        /* \"#utility.yul\":2144:2168   */\n      tag_107\n      jump\t// in\n    tag_152:\n        /* \"#utility.yul\":2133:2168   */\n      swap1\n      pop\n        /* \"#utility.yul\":2078:2174   */\n      swap2\n      swap1\n      pop\n      jump\t// out\n        /* \"#utility.yul\":2180:2298   */\n    tag_109:\n        /* \"#utility.yul\":2267:2291   */\n      tag_154\n        /* \"#utility.yul\":2285:2290   */\n      dup2\n        /* \"#utility.yul\":2267:2291   */\n      tag_108\n      jump\t// in\n    tag_154:\n        /* \"#utility.yul\":2262:2265   */\n      dup3\n        /* \"#utility.yul\":2255:2292   */\n      mstore\n        /* \"#utility.yul\":2180:2298   */\n      pop\n      pop\n      jump\t// out\n        /* \"#utility.yul\":2304:2526   */\n    tag_40:\n        /* \"#utility.yul\":2397:2401   */\n      0x00\n        /* \"#utility.yul\":2435:2437   */\n      0x20\n        /* \"#utility.yul\":2424:2433   */\n      dup3\n        /* \"#utility.yul\":2420:2438   */\n      add\n        /* \"#utility.yul\":2412:2438   */\n      swap1\n      pop\n        /* \"#utility.yul\":2448:2519   */\n      tag_156\n        /* \"#utility.yul\":2516:2517   */\n      0x00\n        /* \"#utility.yul\":2505:2514   */\n      dup4\n        /* \"#utility.yul\":2501:2518   */\n      add\n        /* \"#utility.yul\":2492:2498   */\n      dup5\n        /* \"#utility.yul\":2448:2519   */\n      tag_109\n      jump\t// in\n    tag_156:\n        /* \"#utility.yul\":2304:2526   */\n      swap3\n      swap2\n      pop\n      pop\n      jump\t// out\n        /* \"#utility.yul\":2532:2654   */\n    tag_110:\n        /* \"#utility.yul\":2605:2629   */\n      tag_158\n        /* \"#utility.yul\":2623:2628   */\n      dup2\n        /* \"#utility.yul\":2605:2629   */\n      tag_108\n      jump\t// in\n    tag_158:\n        /* \"#utility.yul\":2598:2603   */\n      dup2\n        /* \"#utility.yul\":2595:2630   */\n      eq\n        /* \"#utility.yul\":2585:2648   */\n      tag_159\n      jumpi\n        /* \"#utility.yul\":2644:2645   */\n      0x00\n        /* \"#utility.yul\":2641:2642   */\n      dup1\n        /* \"#utility.yul\":2634:2646   */\n      revert\n        /* \"#utility.yul\":2585:2648   */\n    tag_159:\n        /* \"#utility.yul\":2532:2654   */\n      pop\n      jump\t// out\n        /* \"#utility.yul\":2660:2799   */\n    tag_111:\n        /* \"#utility.yul\":2706:2711   */\n      0x00\n        /* \"#utility.yul\":2744:2750   */\n      dup2\n        /* \"#utility.yul\":2731:2751   */\n      calldataload\n        /* \"#utility.yul\":2722:2751   */\n      swap1\n      pop\n        /* \"#utility.yul\":2760:2793   */\n      tag_161\n        /* \"#utility.yul\":2787:2792   */\n      dup2\n        /* \"#utility.yul\":2760:2793   */\n      tag_110\n      jump\t// in\n    tag_161:\n        /* \"#utility.yul\":2660:2799   */\n      swap3\n      swap2\n      pop\n      pop\n      jump\t// out\n        /* \"#utility.yul\":2805:3134   */\n    tag_49:\n        /* \"#utility.yul\":2864:2870   */\n      0x00\n        /* \"#utility.yul\":2913:2915   */\n      0x20\n        /* \"#utility.yul\":2901:2910   */\n      dup3\n        /* \"#utility.yul\":2892:2899   */\n      dup5\n        /* \"#utility.yul\":2888:2911   */\n      sub\n        /* \"#utility.yul\":2884:2916   */\n      slt\n        /* \"#utility.yul\":2881:3000   */\n      iszero\n      tag_163\n      jumpi\n        /* \"#utility.yul\":2919:2998   */\n      tag_164\n      tag_103\n      jump\t// in\n    tag_164:\n        /* \"#utility.yul\":2881:3000   */\n    tag_163:\n        /* \"#utility.yul\":3039:3040   */\n      0x00\n        /* \"#utility.yul\":3064:3117   */\n      tag_165\n        /* \"#utility.yul\":3109:3116   */\n      dup5\n        /* \"#utility.yul\":3100:3106   */\n      dup3\n        /* \"#utility.yul\":3089:3098   */\n      dup6\n        /* \"#utility.yul\":3085:3107   */\n      add\n        /* \"#utility.yul\":3064:3117   */\n      tag_111\n      jump\t// in\n    tag_165:\n        /* \"#utility.yul\":3054:3117   */\n      swap2\n      pop\n        /* \"#utility.yul\":3010:3127   */\n      pop\n        /* \"#utility.yul\":2805:3134   */\n      swap3\n      swap2\n      pop\n      pop\n      jump\t// out\n        /* \"#utility.yul\":3140:3244   */\n    tag_112:\n        /* \"#utility.yul\":3205:3211   */\n      0x00\n        /* \"#utility.yul\":3233:3237   */\n      0x03\n        /* \"#utility.yul\":3223:3237   */\n      swap1\n      pop\n        /* \"#utility.yul\":3140:3244   */\n      swap2\n      swap1\n      pop\n      jump\t// out\n        /* \"#utility.yul\":3250:3393   */\n    tag_113:\n        /* \"#utility.yul\":3347:3358   */\n      0x00\n        /* \"#utility.yul\":3384:3387   */\n      dup2\n        /* \"#utility.yul\":3369:3387   */\n      swap1\n      pop\n        /* \"#utility.yul\":3250:3393   */\n      swap3\n      swap2\n      pop\n      pop\n      jump\t// out\n        /* \"#utility.yul\":3399:3497   */\n    tag_114:\n        /* \"#utility.yul\":3464:3468   */\n      0x00\n        /* \"#utility.yul\":3487:3490   */\n      dup2\n        /* \"#utility.yul\":3479:3490   */\n      swap1\n      pop\n        /* \"#utility.yul\":3399:3497   */\n      swap2\n      swap1\n      pop\n      jump\t// out\n        /* \"#utility.yul\":3503:3611   */\n    tag_115:\n        /* \"#utility.yul\":3580:3604   */\n      tag_170\n        /* \"#utility.yul\":3598:3603   */\n      dup2\n        /* \"#utility.yul\":3580:3604   */\n      tag_108\n      jump\t// in\n    tag_170:\n        /* \"#utility.yul\":3575:3578   */\n      dup3\n        /* \"#utility.yul\":3568:3605   */\n      mstore\n        /* \"#utility.yul\":3503:3611   */\n      pop\n      pop\n      jump\t// out\n        /* \"#utility.yul\":3617:3796   */\n    tag_116:\n        /* \"#utility.yul\":3686:3696   */\n      0x00\n        /* \"#utility.yul\":3707:3753   */\n      tag_172\n        /* \"#utility.yul\":3749:3752   */\n      dup4\n        /* \"#utility.yul\":3741:3747   */\n      dup4\n        /* \"#utility.yul\":3707:3753   */\n      tag_115\n      jump\t// in\n    tag_172:\n        /* \"#utility.yul\":3785:3789   */\n      0x20\n        /* \"#utility.yul\":3780:3783   */\n      dup4\n        /* \"#utility.yul\":3776:3790   */\n      add\n        /* \"#utility.yul\":3762:3790   */\n      swap1\n      pop\n        /* \"#utility.yul\":3617:3796   */\n      swap3\n      swap2\n      pop\n      pop\n      jump\t// out\n        /* \"#utility.yul\":3802:3913   */\n    tag_117:\n        /* \"#utility.yul\":3870:3874   */\n      0x00\n        /* \"#utility.yul\":3902:3906   */\n      0x20\n        /* \"#utility.yul\":3897:3900   */\n      dup3\n        /* \"#utility.yul\":3893:3907   */\n      add\n        /* \"#utility.yul\":3885:3907   */\n      swap1\n      pop\n        /* \"#utility.yul\":3802:3913   */\n      swap2\n      swap1\n      pop\n      jump\t// out\n        /* \"#utility.yul\":3951:4645   */\n    tag_118:\n        /* \"#utility.yul\":4087:4139   */\n      tag_175\n        /* \"#utility.yul\":4133:4138   */\n      dup2\n        /* \"#utility.yul\":4087:4139   */\n      tag_112\n      jump\t// in\n    tag_175:\n        /* \"#utility.yul\":4155:4239   */\n      tag_176\n        /* \"#utility.yul\":4232:4238   */\n      dup2\n        /* \"#utility.yul\":4227:4230   */\n      dup5\n        /* \"#utility.yul\":4155:4239   */\n      tag_113\n      jump\t// in\n    tag_176:\n        /* \"#utility.yul\":4148:4239   */\n      swap3\n      pop\n        /* \"#utility.yul\":4263:4317   */\n      tag_177\n        /* \"#utility.yul\":4311:4316   */\n      dup3\n        /* \"#utility.yul\":4263:4317   */\n      tag_114\n      jump\t// in\n    tag_177:\n        /* \"#utility.yul\":4340:4347   */\n      dup1\n        /* \"#utility.yul\":4371:4372   */\n      0x00\n        /* \"#utility.yul\":4356:4638   */\n    tag_178:\n        /* \"#utility.yul\":4381:4387   */\n      dup4\n        /* \"#utility.yul\":4378:4379   */\n      dup2\n        /* \"#utility.yul\":4375:4388   */\n      lt\n        /* \"#utility.yul\":4356:4638   */\n      iszero\n      tag_180\n      jumpi\n        /* \"#utility.yul\":4457:4463   */\n      dup2\n        /* \"#utility.yul\":4451:4464   */\n      mload\n        /* \"#utility.yul\":4484:4547   */\n      tag_181\n        /* \"#utility.yul\":4543:4546   */\n      dup8\n        /* \"#utility.yul\":4528:4541   */\n      dup3\n        /* \"#utility.yul\":4484:4547   */\n      tag_116\n      jump\t// in\n    tag_181:\n        /* \"#utility.yul\":4477:4547   */\n      swap7\n      pop\n        /* \"#utility.yul\":4570:4628   */\n      tag_182\n        /* \"#utility.yul\":4621:4627   */\n      dup4\n        /* \"#utility.yul\":4570:4628   */\n      tag_117\n      jump\t// in\n    tag_182:\n        /* \"#utility.yul\":4560:4628   */\n      swap3\n      pop\n        /* \"#utility.yul\":4416:4638   */\n      pop\n        /* \"#utility.yul\":4403:4404   */\n      0x01\n        /* \"#utility.yul\":4400:4401   */\n      dup2\n        /* \"#utility.yul\":4396:4405   */\n      add\n        /* \"#utility.yul\":4391:4405   */\n      swap1\n      pop\n        /* \"#utility.yul\":4356:4638   */\n      jump(tag_178)\n    tag_180:\n        /* \"#utility.yul\":4360:4374   */\n      pop\n        /* \"#utility.yul\":4063:4645   */\n      pop\n      pop\n      pop\n        /* \"#utility.yul\":3951:4645   */\n      pop\n      pop\n      jump\t// out\n        /* \"#utility.yul\":4651:4965   */\n    tag_56:\n        /* \"#utility.yul\":4790:4794   */\n      0x00\n        /* \"#utility.yul\":4828:4830   */\n      0x60\n        /* \"#utility.yul\":4817:4826   */\n      dup3\n        /* \"#utility.yul\":4813:4831   */\n      add\n        /* \"#utility.yul\":4805:4831   */\n      swap1\n      pop\n        /* \"#utility.yul\":4841:4958   */\n      tag_184\n        /* \"#utility.yul\":4955:4956   */\n      0x00\n        /* \"#utility.yul\":4944:4953   */\n      dup4\n        /* \"#utility.yul\":4940:4957   */\n      add\n        /* \"#utility.yul\":4931:4937   */\n      dup5\n        /* \"#utility.yul\":4841:4958   */\n      tag_118\n      jump\t// in\n    tag_184:\n        /* \"#utility.yul\":4651:4965   */\n      swap3\n      swap2\n      pop\n      pop\n      jump\t// out\n        /* \"#utility.yul\":4971:5057   */\n    tag_119:\n        /* \"#utility.yul\":5006:5013   */\n      0x00\n        /* \"#utility.yul\":5046:5050   */\n      0xff\n        /* \"#utility.yul\":5039:5044   */\n      dup3\n        /* \"#utility.yul\":5035:5051   */\n      and\n        /* \"#utility.yul\":5024:5051   */\n      swap1\n      pop\n        /* \"#utility.yul\":4971:5057   */\n      swap2\n      swap1\n      pop\n      jump\t// out\n        /* \"#utility.yul\":5063:5254   */\n    tag_69:\n        /* \"#utility.yul\":5101:5105   */\n      0x00\n        /* \"#utility.yul\":5121:5139   */\n      tag_187\n        /* \"#utility.yul\":5137:5138   */\n      dup3\n        /* \"#utility.yul\":5121:5139   */\n      tag_119\n      jump\t// in\n    tag_187:\n        /* \"#utility.yul\":5116:5139   */\n      swap2\n      pop\n        /* \"#utility.yul\":5153:5171   */\n      tag_188\n        /* \"#utility.yul\":5169:5170   */\n      dup4\n        /* \"#utility.yul\":5153:5171   */\n      tag_119\n      jump\t// in\n    tag_188:\n        /* \"#utility.yul\":5148:5171   */\n      swap3\n      pop\n        /* \"#utility.yul\":5195:5196   */\n      dup3\n        /* \"#utility.yul\":5192:5193   */\n      dup3\n        /* \"#utility.yul\":5188:5197   */\n      sub\n        /* \"#utility.yul\":5180:5197   */\n      swap1\n      pop\n        /* \"#utility.yul\":5219:5223   */\n      0xff\n        /* \"#utility.yul\":5213:5217   */\n      dup2\n        /* \"#utility.yul\":5210:5224   */\n      gt\n        /* \"#utility.yul\":5207:5247   */\n      iszero\n      tag_189\n      jumpi\n        /* \"#utility.yul\":5227:5245   */\n      tag_190\n      tag_100\n      jump\t// in\n    tag_190:\n        /* \"#utility.yul\":5207:5247   */\n    tag_189:\n        /* \"#utility.yul\":5063:5254   */\n      swap3\n      swap2\n      pop\n      pop\n      jump\t// out\n        /* \"#utility.yul\":5260:5427   */\n    tag_77:\n        /* \"#utility.yul\":5297:5300   */\n      0x00\n        /* \"#utility.yul\":5320:5342   */\n      tag_192\n        /* \"#utility.yul\":5336:5341   */\n      dup3\n        /* \"#utility.yul\":5320:5342   */\n      tag_119\n      jump\t// in\n    tag_192:\n        /* \"#utility.yul\":5311:5342   */\n      swap2\n      pop\n        /* \"#utility.yul\":5364:5368   */\n      0x00\n        /* \"#utility.yul\":5357:5362   */\n      dup3\n        /* \"#utility.yul\":5354:5369   */\n      sub\n        /* \"#utility.yul\":5351:5392   */\n      tag_193\n      jumpi\n        /* \"#utility.yul\":5372:5390   */\n      tag_194\n      tag_100\n      jump\t// in\n    tag_194:\n        /* \"#utility.yul\":5351:5392   */\n    tag_193:\n        /* \"#utility.yul\":5419:5420   */\n      0x01\n        /* \"#utility.yul\":5412:5417   */\n      dup3\n        /* \"#utility.yul\":5408:5421   */\n      sub\n        /* \"#utility.yul\":5401:5421   */\n      swap1\n      pop\n        /* \"#utility.yul\":5260:5427   */\n      swap2\n      swap1\n      pop\n      jump\t// out\n        /* \"#utility.yul\":5433:5602   */\n    tag_120:\n        /* \"#utility.yul\":5517:5528   */\n      0x00\n        /* \"#utility.yul\":5551:5557   */\n      dup3\n        /* \"#utility.yul\":5546:5549   */\n      dup3\n        /* \"#utility.yul\":5539:5558   */\n      mstore\n        /* \"#utility.yul\":5591:5595   */\n      0x20\n        /* \"#utility.yul\":5586:5589   */\n      dup3\n        /* \"#utility.yul\":5582:5596   */\n      add\n        /* \"#utility.yul\":5567:5596   */\n      swap1\n      pop\n        /* \"#utility.yul\":5433:5602   */\n      swap3\n      swap2\n      pop\n      pop\n      jump\t// out\n        /* \"#utility.yul\":5608:5822   */\n    tag_121:\n        /* \"#utility.yul\":5748:5814   */\n      0xe8b4a6e688b7e697a0e68f90e78eb0e69d83e999900000000000000000000000\n        /* \"#utility.yul\":5744:5745   */\n      0x00\n        /* \"#utility.yul\":5736:5742   */\n      dup3\n        /* \"#utility.yul\":5732:5746   */\n      add\n        /* \"#utility.yul\":5725:5815   */\n      mstore\n        /* \"#utility.yul\":5608:5822   */\n      pop\n      jump\t// out\n        /* \"#utility.yul\":5828:6194   */\n    tag_122:\n        /* \"#utility.yul\":5970:5973   */\n      0x00\n        /* \"#utility.yul\":5991:6058   */\n      tag_198\n        /* \"#utility.yul\":6055:6057   */\n      0x15\n        /* \"#utility.yul\":6050:6053   */\n      dup4\n        /* \"#utility.yul\":5991:6058   */\n      tag_120\n      jump\t// in\n    tag_198:\n        /* \"#utility.yul\":5984:6058   */\n      swap2\n      pop\n        /* \"#utility.yul\":6067:6160   */\n      tag_199\n        /* \"#utility.yul\":6156:6159   */\n      dup3\n        /* \"#utility.yul\":6067:6160   */\n      tag_121\n      jump\t// in\n    tag_199:\n        /* \"#utility.yul\":6185:6187   */\n      0x20\n        /* \"#utility.yul\":6180:6183   */\n      dup3\n        /* \"#utility.yul\":6176:6188   */\n      add\n        /* \"#utility.yul\":6169:6188   */\n      swap1\n      pop\n        /* \"#utility.yul\":5828:6194   */\n      swap2\n      swap1\n      pop\n      jump\t// out\n        /* \"#utility.yul\":6200:6619   */\n    tag_85:\n        /* \"#utility.yul\":6366:6370   */\n      0x00\n        /* \"#utility.yul\":6404:6406   */\n      0x20\n        /* \"#utility.yul\":6393:6402   */\n      dup3\n        /* \"#utility.yul\":6389:6407   */\n      add\n        /* \"#utility.yul\":6381:6407   */\n      swap1\n      pop\n        /* \"#utility.yul\":6453:6462   */\n      dup2\n        /* \"#utility.yul\":6447:6451   */\n      dup2\n        /* \"#utility.yul\":6443:6463   */\n      sub\n        /* \"#utility.yul\":6439:6440   */\n      0x00\n        /* \"#utility.yul\":6428:6437   */\n      dup4\n        /* \"#utility.yul\":6424:6441   */\n      add\n        /* \"#utility.yul\":6417:6464   */\n      mstore\n        /* \"#utility.yul\":6481:6612   */\n      tag_201\n        /* \"#utility.yul\":6607:6611   */\n      dup2\n        /* \"#utility.yul\":6481:6612   */\n      tag_122\n      jump\t// in\n    tag_201:\n        /* \"#utility.yul\":6473:6612   */\n      swap1\n      pop\n        /* \"#utility.yul\":6200:6619   */\n      swap2\n      swap1\n      pop\n      jump\t// out\n        /* \"#utility.yul\":6625:6839   */\n    tag_123:\n        /* \"#utility.yul\":6765:6831   */\n      0xe59088e7baa6e8b4a6e688b7e4bd99e9a29de4b88de8b6b30000000000000000\n        /* \"#utility.yul\":6761:6762   */\n      0x00\n        /* \"#utility.yul\":6753:6759   */\n      dup3\n        /* \"#utility.yul\":6749:6763   */\n      add\n        /* \"#utility.yul\":6742:6832   */\n      mstore\n        /* \"#utility.yul\":6625:6839   */\n      pop\n      jump\t// out\n        /* \"#utility.yul\":6845:7211   */\n    tag_124:\n        /* \"#utility.yul\":6987:6990   */\n      0x00\n        /* \"#utility.yul\":7008:7075   */\n      tag_204\n        /* \"#utility.yul\":7072:7074   */\n      0x18\n        /* \"#utility.yul\":7067:7070   */\n      dup4\n        /* \"#utility.yul\":7008:7075   */\n      tag_120\n      jump\t// in\n    tag_204:\n        /* \"#utility.yul\":7001:7075   */\n      swap2\n      pop\n        /* \"#utility.yul\":7084:7177   */\n      tag_205\n        /* \"#utility.yul\":7173:7176   */\n      dup3\n        /* \"#utility.yul\":7084:7177   */\n      tag_123\n      jump\t// in\n    tag_205:\n        /* \"#utility.yul\":7202:7204   */\n      0x20\n        /* \"#utility.yul\":7197:7200   */\n      dup3\n        /* \"#utility.yul\":7193:7205   */\n      add\n        /* \"#utility.yul\":7186:7205   */\n      swap1\n      pop\n        /* \"#utility.yul\":6845:7211   */\n      swap2\n      swap1\n      pop\n      jump\t// out\n        /* \"#utility.yul\":7217:7636   */\n    tag_88:\n        /* \"#utility.yul\":7383:7387   */\n      0x00\n        /* \"#utility.yul\":7421:7423   */\n      0x20\n        /* \"#utility.yul\":7410:7419   */\n      dup3\n        /* \"#utility.yul\":7406:7424   */\n      add\n        /* \"#utility.yul\":7398:7424   */\n      swap1\n      pop\n        /* \"#utility.yul\":7470:7479   */\n      dup2\n        /* \"#utility.yul\":7464:7468   */\n      dup2\n        /* \"#utility.yul\":7460:7480   */\n      sub\n        /* \"#utility.yul\":7456:7457   */\n      0x00\n        /* \"#utility.yul\":7445:7454   */\n      dup4\n        /* \"#utility.yul\":7441:7458   */\n      add\n        /* \"#utility.yul\":7434:7481   */\n      mstore\n        /* \"#utility.yul\":7498:7629   */\n      tag_207\n        /* \"#utility.yul\":7624:7628   */\n      dup2\n        /* \"#utility.yul\":7498:7629   */\n      tag_124\n      jump\t// in\n    tag_207:\n        /* \"#utility.yul\":7490:7629   */\n      swap1\n      pop\n        /* \"#utility.yul\":7217:7636   */\n      swap2\n      swap1\n      pop\n      jump\t// out\n\n    auxdata: 0xa2646970667358221220ba2b8812bc5df36937c47ee36cacc234009d32c3151a9e5bacd43a68340aa6a364736f6c634300081a0033\n}\n",
				"bytecode": {
					"linkReferences": {},
					"object": "6080604052348015600e575f80fd5b50335f806101000a81548173ffffffffffffffffffffffffffffffffffffffff021916908373ffffffffffffffffffffffffffffffffffffffff160217905550610b5d8061005b5f395ff3fe608060405260043610610073575f3560e01c80638da5cb5b1161004d5780638da5cb5b1461020c578063b37c191b14610236578063d250496c14610272578063d303e7b2146102ae5761018c565b806312065fe0146101905780632e1a7d4d146101ba5780636f9fb98a146101e25761018c565b3661018c573460015f3373ffffffffffffffffffffffffffffffffffffffff1673ffffffffffffffffffffffffffffffffffffffff1681526020019081526020015f205f8282546100c49190610794565b9250508190555060015f600280600381106100e2576100e16107c7565b5b015f9054906101000a900473ffffffffffffffffffffffffffffffffffffffff1673ffffffffffffffffffffffffffffffffffffffff1673ffffffffffffffffffffffffffffffffffffffff1681526020019081526020015f205460015f3373ffffffffffffffffffffffffffffffffffffffff1673ffffffffffffffffffffffffffffffffffffffff1681526020019081526020015f2054111561018a576101896102d8565b5b005b5f80fd5b34801561019b575f80fd5b506101a46104cf565b6040516101b19190610803565b60405180910390f35b3480156101c5575f80fd5b506101e060048036038101906101db919061084a565b610513565b005b3480156101ed575f80fd5b506101f6610649565b6040516102039190610803565b60405180910390f35b348015610217575f80fd5b50610220610650565b60405161022d91906108b4565b60405180910390f35b348015610241575f80fd5b5061025c6004803603810190610257919061084a565b610673565b60405161026991906108b4565b60405180910390f35b34801561027d575f80fd5b50610298600480360381019061029391906108f7565b6106a7565b6040516102a59190610803565b60405180910390f35b3480156102b9575f80fd5b506102c26106bc565b6040516102cf91906109c7565b60405180910390f35b5f60015f3373ffffffffffffffffffffffffffffffffffffffff1673ffffffffffffffffffffffffffffffffffffffff1681526020019081526020015f205490505f5b60038160ff1610156104cb5760015f60028360ff1660038110610341576103406107c7565b5b015f9054906101000a900473ffffffffffffffffffffffffffffffffffffffff1673ffffffffffffffffffffffffffffffffffffffff1673ffffffffffffffffffffffffffffffffffffffff1681526020019081526020015f205482106104be575f600290505b8160ff168160ff1611156104625760026001826103c591906109ec565b60ff16600381106103d9576103d86107c7565b5b015f9054906101000a900473ffffffffffffffffffffffffffffffffffffffff1660028260ff1660038110610411576104106107c7565b5b015f6101000a81548173ffffffffffffffffffffffffffffffffffffffff021916908373ffffffffffffffffffffffffffffffffffffffff160217905550808061045a90610a20565b9150506103a8565b503360028260ff166003811061047b5761047a6107c7565b5b015f6101000a81548173ffffffffffffffffffffffffffffffffffffffff021916908373ffffffffffffffffffffffffffffffffffffffff1602179055506104cb565b808060010191505061031b565b5050565b5f60015f3373ffffffffffffffffffffffffffffffffffffffff1673ffffffffffffffffffffffffffffffffffffffff1681526020019081526020015f2054905090565b5f8054906101000a900473ffffffffffffffffffffffffffffffffffffffff1673ffffffffffffffffffffffffffffffffffffffff163373ffffffffffffffffffffffffffffffffffffffff16146105a0576040517f08c379a000000000000000000000000000000000000000000000000000000000815260040161059790610aa1565b60405180910390fd5b804710156105e3576040517f08c379a00000000000000000000000000000000000000000000000000000000081526004016105da90610b09565b60405180910390fd5b5f8054906101000a900473ffffffffffffffffffffffffffffffffffffffff1673ffffffffffffffffffffffffffffffffffffffff166108fc8290811502906040515f60405180830381858888f19350505050158015610645573d5f803e3d5ffd5b5050565b5f47905090565b5f8054906101000a900473ffffffffffffffffffffffffffffffffffffffff1681565b60028160038110610682575f80fd5b015f915054906101000a900473ffffffffffffffffffffffffffffffffffffffff1681565b6001602052805f5260405f205f915090505481565b6106c461073c565b6002600380602002604051908101604052809291908260038015610732576020028201915b815f9054906101000a900473ffffffffffffffffffffffffffffffffffffffff1673ffffffffffffffffffffffffffffffffffffffff16815260200190600101908083116106e9575b5050505050905090565b6040518060600160405280600390602082028036833780820191505090505090565b5f819050919050565b7f4e487b71000000000000000000000000000000000000000000000000000000005f52601160045260245ffd5b5f61079e8261075e565b91506107a98361075e565b92508282019050808211156107c1576107c0610767565b5b92915050565b7f4e487b71000000000000000000000000000000000000000000000000000000005f52603260045260245ffd5b6107fd8161075e565b82525050565b5f6020820190506108165f8301846107f4565b92915050565b5f80fd5b6108298161075e565b8114610833575f80fd5b50565b5f8135905061084481610820565b92915050565b5f6020828403121561085f5761085e61081c565b5b5f61086c84828501610836565b91505092915050565b5f73ffffffffffffffffffffffffffffffffffffffff82169050919050565b5f61089e82610875565b9050919050565b6108ae81610894565b82525050565b5f6020820190506108c75f8301846108a5565b92915050565b6108d681610894565b81146108e0575f80fd5b50565b5f813590506108f1816108cd565b92915050565b5f6020828403121561090c5761090b61081c565b5b5f610919848285016108e3565b91505092915050565b5f60039050919050565b5f81905092915050565b5f819050919050565b61094881610894565b82525050565b5f610959838361093f565b60208301905092915050565b5f602082019050919050565b61097a81610922565b610984818461092c565b925061098f82610936565b805f5b838110156109bf5781516109a6878261094e565b96506109b183610965565b925050600181019050610992565b505050505050565b5f6060820190506109da5f830184610971565b92915050565b5f60ff82169050919050565b5f6109f6826109e0565b9150610a01836109e0565b9250828203905060ff811115610a1a57610a19610767565b5b92915050565b5f610a2a826109e0565b91505f8203610a3c57610a3b610767565b5b600182039050919050565b5f82825260208201905092915050565b7fe8b4a6e688b7e697a0e68f90e78eb0e69d83e9999000000000000000000000005f82015250565b5f610a8b601583610a47565b9150610a9682610a57565b602082019050919050565b5f6020820190508181035f830152610ab881610a7f565b9050919050565b7fe59088e7baa6e8b4a6e688b7e4bd99e9a29de4b88de8b6b300000000000000005f82015250565b5f610af3601883610a47565b9150610afe82610abf565b602082019050919050565b5f6020820190508181035f830152610b2081610ae7565b905091905056fea2646970667358221220ba2b8812bc5df36937c47ee36cacc234009d32c3151a9e5bacd43a68340aa6a364736f6c634300081a0033",
					"opcodes": "PUSH1 0x80 PUSH1 0x40 MSTORE CALLVALUE DUP1 ISZERO PUSH1 0xE JUMPI PUSH0 DUP1 REVERT JUMPDEST POP CALLER PUSH0 DUP1 PUSH2 0x100 EXP DUP2 SLOAD DUP2 PUSH20 0xFFFFFFFFFFFFFFFFFFFFFFFFFFFFFFFFFFFFFFFF MUL NOT AND SWAP1 DUP4 PUSH20 0xFFFFFFFFFFFFFFFFFFFFFFFFFFFFFFFFFFFFFFFF AND MUL OR SWAP1 SSTORE POP PUSH2 0xB5D DUP1 PUSH2 0x5B PUSH0 CODECOPY PUSH0 RETURN INVALID PUSH1 0x80 PUSH1 0x40 MSTORE PUSH1 0x4 CALLDATASIZE LT PUSH2 0x73 JUMPI PUSH0 CALLDATALOAD PUSH1 0xE0 SHR DUP1 PUSH4 0x8DA5CB5B GT PUSH2 0x4D JUMPI DUP1 PUSH4 0x8DA5CB5B EQ PUSH2 0x20C JUMPI DUP1 PUSH4 0xB37C191B EQ PUSH2 0x236 JUMPI DUP1 PUSH4 0xD250496C EQ PUSH2 0x272 JUMPI DUP1 PUSH4 0xD303E7B2 EQ PUSH2 0x2AE JUMPI PUSH2 0x18C JUMP JUMPDEST DUP1 PUSH4 0x12065FE0 EQ PUSH2 0x190 JUMPI DUP1 PUSH4 0x2E1A7D4D EQ PUSH2 0x1BA JUMPI DUP1 PUSH4 0x6F9FB98A EQ PUSH2 0x1E2 JUMPI PUSH2 0x18C JUMP JUMPDEST CALLDATASIZE PUSH2 0x18C JUMPI CALLVALUE PUSH1 0x1 PUSH0 CALLER PUSH20 0xFFFFFFFFFFFFFFFFFFFFFFFFFFFFFFFFFFFFFFFF AND PUSH20 0xFFFFFFFFFFFFFFFFFFFFFFFFFFFFFFFFFFFFFFFF AND DUP2 MSTORE PUSH1 0x20 ADD SWAP1 DUP2 MSTORE PUSH1 0x20 ADD PUSH0 KECCAK256 PUSH0 DUP3 DUP3 SLOAD PUSH2 0xC4 SWAP2 SWAP1 PUSH2 0x794 JUMP JUMPDEST SWAP3 POP POP DUP2 SWAP1 SSTORE POP PUSH1 0x1 PUSH0 PUSH1 0x2 DUP1 PUSH1 0x3 DUP2 LT PUSH2 0xE2 JUMPI PUSH2 0xE1 PUSH2 0x7C7 JUMP JUMPDEST JUMPDEST ADD PUSH0 SWAP1 SLOAD SWAP1 PUSH2 0x100 EXP SWAP1 DIV PUSH20 0xFFFFFFFFFFFFFFFFFFFFFFFFFFFFFFFFFFFFFFFF AND PUSH20 0xFFFFFFFFFFFFFFFFFFFFFFFFFFFFFFFFFFFFFFFF AND PUSH20 0xFFFFFFFFFFFFFFFFFFFFFFFFFFFFFFFFFFFFFFFF AND DUP2 MSTORE PUSH1 0x20 ADD SWAP1 DUP2 MSTORE PUSH1 0x20 ADD PUSH0 KECCAK256 SLOAD PUSH1 0x1 PUSH0 CALLER PUSH20 0xFFFFFFFFFFFFFFFFFFFFFFFFFFFFFFFFFFFFFFFF AND PUSH20 0xFFFFFFFFFFFFFFFFFFFFFFFFFFFFFFFFFFFFFFFF AND DUP2 MSTORE PUSH1 0x20 ADD SWAP1 DUP2 MSTORE PUSH1 0x20 ADD PUSH0 KECCAK256 SLOAD GT ISZERO PUSH2 0x18A JUMPI PUSH2 0x189 PUSH2 0x2D8 JUMP JUMPDEST JUMPDEST STOP JUMPDEST PUSH0 DUP1 REVERT JUMPDEST CALLVALUE DUP1 ISZERO PUSH2 0x19B JUMPI PUSH0 DUP1 REVERT JUMPDEST POP PUSH2 0x1A4 PUSH2 0x4CF JUMP JUMPDEST PUSH1 0x40 MLOAD PUSH2 0x1B1 SWAP2 SWAP1 PUSH2 0x803 JUMP JUMPDEST PUSH1 0x40 MLOAD DUP1 SWAP2 SUB SWAP1 RETURN JUMPDEST CALLVALUE DUP1 ISZERO PUSH2 0x1C5 JUMPI PUSH0 DUP1 REVERT JUMPDEST POP PUSH2 0x1E0 PUSH1 0x4 DUP1 CALLDATASIZE SUB DUP2 ADD SWAP1 PUSH2 0x1DB SWAP2 SWAP1 PUSH2 0x84A JUMP JUMPDEST PUSH2 0x513 JUMP JUMPDEST STOP JUMPDEST CALLVALUE DUP1 ISZERO PUSH2 0x1ED JUMPI PUSH0 DUP1 REVERT JUMPDEST POP PUSH2 0x1F6 PUSH2 0x649 JUMP JUMPDEST PUSH1 0x40 MLOAD PUSH2 0x203 SWAP2 SWAP1 PUSH2 0x803 JUMP JUMPDEST PUSH1 0x40 MLOAD DUP1 SWAP2 SUB SWAP1 RETURN JUMPDEST CALLVALUE DUP1 ISZERO PUSH2 0x217 JUMPI PUSH0 DUP1 REVERT JUMPDEST POP PUSH2 0x220 PUSH2 0x650 JUMP JUMPDEST PUSH1 0x40 MLOAD PUSH2 0x22D SWAP2 SWAP1 PUSH2 0x8B4 JUMP JUMPDEST PUSH1 0x40 MLOAD DUP1 SWAP2 SUB SWAP1 RETURN JUMPDEST CALLVALUE DUP1 ISZERO PUSH2 0x241 JUMPI PUSH0 DUP1 REVERT JUMPDEST POP PUSH2 0x25C PUSH1 0x4 DUP1 CALLDATASIZE SUB DUP2 ADD SWAP1 PUSH2 0x257 SWAP2 SWAP1 PUSH2 0x84A JUMP JUMPDEST PUSH2 0x673 JUMP JUMPDEST PUSH1 0x40 MLOAD PUSH2 0x269 SWAP2 SWAP1 PUSH2 0x8B4 JUMP JUMPDEST PUSH1 0x40 MLOAD DUP1 SWAP2 SUB SWAP1 RETURN JUMPDEST CALLVALUE DUP1 ISZERO PUSH2 0x27D JUMPI PUSH0 DUP1 REVERT JUMPDEST POP PUSH2 0x298 PUSH1 0x4 DUP1 CALLDATASIZE SUB DUP2 ADD SWAP1 PUSH2 0x293 SWAP2 SWAP1 PUSH2 0x8F7 JUMP JUMPDEST PUSH2 0x6A7 JUMP JUMPDEST PUSH1 0x40 MLOAD PUSH2 0x2A5 SWAP2 SWAP1 PUSH2 0x803 JUMP JUMPDEST PUSH1 0x40 MLOAD DUP1 SWAP2 SUB SWAP1 RETURN JUMPDEST CALLVALUE DUP1 ISZERO PUSH2 0x2B9 JUMPI PUSH0 DUP1 REVERT JUMPDEST POP PUSH2 0x2C2 PUSH2 0x6BC JUMP JUMPDEST PUSH1 0x40 MLOAD PUSH2 0x2CF SWAP2 SWAP1 PUSH2 0x9C7 JUMP JUMPDEST PUSH1 0x40 MLOAD DUP1 SWAP2 SUB SWAP1 RETURN JUMPDEST PUSH0 PUSH1 0x1 PUSH0 CALLER PUSH20 0xFFFFFFFFFFFFFFFFFFFFFFFFFFFFFFFFFFFFFFFF AND PUSH20 0xFFFFFFFFFFFFFFFFFFFFFFFFFFFFFFFFFFFFFFFF AND DUP2 MSTORE PUSH1 0x20 ADD SWAP1 DUP2 MSTORE PUSH1 0x20 ADD PUSH0 KECCAK256 SLOAD SWAP1 POP PUSH0 JUMPDEST PUSH1 0x3 DUP2 PUSH1 0xFF AND LT ISZERO PUSH2 0x4CB JUMPI PUSH1 0x1 PUSH0 PUSH1 0x2 DUP4 PUSH1 0xFF AND PUSH1 0x3 DUP2 LT PUSH2 0x341 JUMPI PUSH2 0x340 PUSH2 0x7C7 JUMP JUMPDEST JUMPDEST ADD PUSH0 SWAP1 SLOAD SWAP1 PUSH2 0x100 EXP SWAP1 DIV PUSH20 0xFFFFFFFFFFFFFFFFFFFFFFFFFFFFFFFFFFFFFFFF AND PUSH20 0xFFFFFFFFFFFFFFFFFFFFFFFFFFFFFFFFFFFFFFFF AND PUSH20 0xFFFFFFFFFFFFFFFFFFFFFFFFFFFFFFFFFFFFFFFF AND DUP2 MSTORE PUSH1 0x20 ADD SWAP1 DUP2 MSTORE PUSH1 0x20 ADD PUSH0 KECCAK256 SLOAD DUP3 LT PUSH2 0x4BE JUMPI PUSH0 PUSH1 0x2 SWAP1 POP JUMPDEST DUP2 PUSH1 0xFF AND DUP2 PUSH1 0xFF AND GT ISZERO PUSH2 0x462 JUMPI PUSH1 0x2 PUSH1 0x1 DUP3 PUSH2 0x3C5 SWAP2 SWAP1 PUSH2 0x9EC JUMP JUMPDEST PUSH1 0xFF AND PUSH1 0x3 DUP2 LT PUSH2 0x3D9 JUMPI PUSH2 0x3D8 PUSH2 0x7C7 JUMP JUMPDEST JUMPDEST ADD PUSH0 SWAP1 SLOAD SWAP1 PUSH2 0x100 EXP SWAP1 DIV PUSH20 0xFFFFFFFFFFFFFFFFFFFFFFFFFFFFFFFFFFFFFFFF AND PUSH1 0x2 DUP3 PUSH1 0xFF AND PUSH1 0x3 DUP2 LT PUSH2 0x411 JUMPI PUSH2 0x410 PUSH2 0x7C7 JUMP JUMPDEST JUMPDEST ADD PUSH0 PUSH2 0x100 EXP DUP2 SLOAD DUP2 PUSH20 0xFFFFFFFFFFFFFFFFFFFFFFFFFFFFFFFFFFFFFFFF MUL NOT AND SWAP1 DUP4 PUSH20 0xFFFFFFFFFFFFFFFFFFFFFFFFFFFFFFFFFFFFFFFF AND MUL OR SWAP1 SSTORE POP DUP1 DUP1 PUSH2 0x45A SWAP1 PUSH2 0xA20 JUMP JUMPDEST SWAP2 POP POP PUSH2 0x3A8 JUMP JUMPDEST POP CALLER PUSH1 0x2 DUP3 PUSH1 0xFF AND PUSH1 0x3 DUP2 LT PUSH2 0x47B JUMPI PUSH2 0x47A PUSH2 0x7C7 JUMP JUMPDEST JUMPDEST ADD PUSH0 PUSH2 0x100 EXP DUP2 SLOAD DUP2 PUSH20 0xFFFFFFFFFFFFFFFFFFFFFFFFFFFFFFFFFFFFFFFF MUL NOT AND SWAP1 DUP4 PUSH20 0xFFFFFFFFFFFFFFFFFFFFFFFFFFFFFFFFFFFFFFFF AND MUL OR SWAP1 SSTORE POP PUSH2 0x4CB JUMP JUMPDEST DUP1 DUP1 PUSH1 0x1 ADD SWAP2 POP POP PUSH2 0x31B JUMP JUMPDEST POP POP JUMP JUMPDEST PUSH0 PUSH1 0x1 PUSH0 CALLER PUSH20 0xFFFFFFFFFFFFFFFFFFFFFFFFFFFFFFFFFFFFFFFF AND PUSH20 0xFFFFFFFFFFFFFFFFFFFFFFFFFFFFFFFFFFFFFFFF AND DUP2 MSTORE PUSH1 0x20 ADD SWAP1 DUP2 MSTORE PUSH1 0x20 ADD PUSH0 KECCAK256 SLOAD SWAP1 POP SWAP1 JUMP JUMPDEST PUSH0 DUP1 SLOAD SWAP1 PUSH2 0x100 EXP SWAP1 DIV PUSH20 0xFFFFFFFFFFFFFFFFFFFFFFFFFFFFFFFFFFFFFFFF AND PUSH20 0xFFFFFFFFFFFFFFFFFFFFFFFFFFFFFFFFFFFFFFFF AND CALLER PUSH20 0xFFFFFFFFFFFFFFFFFFFFFFFFFFFFFFFFFFFFFFFF AND EQ PUSH2 0x5A0 JUMPI PUSH1 0x40 MLOAD PUSH32 0x8C379A000000000000000000000000000000000000000000000000000000000 DUP2 MSTORE PUSH1 0x4 ADD PUSH2 0x597 SWAP1 PUSH2 0xAA1 JUMP JUMPDEST PUSH1 0x40 MLOAD DUP1 SWAP2 SUB SWAP1 REVERT JUMPDEST DUP1 SELFBALANCE LT ISZERO PUSH2 0x5E3 JUMPI PUSH1 0x40 MLOAD PUSH32 0x8C379A000000000000000000000000000000000000000000000000000000000 DUP2 MSTORE PUSH1 0x4 ADD PUSH2 0x5DA SWAP1 PUSH2 0xB09 JUMP JUMPDEST PUSH1 0x40 MLOAD DUP1 SWAP2 SUB SWAP1 REVERT JUMPDEST PUSH0 DUP1 SLOAD SWAP1 PUSH2 0x100 EXP SWAP1 DIV PUSH20 0xFFFFFFFFFFFFFFFFFFFFFFFFFFFFFFFFFFFFFFFF AND PUSH20 0xFFFFFFFFFFFFFFFFFFFFFFFFFFFFFFFFFFFFFFFF AND PUSH2 0x8FC DUP3 SWAP1 DUP2 ISZERO MUL SWAP1 PUSH1 0x40 MLOAD PUSH0 PUSH1 0x40 MLOAD DUP1 DUP4 SUB DUP2 DUP6 DUP9 DUP9 CALL SWAP4 POP POP POP POP ISZERO DUP1 ISZERO PUSH2 0x645 JUMPI RETURNDATASIZE PUSH0 DUP1 RETURNDATACOPY RETURNDATASIZE PUSH0 REVERT JUMPDEST POP POP JUMP JUMPDEST PUSH0 SELFBALANCE SWAP1 POP SWAP1 JUMP JUMPDEST PUSH0 DUP1 SLOAD SWAP1 PUSH2 0x100 EXP SWAP1 DIV PUSH20 0xFFFFFFFFFFFFFFFFFFFFFFFFFFFFFFFFFFFFFFFF AND DUP2 JUMP JUMPDEST PUSH1 0x2 DUP2 PUSH1 0x3 DUP2 LT PUSH2 0x682 JUMPI PUSH0 DUP1 REVERT JUMPDEST ADD PUSH0 SWAP2 POP SLOAD SWAP1 PUSH2 0x100 EXP SWAP1 DIV PUSH20 0xFFFFFFFFFFFFFFFFFFFFFFFFFFFFFFFFFFFFFFFF AND DUP2 JUMP JUMPDEST PUSH1 0x1 PUSH1 0x20 MSTORE DUP1 PUSH0 MSTORE PUSH1 0x40 PUSH0 KECCAK256 PUSH0 SWAP2 POP SWAP1 POP SLOAD DUP2 JUMP JUMPDEST PUSH2 0x6C4 PUSH2 0x73C JUMP JUMPDEST PUSH1 0x2 PUSH1 0x3 DUP1 PUSH1 0x20 MUL PUSH1 0x40 MLOAD SWAP1 DUP2 ADD PUSH1 0x40 MSTORE DUP1 SWAP3 SWAP2 SWAP1 DUP3 PUSH1 0x3 DUP1 ISZERO PUSH2 0x732 JUMPI PUSH1 0x20 MUL DUP3 ADD SWAP2 JUMPDEST DUP2 PUSH0 SWAP1 SLOAD SWAP1 PUSH2 0x100 EXP SWAP1 DIV PUSH20 0xFFFFFFFFFFFFFFFFFFFFFFFFFFFFFFFFFFFFFFFF AND PUSH20 0xFFFFFFFFFFFFFFFFFFFFFFFFFFFFFFFFFFFFFFFF AND DUP2 MSTORE PUSH1 0x20 ADD SWAP1 PUSH1 0x1 ADD SWAP1 DUP1 DUP4 GT PUSH2 0x6E9 JUMPI JUMPDEST POP POP POP POP POP SWAP1 POP SWAP1 JUMP JUMPDEST PUSH1 0x40 MLOAD DUP1 PUSH1 0x60 ADD PUSH1 0x40 MSTORE DUP1 PUSH1 0x3 SWAP1 PUSH1 0x20 DUP3 MUL DUP1 CALLDATASIZE DUP4 CALLDATACOPY DUP1 DUP3 ADD SWAP2 POP POP SWAP1 POP POP SWAP1 JUMP JUMPDEST PUSH0 DUP2 SWAP1 POP SWAP2 SWAP1 POP JUMP JUMPDEST PUSH32 0x4E487B7100000000000000000000000000000000000000000000000000000000 PUSH0 MSTORE PUSH1 0x11 PUSH1 0x4 MSTORE PUSH1 0x24 PUSH0 REVERT JUMPDEST PUSH0 PUSH2 0x79E DUP3 PUSH2 0x75E JUMP JUMPDEST SWAP2 POP PUSH2 0x7A9 DUP4 PUSH2 0x75E JUMP JUMPDEST SWAP3 POP DUP3 DUP3 ADD SWAP1 POP DUP1 DUP3 GT ISZERO PUSH2 0x7C1 JUMPI PUSH2 0x7C0 PUSH2 0x767 JUMP JUMPDEST JUMPDEST SWAP3 SWAP2 POP POP JUMP JUMPDEST PUSH32 0x4E487B7100000000000000000000000000000000000000000000000000000000 PUSH0 MSTORE PUSH1 0x32 PUSH1 0x4 MSTORE PUSH1 0x24 PUSH0 REVERT JUMPDEST PUSH2 0x7FD DUP2 PUSH2 0x75E JUMP JUMPDEST DUP3 MSTORE POP POP JUMP JUMPDEST PUSH0 PUSH1 0x20 DUP3 ADD SWAP1 POP PUSH2 0x816 PUSH0 DUP4 ADD DUP5 PUSH2 0x7F4 JUMP JUMPDEST SWAP3 SWAP2 POP POP JUMP JUMPDEST PUSH0 DUP1 REVERT JUMPDEST PUSH2 0x829 DUP2 PUSH2 0x75E JUMP JUMPDEST DUP2 EQ PUSH2 0x833 JUMPI PUSH0 DUP1 REVERT JUMPDEST POP JUMP JUMPDEST PUSH0 DUP2 CALLDATALOAD SWAP1 POP PUSH2 0x844 DUP2 PUSH2 0x820 JUMP JUMPDEST SWAP3 SWAP2 POP POP JUMP JUMPDEST PUSH0 PUSH1 0x20 DUP3 DUP5 SUB SLT ISZERO PUSH2 0x85F JUMPI PUSH2 0x85E PUSH2 0x81C JUMP JUMPDEST JUMPDEST PUSH0 PUSH2 0x86C DUP5 DUP3 DUP6 ADD PUSH2 0x836 JUMP JUMPDEST SWAP2 POP POP SWAP3 SWAP2 POP POP JUMP JUMPDEST PUSH0 PUSH20 0xFFFFFFFFFFFFFFFFFFFFFFFFFFFFFFFFFFFFFFFF DUP3 AND SWAP1 POP SWAP2 SWAP1 POP JUMP JUMPDEST PUSH0 PUSH2 0x89E DUP3 PUSH2 0x875 JUMP JUMPDEST SWAP1 POP SWAP2 SWAP1 POP JUMP JUMPDEST PUSH2 0x8AE DUP2 PUSH2 0x894 JUMP JUMPDEST DUP3 MSTORE POP POP JUMP JUMPDEST PUSH0 PUSH1 0x20 DUP3 ADD SWAP1 POP PUSH2 0x8C7 PUSH0 DUP4 ADD DUP5 PUSH2 0x8A5 JUMP JUMPDEST SWAP3 SWAP2 POP POP JUMP JUMPDEST PUSH2 0x8D6 DUP2 PUSH2 0x894 JUMP JUMPDEST DUP2 EQ PUSH2 0x8E0 JUMPI PUSH0 DUP1 REVERT JUMPDEST POP JUMP JUMPDEST PUSH0 DUP2 CALLDATALOAD SWAP1 POP PUSH2 0x8F1 DUP2 PUSH2 0x8CD JUMP JUMPDEST SWAP3 SWAP2 POP POP JUMP JUMPDEST PUSH0 PUSH1 0x20 DUP3 DUP5 SUB SLT ISZERO PUSH2 0x90C JUMPI PUSH2 0x90B PUSH2 0x81C JUMP JUMPDEST JUMPDEST PUSH0 PUSH2 0x919 DUP5 DUP3 DUP6 ADD PUSH2 0x8E3 JUMP JUMPDEST SWAP2 POP POP SWAP3 SWAP2 POP POP JUMP JUMPDEST PUSH0 PUSH1 0x3 SWAP1 POP SWAP2 SWAP1 POP JUMP JUMPDEST PUSH0 DUP2 SWAP1 POP SWAP3 SWAP2 POP POP JUMP JUMPDEST PUSH0 DUP2 SWAP1 POP SWAP2 SWAP1 POP JUMP JUMPDEST PUSH2 0x948 DUP2 PUSH2 0x894 JUMP JUMPDEST DUP3 MSTORE POP POP JUMP JUMPDEST PUSH0 PUSH2 0x959 DUP4 DUP4 PUSH2 0x93F JUMP JUMPDEST PUSH1 0x20 DUP4 ADD SWAP1 POP SWAP3 SWAP2 POP POP JUMP JUMPDEST PUSH0 PUSH1 0x20 DUP3 ADD SWAP1 POP SWAP2 SWAP1 POP JUMP JUMPDEST PUSH2 0x97A DUP2 PUSH2 0x922 JUMP JUMPDEST PUSH2 0x984 DUP2 DUP5 PUSH2 0x92C JUMP JUMPDEST SWAP3 POP PUSH2 0x98F DUP3 PUSH2 0x936 JUMP JUMPDEST DUP1 PUSH0 JUMPDEST DUP4 DUP2 LT ISZERO PUSH2 0x9BF JUMPI DUP2 MLOAD PUSH2 0x9A6 DUP8 DUP3 PUSH2 0x94E JUMP JUMPDEST SWAP7 POP PUSH2 0x9B1 DUP4 PUSH2 0x965 JUMP JUMPDEST SWAP3 POP POP PUSH1 0x1 DUP2 ADD SWAP1 POP PUSH2 0x992 JUMP JUMPDEST POP POP POP POP POP POP JUMP JUMPDEST PUSH0 PUSH1 0x60 DUP3 ADD SWAP1 POP PUSH2 0x9DA PUSH0 DUP4 ADD DUP5 PUSH2 0x971 JUMP JUMPDEST SWAP3 SWAP2 POP POP JUMP JUMPDEST PUSH0 PUSH1 0xFF DUP3 AND SWAP1 POP SWAP2 SWAP1 POP JUMP JUMPDEST PUSH0 PUSH2 0x9F6 DUP3 PUSH2 0x9E0 JUMP JUMPDEST SWAP2 POP PUSH2 0xA01 DUP4 PUSH2 0x9E0 JUMP JUMPDEST SWAP3 POP DUP3 DUP3 SUB SWAP1 POP PUSH1 0xFF DUP2 GT ISZERO PUSH2 0xA1A JUMPI PUSH2 0xA19 PUSH2 0x767 JUMP JUMPDEST JUMPDEST SWAP3 SWAP2 POP POP JUMP JUMPDEST PUSH0 PUSH2 0xA2A DUP3 PUSH2 0x9E0 JUMP JUMPDEST SWAP2 POP PUSH0 DUP3 SUB PUSH2 0xA3C JUMPI PUSH2 0xA3B PUSH2 0x767 JUMP JUMPDEST JUMPDEST PUSH1 0x1 DUP3 SUB SWAP1 POP SWAP2 SWAP1 POP JUMP JUMPDEST PUSH0 DUP3 DUP3 MSTORE PUSH1 0x20 DUP3 ADD SWAP1 POP SWAP3 SWAP2 POP POP JUMP JUMPDEST PUSH32 0xE8B4A6E688B7E697A0E68F90E78EB0E69D83E999900000000000000000000000 PUSH0 DUP3 ADD MSTORE POP JUMP JUMPDEST PUSH0 PUSH2 0xA8B PUSH1 0x15 DUP4 PUSH2 0xA47 JUMP JUMPDEST SWAP2 POP PUSH2 0xA96 DUP3 PUSH2 0xA57 JUMP JUMPDEST PUSH1 0x20 DUP3 ADD SWAP1 POP SWAP2 SWAP1 POP JUMP JUMPDEST PUSH0 PUSH1 0x20 DUP3 ADD SWAP1 POP DUP2 DUP2 SUB PUSH0 DUP4 ADD MSTORE PUSH2 0xAB8 DUP2 PUSH2 0xA7F JUMP JUMPDEST SWAP1 POP SWAP2 SWAP1 POP JUMP JUMPDEST PUSH32 0xE59088E7BAA6E8B4A6E688B7E4BD99E9A29DE4B88DE8B6B30000000000000000 PUSH0 DUP3 ADD MSTORE POP JUMP JUMPDEST PUSH0 PUSH2 0xAF3 PUSH1 0x18 DUP4 PUSH2 0xA47 JUMP JUMPDEST SWAP2 POP PUSH2 0xAFE DUP3 PUSH2 0xABF JUMP JUMPDEST PUSH1 0x20 DUP3 ADD SWAP1 POP SWAP2 SWAP1 POP JUMP JUMPDEST PUSH0 PUSH1 0x20 DUP3 ADD SWAP1 POP DUP2 DUP2 SUB PUSH0 DUP4 ADD MSTORE PUSH2 0xB20 DUP2 PUSH2 0xAE7 JUMP JUMPDEST SWAP1 POP SWAP2 SWAP1 POP JUMP INVALID LOG2 PUSH5 0x6970667358 0x22 SLT KECCAK256 0xBA 0x2B DUP9 SLT 0xBC TSTORE RETURN PUSH10 0x37C47EE36CACC234009D ORIGIN 0xC3 ISZERO BYTE SWAP15 JUMPDEST 0xAC 0xD4 GASPRICE PUSH9 0x340AA6A364736F6C63 NUMBER STOP ADDMOD BYTE STOP CALLER "
				},
				"gasEstimates": {
					"creation": {
						"codeDepositCost": "581800",
						"executionCost": "24876",
						"totalCost": "606676"
					},
					"external": {
						"balanceMap(address)": "2846",
						"getBalance()": "2520",
						"getContractBalance()": "379",
						"getRank()": "infinite",
						"owner()": "2505",
						"rank(uint256)": "2817",
						"withdraw(uint256)": "infinite"
					},
					"internal": {
						"updateRank()": "infinite"
					}
				},
				"methodIdentifiers": {
					"balanceMap(address)": "d250496c",
					"getBalance()": "12065fe0",
					"getContractBalance()": "6f9fb98a",
					"getRank()": "d303e7b2",
					"owner()": "8da5cb5b",
					"rank(uint256)": "b37c191b",
					"withdraw(uint256)": "2e1a7d4d"
				}
			},
			"storageLayout": {
				"storage": [
					{
						"astId": 3,
						"contract": "Bank/bank.sol:Bank",
						"label": "owner",
						"offset": 0,
						"slot": "0",
						"type": "t_address"
					},
					{
						"astId": 7,
						"contract": "Bank/bank.sol:Bank",
						"label": "balanceMap",
						"offset": 0,
						"slot": "1",
						"type": "t_mapping(t_address,t_uint256)"
					},
					{
						"astId": 11,
						"contract": "Bank/bank.sol:Bank",
						"label": "rank",
						"offset": 0,
						"slot": "2",
						"type": "t_array(t_address)3_storage"
					}
				],
				"types": {
					"t_address": {
						"encoding": "inplace",
						"label": "address",
						"numberOfBytes": "20"
					},
					"t_array(t_address)3_storage": {
						"base": "t_address",
						"encoding": "inplace",
						"label": "address[3]",
						"numberOfBytes": "96"
					},
					"t_mapping(t_address,t_uint256)": {
						"encoding": "mapping",
						"key": "t_address",
						"label": "mapping(address => uint256)",
						"numberOfBytes": "32",
						"value": "t_uint256"
					},
					"t_uint256": {
						"encoding": "inplace",
						"label": "uint256",
						"numberOfBytes": "32"
					}
				}
			},
			"userdoc": {
				"kind": "user",
				"methods": {},
				"version": 1
			}
		}
	}
}