{
	"BaseERC20/BaseERC20.sol": {
		"BaseERC20": {
			"abi": [
				{
					"inputs": [],
					"stateMutability": "nonpayable",
					"type": "constructor"
				},
				{
					"anonymous": false,
					"inputs": [
						{
							"indexed": true,
							"internalType": "address",
							"name": "owner",
							"type": "address"
						},
						{
							"indexed": true,
							"internalType": "address",
							"name": "spender",
							"type": "address"
						},
						{
							"indexed": false,
							"internalType": "uint256",
							"name": "value",
							"type": "uint256"
						}
					],
					"name": "Approval",
					"type": "event"
				},
				{
					"anonymous": false,
					"inputs": [
						{
							"indexed": true,
							"internalType": "address",
							"name": "from",
							"type": "address"
						},
						{
							"indexed": true,
							"internalType": "address",
							"name": "to",
							"type": "address"
						},
						{
							"indexed": false,
							"internalType": "uint256",
							"name": "value",
							"type": "uint256"
						}
					],
					"name": "Transfer",
					"type": "event"
				},
				{
					"inputs": [
						{
							"internalType": "address",
							"name": "_owner",
							"type": "address"
						},
						{
							"internalType": "address",
							"name": "_spender",
							"type": "address"
						}
					],
					"name": "allowance",
					"outputs": [
						{
							"internalType": "uint256",
							"name": "",
							"type": "uint256"
						}
					],
					"stateMutability": "view",
					"type": "function"
				},
				{
					"inputs": [
						{
							"internalType": "address",
							"name": "_spender",
							"type": "address"
						},
						{
							"internalType": "uint256",
							"name": "_value",
							"type": "uint256"
						}
					],
					"name": "approve",
					"outputs": [
						{
							"internalType": "bool",
							"name": "",
							"type": "bool"
						}
					],
					"stateMutability": "nonpayable",
					"type": "function"
				},
				{
					"inputs": [
						{
							"internalType": "address",
							"name": "_owner",
							"type": "address"
						}
					],
					"name": "balanceOf",
					"outputs": [
						{
							"internalType": "uint256",
							"name": "",
							"type": "uint256"
						}
					],
					"stateMutability": "view",
					"type": "function"
				},
				{
					"inputs": [],
					"name": "decimals",
					"outputs": [
						{
							"internalType": "uint8",
							"name": "",
							"type": "uint8"
						}
					],
					"stateMutability": "view",
					"type": "function"
				},
				{
					"inputs": [],
					"name": "name",
					"outputs": [
						{
							"internalType": "string",
							"name": "",
							"type": "string"
						}
					],
					"stateMutability": "view",
					"type": "function"
				},
				{
					"inputs": [],
					"name": "symbol",
					"outputs": [
						{
							"internalType": "string",
							"name": "",
							"type": "string"
						}
					],
					"stateMutability": "view",
					"type": "function"
				},
				{
					"inputs": [],
					"name": "totalSupply",
					"outputs": [
						{
							"internalType": "uint256",
							"name": "",
							"type": "uint256"
						}
					],
					"stateMutability": "view",
					"type": "function"
				},
				{
					"inputs": [
						{
							"internalType": "address",
							"name": "_to",
							"type": "address"
						},
						{
							"internalType": "uint256",
							"name": "_value",
							"type": "uint256"
						}
					],
					"name": "transfer",
					"outputs": [
						{
							"internalType": "bool",
							"name": "",
							"type": "bool"
						}
					],
					"stateMutability": "nonpayable",
					"type": "function"
				},
				{
					"inputs": [
						{
							"internalType": "address",
							"name": "_from",
							"type": "address"
						},
						{
							"internalType": "address",
							"name": "_to",
							"type": "address"
						},
						{
							"internalType": "uint256",
							"name": "_value",
							"type": "uint256"
						}
					],
					"name": "transferFrom",
					"outputs": [
						{
							"internalType": "bool",
							"name": "",
							"type": "bool"
						}
					],
					"stateMutability": "nonpayable",
					"type": "function"
				},
				{
					"inputs": [
						{
							"internalType": "address",
							"name": "_to",
							"type": "address"
						},
						{
							"internalType": "uint256",
							"name": "_value",
							"type": "uint256"
						},
						{
							"internalType": "bytes",
							"name": "_data",
							"type": "bytes"
						}
					],
					"name": "transferWithCallback",
					"outputs": [
						{
							"internalType": "bool",
							"name": "",
							"type": "bool"
						}
					],
					"stateMutability": "nonpayable",
					"type": "function"
				}
			],
			"devdoc": {
				"kind": "dev",
				"methods": {},
				"version": 1
			},
			"evm": {
				"assembly": "    /* \"BaseERC20/BaseERC20.sol\":711:4753  contract BaseERC20 {... */\n  mstore(0x40, 0x80)\n    /* \"BaseERC20/BaseERC20.sol\":1160:1351  constructor() {... */\n  callvalue\n  dup1\n  iszero\n  tag_1\n  jumpi\n  0x00\n  dup1\n  revert\ntag_1:\n  pop\n    /* \"BaseERC20/BaseERC20.sol\":1184:1202  name = \"BaseERC20\" */\n  mload(0x40)\n  dup1\n  0x40\n  add\n  0x40\n  mstore\n  dup1\n  0x09\n  dup2\n  mstore\n  0x20\n  add\n  0x4261736545524332300000000000000000000000000000000000000000000000\n  dup2\n  mstore\n  pop\n    /* \"BaseERC20/BaseERC20.sol\":1184:1188  name */\n  0x00\n    /* \"BaseERC20/BaseERC20.sol\":1184:1202  name = \"BaseERC20\" */\n  swap1\n  dup2\n  tag_4\n  swap2\n  swap1\n  tag_5\n  jump\t// in\ntag_4:\n  pop\n    /* \"BaseERC20/BaseERC20.sol\":1212:1229  symbol = \"BERC20\" */\n  mload(0x40)\n  dup1\n  0x40\n  add\n  0x40\n  mstore\n  dup1\n  0x06\n  dup2\n  mstore\n  0x20\n  add\n  0x4245524332300000000000000000000000000000000000000000000000000000\n  dup2\n  mstore\n  pop\n    /* \"BaseERC20/BaseERC20.sol\":1212:1218  symbol */\n  0x01\n    /* \"BaseERC20/BaseERC20.sol\":1212:1229  symbol = \"BERC20\" */\n  swap1\n  dup2\n  tag_6\n  swap2\n  swap1\n  tag_5\n  jump\t// in\ntag_6:\n  pop\n    /* \"BaseERC20/BaseERC20.sol\":1250:1252  18 */\n  0x12\n    /* \"BaseERC20/BaseERC20.sol\":1239:1247  decimals */\n  0x02\n  0x00\n    /* \"BaseERC20/BaseERC20.sol\":1239:1252  decimals = 18 */\n  0x0100\n  exp\n  dup2\n  sload\n  dup2\n  0xff\n  mul\n  not\n  and\n  swap1\n  dup4\n  0xff\n  and\n  mul\n  or\n  swap1\n  sstore\n  pop\n    /* \"BaseERC20/BaseERC20.sol\":1292:1300  decimals */\n  0x02\n  0x00\n  swap1\n  sload\n  swap1\n  0x0100\n  exp\n  swap1\n  div\n  0xff\n  and\n    /* \"BaseERC20/BaseERC20.sol\":1288:1290  10 */\n  0x0a\n    /* \"BaseERC20/BaseERC20.sol\":1288:1300  10**decimals */\n  tag_7\n  swap2\n  swap1\n  tag_8\n  jump\t// in\ntag_7:\n    /* \"BaseERC20/BaseERC20.sol\":1276:1285  100000000 */\n  0x05f5e100\n    /* \"BaseERC20/BaseERC20.sol\":1276:1300  100000000 * 10**decimals */\n  tag_9\n  swap2\n  swap1\n  tag_10\n  jump\t// in\ntag_9:\n    /* \"BaseERC20/BaseERC20.sol\":1262:1273  totalSupply */\n  0x03\n    /* \"BaseERC20/BaseERC20.sol\":1262:1300  totalSupply = 100000000 * 10**decimals */\n  dup2\n  swap1\n  sstore\n  pop\n    /* \"BaseERC20/BaseERC20.sol\":1333:1344  totalSupply */\n  sload(0x03)\n    /* \"BaseERC20/BaseERC20.sol\":1310:1318  balances */\n  0x04\n    /* \"BaseERC20/BaseERC20.sol\":1310:1330  balances[msg.sender] */\n  0x00\n    /* \"BaseERC20/BaseERC20.sol\":1319:1329  msg.sender */\n  caller\n    /* \"BaseERC20/BaseERC20.sol\":1310:1330  balances[msg.sender] */\n  0xffffffffffffffffffffffffffffffffffffffff\n  and\n  0xffffffffffffffffffffffffffffffffffffffff\n  and\n  dup2\n  mstore\n  0x20\n  add\n  swap1\n  dup2\n  mstore\n  0x20\n  add\n  0x00\n  keccak256\n    /* \"BaseERC20/BaseERC20.sol\":1310:1344  balances[msg.sender] = totalSupply */\n  dup2\n  swap1\n  sstore\n  pop\n    /* \"BaseERC20/BaseERC20.sol\":711:4753  contract BaseERC20 {... */\n  jump(tag_11)\n    /* \"#utility.yul\":7:106   */\ntag_12:\n    /* \"#utility.yul\":59:65   */\n  0x00\n    /* \"#utility.yul\":93:98   */\n  dup2\n    /* \"#utility.yul\":87:99   */\n  mload\n    /* \"#utility.yul\":77:99   */\n  swap1\n  pop\n    /* \"#utility.yul\":7:106   */\n  swap2\n  swap1\n  pop\n  jump\t// out\n    /* \"#utility.yul\":112:292   */\ntag_13:\n    /* \"#utility.yul\":160:237   */\n  0x4e487b7100000000000000000000000000000000000000000000000000000000\n    /* \"#utility.yul\":157:158   */\n  0x00\n    /* \"#utility.yul\":150:238   */\n  mstore\n    /* \"#utility.yul\":257:261   */\n  0x41\n    /* \"#utility.yul\":254:255   */\n  0x04\n    /* \"#utility.yul\":247:262   */\n  mstore\n    /* \"#utility.yul\":281:285   */\n  0x24\n    /* \"#utility.yul\":278:279   */\n  0x00\n    /* \"#utility.yul\":271:286   */\n  revert\n    /* \"#utility.yul\":298:478   */\ntag_14:\n    /* \"#utility.yul\":346:423   */\n  0x4e487b7100000000000000000000000000000000000000000000000000000000\n    /* \"#utility.yul\":343:344   */\n  0x00\n    /* \"#utility.yul\":336:424   */\n  mstore\n    /* \"#utility.yul\":443:447   */\n  0x22\n    /* \"#utility.yul\":440:441   */\n  0x04\n    /* \"#utility.yul\":433:448   */\n  mstore\n    /* \"#utility.yul\":467:471   */\n  0x24\n    /* \"#utility.yul\":464:465   */\n  0x00\n    /* \"#utility.yul\":457:472   */\n  revert\n    /* \"#utility.yul\":484:804   */\ntag_15:\n    /* \"#utility.yul\":528:534   */\n  0x00\n    /* \"#utility.yul\":565:566   */\n  0x02\n    /* \"#utility.yul\":559:563   */\n  dup3\n    /* \"#utility.yul\":555:567   */\n  div\n    /* \"#utility.yul\":545:567   */\n  swap1\n  pop\n    /* \"#utility.yul\":612:613   */\n  0x01\n    /* \"#utility.yul\":606:610   */\n  dup3\n    /* \"#utility.yul\":602:614   */\n  and\n    /* \"#utility.yul\":633:651   */\n  dup1\n    /* \"#utility.yul\":623:704   */\n  tag_42\n  jumpi\n    /* \"#utility.yul\":689:693   */\n  0x7f\n    /* \"#utility.yul\":681:687   */\n  dup3\n    /* \"#utility.yul\":677:694   */\n  and\n    /* \"#utility.yul\":667:694   */\n  swap2\n  pop\n    /* \"#utility.yul\":623:704   */\ntag_42:\n    /* \"#utility.yul\":751:753   */\n  0x20\n    /* \"#utility.yul\":743:749   */\n  dup3\n    /* \"#utility.yul\":740:754   */\n  lt\n    /* \"#utility.yul\":720:738   */\n  dup2\n    /* \"#utility.yul\":717:755   */\n  sub\n    /* \"#utility.yul\":714:798   */\n  tag_43\n  jumpi\n    /* \"#utility.yul\":770:788   */\n  tag_44\n  tag_14\n  jump\t// in\ntag_44:\n    /* \"#utility.yul\":714:798   */\ntag_43:\n    /* \"#utility.yul\":535:804   */\n  pop\n    /* \"#utility.yul\":484:804   */\n  swap2\n  swap1\n  pop\n  jump\t// out\n    /* \"#utility.yul\":810:951   */\ntag_16:\n    /* \"#utility.yul\":859:863   */\n  0x00\n    /* \"#utility.yul\":882:885   */\n  dup2\n    /* \"#utility.yul\":874:885   */\n  swap1\n  pop\n    /* \"#utility.yul\":905:908   */\n  dup2\n    /* \"#utility.yul\":902:903   */\n  0x00\n    /* \"#utility.yul\":895:909   */\n  mstore\n    /* \"#utility.yul\":939:943   */\n  0x20\n    /* \"#utility.yul\":936:937   */\n  0x00\n    /* \"#utility.yul\":926:944   */\n  keccak256\n    /* \"#utility.yul\":918:944   */\n  swap1\n  pop\n    /* \"#utility.yul\":810:951   */\n  swap2\n  swap1\n  pop\n  jump\t// out\n    /* \"#utility.yul\":957:1050   */\ntag_17:\n    /* \"#utility.yul\":994:1000   */\n  0x00\n    /* \"#utility.yul\":1041:1043   */\n  0x20\n    /* \"#utility.yul\":1036:1038   */\n  0x1f\n    /* \"#utility.yul\":1029:1034   */\n  dup4\n    /* \"#utility.yul\":1025:1039   */\n  add\n    /* \"#utility.yul\":1021:1044   */\n  div\n    /* \"#utility.yul\":1011:1044   */\n  swap1\n  pop\n    /* \"#utility.yul\":957:1050   */\n  swap2\n  swap1\n  pop\n  jump\t// out\n    /* \"#utility.yul\":1056:1163   */\ntag_18:\n    /* \"#utility.yul\":1100:1108   */\n  0x00\n    /* \"#utility.yul\":1150:1155   */\n  dup3\n    /* \"#utility.yul\":1144:1148   */\n  dup3\n    /* \"#utility.yul\":1140:1156   */\n  shl\n    /* \"#utility.yul\":1119:1156   */\n  swap1\n  pop\n    /* \"#utility.yul\":1056:1163   */\n  swap3\n  swap2\n  pop\n  pop\n  jump\t// out\n    /* \"#utility.yul\":1169:1562   */\ntag_19:\n    /* \"#utility.yul\":1238:1244   */\n  0x00\n    /* \"#utility.yul\":1288:1289   */\n  0x08\n    /* \"#utility.yul\":1276:1286   */\n  dup4\n    /* \"#utility.yul\":1272:1290   */\n  mul\n    /* \"#utility.yul\":1311:1408   */\n  tag_49\n    /* \"#utility.yul\":1341:1407   */\n  0xffffffffffffffffffffffffffffffffffffffffffffffffffffffffffffffff\n    /* \"#utility.yul\":1330:1339   */\n  dup3\n    /* \"#utility.yul\":1311:1408   */\n  tag_18\n  jump\t// in\ntag_49:\n    /* \"#utility.yul\":1429:1468   */\n  tag_50\n    /* \"#utility.yul\":1459:1467   */\n  dup7\n    /* \"#utility.yul\":1448:1457   */\n  dup4\n    /* \"#utility.yul\":1429:1468   */\n  tag_18\n  jump\t// in\ntag_50:\n    /* \"#utility.yul\":1417:1468   */\n  swap6\n  pop\n    /* \"#utility.yul\":1501:1505   */\n  dup1\n    /* \"#utility.yul\":1497:1506   */\n  not\n    /* \"#utility.yul\":1490:1495   */\n  dup5\n    /* \"#utility.yul\":1486:1507   */\n  and\n    /* \"#utility.yul\":1477:1507   */\n  swap4\n  pop\n    /* \"#utility.yul\":1550:1554   */\n  dup1\n    /* \"#utility.yul\":1540:1548   */\n  dup7\n    /* \"#utility.yul\":1536:1555   */\n  and\n    /* \"#utility.yul\":1529:1534   */\n  dup5\n    /* \"#utility.yul\":1526:1556   */\n  or\n    /* \"#utility.yul\":1516:1556   */\n  swap3\n  pop\n    /* \"#utility.yul\":1245:1562   */\n  pop\n  pop\n    /* \"#utility.yul\":1169:1562   */\n  swap4\n  swap3\n  pop\n  pop\n  pop\n  jump\t// out\n    /* \"#utility.yul\":1568:1645   */\ntag_20:\n    /* \"#utility.yul\":1605:1612   */\n  0x00\n    /* \"#utility.yul\":1634:1639   */\n  dup2\n    /* \"#utility.yul\":1623:1639   */\n  swap1\n  pop\n    /* \"#utility.yul\":1568:1645   */\n  swap2\n  swap1\n  pop\n  jump\t// out\n    /* \"#utility.yul\":1651:1711   */\ntag_21:\n    /* \"#utility.yul\":1679:1682   */\n  0x00\n    /* \"#utility.yul\":1700:1705   */\n  dup2\n    /* \"#utility.yul\":1693:1705   */\n  swap1\n  pop\n    /* \"#utility.yul\":1651:1711   */\n  swap2\n  swap1\n  pop\n  jump\t// out\n    /* \"#utility.yul\":1717:1859   */\ntag_22:\n    /* \"#utility.yul\":1767:1776   */\n  0x00\n    /* \"#utility.yul\":1800:1853   */\n  tag_54\n    /* \"#utility.yul\":1818:1852   */\n  tag_55\n    /* \"#utility.yul\":1827:1851   */\n  tag_56\n    /* \"#utility.yul\":1845:1850   */\n  dup5\n    /* \"#utility.yul\":1827:1851   */\n  tag_20\n  jump\t// in\ntag_56:\n    /* \"#utility.yul\":1818:1852   */\n  tag_21\n  jump\t// in\ntag_55:\n    /* \"#utility.yul\":1800:1853   */\n  tag_20\n  jump\t// in\ntag_54:\n    /* \"#utility.yul\":1787:1853   */\n  swap1\n  pop\n    /* \"#utility.yul\":1717:1859   */\n  swap2\n  swap1\n  pop\n  jump\t// out\n    /* \"#utility.yul\":1865:1940   */\ntag_23:\n    /* \"#utility.yul\":1908:1911   */\n  0x00\n    /* \"#utility.yul\":1929:1934   */\n  dup2\n    /* \"#utility.yul\":1922:1934   */\n  swap1\n  pop\n    /* \"#utility.yul\":1865:1940   */\n  swap2\n  swap1\n  pop\n  jump\t// out\n    /* \"#utility.yul\":1946:2215   */\ntag_24:\n    /* \"#utility.yul\":2056:2095   */\n  tag_59\n    /* \"#utility.yul\":2087:2094   */\n  dup4\n    /* \"#utility.yul\":2056:2095   */\n  tag_22\n  jump\t// in\ntag_59:\n    /* \"#utility.yul\":2117:2208   */\n  tag_60\n    /* \"#utility.yul\":2166:2207   */\n  tag_61\n    /* \"#utility.yul\":2190:2206   */\n  dup3\n    /* \"#utility.yul\":2166:2207   */\n  tag_23\n  jump\t// in\ntag_61:\n    /* \"#utility.yul\":2158:2164   */\n  dup5\n    /* \"#utility.yul\":2151:2155   */\n  dup5\n    /* \"#utility.yul\":2145:2156   */\n  sload\n    /* \"#utility.yul\":2117:2208   */\n  tag_19\n  jump\t// in\ntag_60:\n    /* \"#utility.yul\":2111:2115   */\n  dup3\n    /* \"#utility.yul\":2104:2209   */\n  sstore\n    /* \"#utility.yul\":2022:2215   */\n  pop\n    /* \"#utility.yul\":1946:2215   */\n  pop\n  pop\n  pop\n  jump\t// out\n    /* \"#utility.yul\":2221:2294   */\ntag_25:\n    /* \"#utility.yul\":2266:2269   */\n  0x00\n    /* \"#utility.yul\":2221:2294   */\n  swap1\n  jump\t// out\n    /* \"#utility.yul\":2300:2489   */\ntag_26:\n    /* \"#utility.yul\":2377:2409   */\n  tag_64\n  tag_25\n  jump\t// in\ntag_64:\n    /* \"#utility.yul\":2418:2483   */\n  tag_65\n    /* \"#utility.yul\":2476:2482   */\n  dup2\n    /* \"#utility.yul\":2468:2474   */\n  dup5\n    /* \"#utility.yul\":2462:2466   */\n  dup5\n    /* \"#utility.yul\":2418:2483   */\n  tag_24\n  jump\t// in\ntag_65:\n    /* \"#utility.yul\":2353:2489   */\n  pop\n    /* \"#utility.yul\":2300:2489   */\n  pop\n  pop\n  jump\t// out\n    /* \"#utility.yul\":2495:2681   */\ntag_27:\n    /* \"#utility.yul\":2555:2675   */\ntag_67:\n    /* \"#utility.yul\":2572:2575   */\n  dup2\n    /* \"#utility.yul\":2565:2570   */\n  dup2\n    /* \"#utility.yul\":2562:2576   */\n  lt\n    /* \"#utility.yul\":2555:2675   */\n  iszero\n  tag_69\n  jumpi\n    /* \"#utility.yul\":2626:2665   */\n  tag_70\n    /* \"#utility.yul\":2663:2664   */\n  0x00\n    /* \"#utility.yul\":2656:2661   */\n  dup3\n    /* \"#utility.yul\":2626:2665   */\n  tag_26\n  jump\t// in\ntag_70:\n    /* \"#utility.yul\":2599:2600   */\n  0x01\n    /* \"#utility.yul\":2592:2597   */\n  dup2\n    /* \"#utility.yul\":2588:2601   */\n  add\n    /* \"#utility.yul\":2579:2601   */\n  swap1\n  pop\n    /* \"#utility.yul\":2555:2675   */\n  jump(tag_67)\ntag_69:\n    /* \"#utility.yul\":2495:2681   */\n  pop\n  pop\n  jump\t// out\n    /* \"#utility.yul\":2687:3230   */\ntag_28:\n    /* \"#utility.yul\":2788:2790   */\n  0x1f\n    /* \"#utility.yul\":2783:2786   */\n  dup3\n    /* \"#utility.yul\":2780:2791   */\n  gt\n    /* \"#utility.yul\":2777:3223   */\n  iszero\n  tag_72\n  jumpi\n    /* \"#utility.yul\":2822:2860   */\n  tag_73\n    /* \"#utility.yul\":2854:2859   */\n  dup2\n    /* \"#utility.yul\":2822:2860   */\n  tag_16\n  jump\t// in\ntag_73:\n    /* \"#utility.yul\":2906:2935   */\n  tag_74\n    /* \"#utility.yul\":2924:2934   */\n  dup5\n    /* \"#utility.yul\":2906:2935   */\n  tag_17\n  jump\t// in\ntag_74:\n    /* \"#utility.yul\":2896:2904   */\n  dup2\n    /* \"#utility.yul\":2892:2936   */\n  add\n    /* \"#utility.yul\":3089:3091   */\n  0x20\n    /* \"#utility.yul\":3077:3087   */\n  dup6\n    /* \"#utility.yul\":3074:3092   */\n  lt\n    /* \"#utility.yul\":3071:3120   */\n  iszero\n  tag_75\n  jumpi\n    /* \"#utility.yul\":3110:3118   */\n  dup2\n    /* \"#utility.yul\":3095:3118   */\n  swap1\n  pop\n    /* \"#utility.yul\":3071:3120   */\ntag_75:\n    /* \"#utility.yul\":3133:3213   */\n  tag_76\n    /* \"#utility.yul\":3189:3211   */\n  tag_77\n    /* \"#utility.yul\":3207:3210   */\n  dup6\n    /* \"#utility.yul\":3189:3211   */\n  tag_17\n  jump\t// in\ntag_77:\n    /* \"#utility.yul\":3179:3187   */\n  dup4\n    /* \"#utility.yul\":3175:3212   */\n  add\n    /* \"#utility.yul\":3162:3173   */\n  dup3\n    /* \"#utility.yul\":3133:3213   */\n  tag_27\n  jump\t// in\ntag_76:\n    /* \"#utility.yul\":2792:3223   */\n  pop\n  pop\n    /* \"#utility.yul\":2777:3223   */\ntag_72:\n    /* \"#utility.yul\":2687:3230   */\n  pop\n  pop\n  pop\n  jump\t// out\n    /* \"#utility.yul\":3236:3353   */\ntag_29:\n    /* \"#utility.yul\":3290:3298   */\n  0x00\n    /* \"#utility.yul\":3340:3345   */\n  dup3\n    /* \"#utility.yul\":3334:3338   */\n  dup3\n    /* \"#utility.yul\":3330:3346   */\n  shr\n    /* \"#utility.yul\":3309:3346   */\n  swap1\n  pop\n    /* \"#utility.yul\":3236:3353   */\n  swap3\n  swap2\n  pop\n  pop\n  jump\t// out\n    /* \"#utility.yul\":3359:3528   */\ntag_30:\n    /* \"#utility.yul\":3403:3409   */\n  0x00\n    /* \"#utility.yul\":3436:3487   */\n  tag_80\n    /* \"#utility.yul\":3484:3485   */\n  0x00\n    /* \"#utility.yul\":3480:3486   */\n  not\n    /* \"#utility.yul\":3472:3477   */\n  dup5\n    /* \"#utility.yul\":3469:3470   */\n  0x08\n    /* \"#utility.yul\":3465:3478   */\n  mul\n    /* \"#utility.yul\":3436:3487   */\n  tag_29\n  jump\t// in\ntag_80:\n    /* \"#utility.yul\":3432:3488   */\n  not\n    /* \"#utility.yul\":3517:3521   */\n  dup1\n    /* \"#utility.yul\":3511:3515   */\n  dup4\n    /* \"#utility.yul\":3507:3522   */\n  and\n    /* \"#utility.yul\":3497:3522   */\n  swap2\n  pop\n    /* \"#utility.yul\":3410:3528   */\n  pop\n    /* \"#utility.yul\":3359:3528   */\n  swap3\n  swap2\n  pop\n  pop\n  jump\t// out\n    /* \"#utility.yul\":3533:3828   */\ntag_31:\n    /* \"#utility.yul\":3609:3613   */\n  0x00\n    /* \"#utility.yul\":3755:3784   */\n  tag_82\n    /* \"#utility.yul\":3780:3783   */\n  dup4\n    /* \"#utility.yul\":3774:3778   */\n  dup4\n    /* \"#utility.yul\":3755:3784   */\n  tag_30\n  jump\t// in\ntag_82:\n    /* \"#utility.yul\":3747:3784   */\n  swap2\n  pop\n    /* \"#utility.yul\":3817:3820   */\n  dup3\n    /* \"#utility.yul\":3814:3815   */\n  0x02\n    /* \"#utility.yul\":3810:3821   */\n  mul\n    /* \"#utility.yul\":3804:3808   */\n  dup3\n    /* \"#utility.yul\":3801:3822   */\n  or\n    /* \"#utility.yul\":3793:3822   */\n  swap1\n  pop\n    /* \"#utility.yul\":3533:3828   */\n  swap3\n  swap2\n  pop\n  pop\n  jump\t// out\n    /* \"#utility.yul\":3833:5228   */\ntag_5:\n    /* \"#utility.yul\":3950:3987   */\n  tag_84\n    /* \"#utility.yul\":3983:3986   */\n  dup3\n    /* \"#utility.yul\":3950:3987   */\n  tag_12\n  jump\t// in\ntag_84:\n    /* \"#utility.yul\":4052:4070   */\n  0xffffffffffffffff\n    /* \"#utility.yul\":4044:4050   */\n  dup2\n    /* \"#utility.yul\":4041:4071   */\n  gt\n    /* \"#utility.yul\":4038:4094   */\n  iszero\n  tag_85\n  jumpi\n    /* \"#utility.yul\":4074:4092   */\n  tag_86\n  tag_13\n  jump\t// in\ntag_86:\n    /* \"#utility.yul\":4038:4094   */\ntag_85:\n    /* \"#utility.yul\":4118:4156   */\n  tag_87\n    /* \"#utility.yul\":4150:4154   */\n  dup3\n    /* \"#utility.yul\":4144:4155   */\n  sload\n    /* \"#utility.yul\":4118:4156   */\n  tag_15\n  jump\t// in\ntag_87:\n    /* \"#utility.yul\":4203:4270   */\n  tag_88\n    /* \"#utility.yul\":4263:4269   */\n  dup3\n    /* \"#utility.yul\":4255:4261   */\n  dup3\n    /* \"#utility.yul\":4249:4253   */\n  dup6\n    /* \"#utility.yul\":4203:4270   */\n  tag_28\n  jump\t// in\ntag_88:\n    /* \"#utility.yul\":4297:4298   */\n  0x00\n    /* \"#utility.yul\":4321:4325   */\n  0x20\n    /* \"#utility.yul\":4308:4325   */\n  swap1\n  pop\n    /* \"#utility.yul\":4353:4355   */\n  0x1f\n    /* \"#utility.yul\":4345:4351   */\n  dup4\n    /* \"#utility.yul\":4342:4356   */\n  gt\n    /* \"#utility.yul\":4370:4371   */\n  0x01\n    /* \"#utility.yul\":4365:4983   */\n  dup2\n  eq\n  tag_90\n  jumpi\n    /* \"#utility.yul\":5027:5028   */\n  0x00\n    /* \"#utility.yul\":5044:5050   */\n  dup5\n    /* \"#utility.yul\":5041:5118   */\n  iszero\n  tag_91\n  jumpi\n    /* \"#utility.yul\":5093:5102   */\n  dup3\n    /* \"#utility.yul\":5088:5091   */\n  dup8\n    /* \"#utility.yul\":5084:5103   */\n  add\n    /* \"#utility.yul\":5078:5104   */\n  mload\n    /* \"#utility.yul\":5069:5104   */\n  swap1\n  pop\n    /* \"#utility.yul\":5041:5118   */\ntag_91:\n    /* \"#utility.yul\":5144:5211   */\n  tag_92\n    /* \"#utility.yul\":5204:5210   */\n  dup6\n    /* \"#utility.yul\":5197:5202   */\n  dup3\n    /* \"#utility.yul\":5144:5211   */\n  tag_31\n  jump\t// in\ntag_92:\n    /* \"#utility.yul\":5138:5142   */\n  dup7\n    /* \"#utility.yul\":5131:5212   */\n  sstore\n    /* \"#utility.yul\":5000:5222   */\n  pop\n    /* \"#utility.yul\":4335:5222   */\n  jump(tag_89)\n    /* \"#utility.yul\":4365:4983   */\ntag_90:\n    /* \"#utility.yul\":4417:4421   */\n  0x1f\n    /* \"#utility.yul\":4413:4422   */\n  not\n    /* \"#utility.yul\":4405:4411   */\n  dup5\n    /* \"#utility.yul\":4401:4423   */\n  and\n    /* \"#utility.yul\":4451:4488   */\n  tag_93\n    /* \"#utility.yul\":4483:4487   */\n  dup7\n    /* \"#utility.yul\":4451:4488   */\n  tag_16\n  jump\t// in\ntag_93:\n    /* \"#utility.yul\":4510:4511   */\n  0x00\n    /* \"#utility.yul\":4524:4732   */\ntag_94:\n    /* \"#utility.yul\":4538:4545   */\n  dup3\n    /* \"#utility.yul\":4535:4536   */\n  dup2\n    /* \"#utility.yul\":4532:4546   */\n  lt\n    /* \"#utility.yul\":4524:4732   */\n  iszero\n  tag_96\n  jumpi\n    /* \"#utility.yul\":4617:4626   */\n  dup5\n    /* \"#utility.yul\":4612:4615   */\n  dup10\n    /* \"#utility.yul\":4608:4627   */\n  add\n    /* \"#utility.yul\":4602:4628   */\n  mload\n    /* \"#utility.yul\":4594:4600   */\n  dup3\n    /* \"#utility.yul\":4587:4629   */\n  sstore\n    /* \"#utility.yul\":4668:4669   */\n  0x01\n    /* \"#utility.yul\":4660:4666   */\n  dup3\n    /* \"#utility.yul\":4656:4670   */\n  add\n    /* \"#utility.yul\":4646:4670   */\n  swap2\n  pop\n    /* \"#utility.yul\":4715:4717   */\n  0x20\n    /* \"#utility.yul\":4704:4713   */\n  dup6\n    /* \"#utility.yul\":4700:4718   */\n  add\n    /* \"#utility.yul\":4687:4718   */\n  swap5\n  pop\n    /* \"#utility.yul\":4561:4565   */\n  0x20\n    /* \"#utility.yul\":4558:4559   */\n  dup2\n    /* \"#utility.yul\":4554:4566   */\n  add\n    /* \"#utility.yul\":4549:4566   */\n  swap1\n  pop\n    /* \"#utility.yul\":4524:4732   */\n  jump(tag_94)\ntag_96:\n    /* \"#utility.yul\":4760:4766   */\n  dup7\n    /* \"#utility.yul\":4751:4758   */\n  dup4\n    /* \"#utility.yul\":4748:4767   */\n  lt\n    /* \"#utility.yul\":4745:4924   */\n  iszero\n  tag_97\n  jumpi\n    /* \"#utility.yul\":4818:4827   */\n  dup5\n    /* \"#utility.yul\":4813:4816   */\n  dup10\n    /* \"#utility.yul\":4809:4828   */\n  add\n    /* \"#utility.yul\":4803:4829   */\n  mload\n    /* \"#utility.yul\":4861:4909   */\n  tag_98\n    /* \"#utility.yul\":4903:4907   */\n  0x1f\n    /* \"#utility.yul\":4895:4901   */\n  dup10\n    /* \"#utility.yul\":4891:4908   */\n  and\n    /* \"#utility.yul\":4880:4889   */\n  dup3\n    /* \"#utility.yul\":4861:4909   */\n  tag_30\n  jump\t// in\ntag_98:\n    /* \"#utility.yul\":4853:4859   */\n  dup4\n    /* \"#utility.yul\":4846:4910   */\n  sstore\n    /* \"#utility.yul\":4768:4924   */\n  pop\n    /* \"#utility.yul\":4745:4924   */\ntag_97:\n    /* \"#utility.yul\":4970:4971   */\n  0x01\n    /* \"#utility.yul\":4966:4967   */\n  0x02\n    /* \"#utility.yul\":4958:4964   */\n  dup9\n    /* \"#utility.yul\":4954:4968   */\n  mul\n    /* \"#utility.yul\":4950:4972   */\n  add\n    /* \"#utility.yul\":4944:4948   */\n  dup9\n    /* \"#utility.yul\":4937:4973   */\n  sstore\n    /* \"#utility.yul\":4372:4983   */\n  pop\n  pop\n  pop\n    /* \"#utility.yul\":4335:5222   */\ntag_89:\n  pop\n    /* \"#utility.yul\":3925:5228   */\n  pop\n  pop\n  pop\n    /* \"#utility.yul\":3833:5228   */\n  pop\n  pop\n  jump\t// out\n    /* \"#utility.yul\":5234:5414   */\ntag_32:\n    /* \"#utility.yul\":5282:5359   */\n  0x4e487b7100000000000000000000000000000000000000000000000000000000\n    /* \"#utility.yul\":5279:5280   */\n  0x00\n    /* \"#utility.yul\":5272:5360   */\n  mstore\n    /* \"#utility.yul\":5379:5383   */\n  0x11\n    /* \"#utility.yul\":5376:5377   */\n  0x04\n    /* \"#utility.yul\":5369:5384   */\n  mstore\n    /* \"#utility.yul\":5403:5407   */\n  0x24\n    /* \"#utility.yul\":5400:5401   */\n  0x00\n    /* \"#utility.yul\":5393:5408   */\n  revert\n    /* \"#utility.yul\":5420:5522   */\ntag_33:\n    /* \"#utility.yul\":5462:5470   */\n  0x00\n    /* \"#utility.yul\":5509:5514   */\n  dup2\n    /* \"#utility.yul\":5506:5507   */\n  0x01\n    /* \"#utility.yul\":5502:5515   */\n  shr\n    /* \"#utility.yul\":5481:5515   */\n  swap1\n  pop\n    /* \"#utility.yul\":5420:5522   */\n  swap2\n  swap1\n  pop\n  jump\t// out\n    /* \"#utility.yul\":5528:6376   */\ntag_34:\n    /* \"#utility.yul\":5589:5594   */\n  0x00\n    /* \"#utility.yul\":5596:5600   */\n  dup1\n    /* \"#utility.yul\":5620:5626   */\n  dup3\n    /* \"#utility.yul\":5611:5626   */\n  swap2\n  pop\n    /* \"#utility.yul\":5644:5649   */\n  dup4\n    /* \"#utility.yul\":5635:5649   */\n  swap1\n  pop\n    /* \"#utility.yul\":5658:6370   */\ntag_102:\n    /* \"#utility.yul\":5679:5680   */\n  0x01\n    /* \"#utility.yul\":5669:5677   */\n  dup6\n    /* \"#utility.yul\":5666:5681   */\n  gt\n    /* \"#utility.yul\":5658:6370   */\n  iszero\n  tag_104\n  jumpi\n    /* \"#utility.yul\":5774:5778   */\n  dup1\n    /* \"#utility.yul\":5769:5772   */\n  dup7\n    /* \"#utility.yul\":5765:5779   */\n  div\n    /* \"#utility.yul\":5759:5763   */\n  dup2\n    /* \"#utility.yul\":5756:5780   */\n  gt\n    /* \"#utility.yul\":5753:5803   */\n  iszero\n  tag_105\n  jumpi\n    /* \"#utility.yul\":5783:5801   */\n  tag_106\n  tag_32\n  jump\t// in\ntag_106:\n    /* \"#utility.yul\":5753:5803   */\ntag_105:\n    /* \"#utility.yul\":5833:5834   */\n  0x01\n    /* \"#utility.yul\":5823:5831   */\n  dup6\n    /* \"#utility.yul\":5819:5835   */\n  and\n    /* \"#utility.yul\":5816:6267   */\n  iszero\n  tag_107\n  jumpi\n    /* \"#utility.yul\":6248:6252   */\n  dup1\n    /* \"#utility.yul\":6241:6246   */\n  dup3\n    /* \"#utility.yul\":6237:6253   */\n  mul\n    /* \"#utility.yul\":6228:6253   */\n  swap2\n  pop\n    /* \"#utility.yul\":5816:6267   */\ntag_107:\n    /* \"#utility.yul\":6298:6302   */\n  dup1\n    /* \"#utility.yul\":6292:6296   */\n  dup2\n    /* \"#utility.yul\":6288:6303   */\n  mul\n    /* \"#utility.yul\":6280:6303   */\n  swap1\n  pop\n    /* \"#utility.yul\":6328:6360   */\n  tag_108\n    /* \"#utility.yul\":6351:6359   */\n  dup6\n    /* \"#utility.yul\":6328:6360   */\n  tag_33\n  jump\t// in\ntag_108:\n    /* \"#utility.yul\":6316:6360   */\n  swap5\n  pop\n    /* \"#utility.yul\":5658:6370   */\n  jump(tag_102)\ntag_104:\n    /* \"#utility.yul\":5528:6376   */\n  swap5\n  pop\n  swap5\n  swap3\n  pop\n  pop\n  pop\n  jump\t// out\n    /* \"#utility.yul\":6382:7455   */\ntag_35:\n    /* \"#utility.yul\":6436:6441   */\n  0x00\n    /* \"#utility.yul\":6627:6635   */\n  dup3\n    /* \"#utility.yul\":6617:6657   */\n  tag_110\n  jumpi\n    /* \"#utility.yul\":6648:6649   */\n  0x01\n    /* \"#utility.yul\":6639:6649   */\n  swap1\n  pop\n    /* \"#utility.yul\":6650:6655   */\n  jump(tag_109)\n    /* \"#utility.yul\":6617:6657   */\ntag_110:\n    /* \"#utility.yul\":6676:6680   */\n  dup2\n    /* \"#utility.yul\":6666:6702   */\n  tag_111\n  jumpi\n    /* \"#utility.yul\":6693:6694   */\n  0x00\n    /* \"#utility.yul\":6684:6694   */\n  swap1\n  pop\n    /* \"#utility.yul\":6695:6700   */\n  jump(tag_109)\n    /* \"#utility.yul\":6666:6702   */\ntag_111:\n    /* \"#utility.yul\":6762:6766   */\n  dup2\n    /* \"#utility.yul\":6810:6811   */\n  0x01\n    /* \"#utility.yul\":6805:6832   */\n  dup2\n  eq\n  tag_113\n  jumpi\n    /* \"#utility.yul\":6846:6847   */\n  0x02\n    /* \"#utility.yul\":6841:7032   */\n  dup2\n  eq\n  tag_114\n  jumpi\n    /* \"#utility.yul\":6755:7032   */\n  jump(tag_112)\n    /* \"#utility.yul\":6805:6832   */\ntag_113:\n    /* \"#utility.yul\":6823:6824   */\n  0x01\n    /* \"#utility.yul\":6814:6824   */\n  swap2\n  pop\n    /* \"#utility.yul\":6825:6830   */\n  pop\n  jump(tag_109)\n    /* \"#utility.yul\":6841:7032   */\ntag_114:\n    /* \"#utility.yul\":6886:6889   */\n  0xff\n    /* \"#utility.yul\":6876:6884   */\n  dup5\n    /* \"#utility.yul\":6873:6890   */\n  gt\n    /* \"#utility.yul\":6870:6913   */\n  iszero\n  tag_115\n  jumpi\n    /* \"#utility.yul\":6893:6911   */\n  tag_116\n  tag_32\n  jump\t// in\ntag_116:\n    /* \"#utility.yul\":6870:6913   */\ntag_115:\n    /* \"#utility.yul\":6942:6950   */\n  dup4\n    /* \"#utility.yul\":6939:6940   */\n  0x02\n    /* \"#utility.yul\":6935:6951   */\n  exp\n    /* \"#utility.yul\":6926:6951   */\n  swap2\n  pop\n    /* \"#utility.yul\":6977:6980   */\n  dup5\n    /* \"#utility.yul\":6970:6975   */\n  dup3\n    /* \"#utility.yul\":6967:6981   */\n  gt\n    /* \"#utility.yul\":6964:7004   */\n  iszero\n  tag_117\n  jumpi\n    /* \"#utility.yul\":6984:7002   */\n  tag_118\n  tag_32\n  jump\t// in\ntag_118:\n    /* \"#utility.yul\":6964:7004   */\ntag_117:\n    /* \"#utility.yul\":7017:7022   */\n  pop\n  jump(tag_109)\n    /* \"#utility.yul\":6755:7032   */\ntag_112:\n  pop\n    /* \"#utility.yul\":7141:7143   */\n  0x20\n    /* \"#utility.yul\":7131:7139   */\n  dup4\n    /* \"#utility.yul\":7128:7144   */\n  lt\n    /* \"#utility.yul\":7122:7125   */\n  0x0133\n    /* \"#utility.yul\":7116:7120   */\n  dup4\n    /* \"#utility.yul\":7113:7126   */\n  lt\n    /* \"#utility.yul\":7109:7145   */\n  and\n    /* \"#utility.yul\":7091:7093   */\n  0x4e\n    /* \"#utility.yul\":7081:7089   */\n  dup5\n    /* \"#utility.yul\":7078:7094   */\n  lt\n    /* \"#utility.yul\":7073:7075   */\n  0x0b\n    /* \"#utility.yul\":7067:7071   */\n  dup5\n    /* \"#utility.yul\":7064:7076   */\n  lt\n    /* \"#utility.yul\":7060:7095   */\n  and\n    /* \"#utility.yul\":7044:7155   */\n  or\n    /* \"#utility.yul\":7041:7287   */\n  iszero\n  tag_119\n  jumpi\n    /* \"#utility.yul\":7197:7205   */\n  dup3\n    /* \"#utility.yul\":7191:7195   */\n  dup3\n    /* \"#utility.yul\":7187:7206   */\n  exp\n    /* \"#utility.yul\":7178:7206   */\n  swap1\n  pop\n    /* \"#utility.yul\":7232:7235   */\n  dup4\n    /* \"#utility.yul\":7225:7230   */\n  dup2\n    /* \"#utility.yul\":7222:7236   */\n  gt\n    /* \"#utility.yul\":7219:7259   */\n  iszero\n  tag_120\n  jumpi\n    /* \"#utility.yul\":7239:7257   */\n  tag_121\n  tag_32\n  jump\t// in\ntag_121:\n    /* \"#utility.yul\":7219:7259   */\ntag_120:\n    /* \"#utility.yul\":7272:7277   */\n  jump(tag_109)\n    /* \"#utility.yul\":7041:7287   */\ntag_119:\n    /* \"#utility.yul\":7312:7354   */\n  tag_122\n    /* \"#utility.yul\":7350:7353   */\n  dup5\n    /* \"#utility.yul\":7340:7348   */\n  dup5\n    /* \"#utility.yul\":7334:7338   */\n  dup5\n    /* \"#utility.yul\":7331:7332   */\n  0x01\n    /* \"#utility.yul\":7312:7354   */\n  tag_34\n  jump\t// in\ntag_122:\n    /* \"#utility.yul\":7297:7354   */\n  swap3\n  pop\n  swap1\n  pop\n    /* \"#utility.yul\":7386:7390   */\n  dup2\n    /* \"#utility.yul\":7381:7384   */\n  dup5\n    /* \"#utility.yul\":7377:7391   */\n  div\n    /* \"#utility.yul\":7370:7375   */\n  dup2\n    /* \"#utility.yul\":7367:7392   */\n  gt\n    /* \"#utility.yul\":7364:7415   */\n  iszero\n  tag_123\n  jumpi\n    /* \"#utility.yul\":7395:7413   */\n  tag_124\n  tag_32\n  jump\t// in\ntag_124:\n    /* \"#utility.yul\":7364:7415   */\ntag_123:\n    /* \"#utility.yul\":7444:7448   */\n  dup2\n    /* \"#utility.yul\":7437:7442   */\n  dup2\n    /* \"#utility.yul\":7433:7449   */\n  mul\n    /* \"#utility.yul\":7424:7449   */\n  swap1\n  pop\n    /* \"#utility.yul\":6382:7455   */\ntag_109:\n  swap4\n  swap3\n  pop\n  pop\n  pop\n  jump\t// out\n    /* \"#utility.yul\":7461:7547   */\ntag_36:\n    /* \"#utility.yul\":7496:7503   */\n  0x00\n    /* \"#utility.yul\":7536:7540   */\n  0xff\n    /* \"#utility.yul\":7529:7534   */\n  dup3\n    /* \"#utility.yul\":7525:7541   */\n  and\n    /* \"#utility.yul\":7514:7541   */\n  swap1\n  pop\n    /* \"#utility.yul\":7461:7547   */\n  swap2\n  swap1\n  pop\n  jump\t// out\n    /* \"#utility.yul\":7553:7834   */\ntag_8:\n    /* \"#utility.yul\":7611:7616   */\n  0x00\n    /* \"#utility.yul\":7635:7658   */\n  tag_127\n    /* \"#utility.yul\":7653:7657   */\n  dup3\n    /* \"#utility.yul\":7635:7658   */\n  tag_20\n  jump\t// in\ntag_127:\n    /* \"#utility.yul\":7627:7658   */\n  swap2\n  pop\n    /* \"#utility.yul\":7679:7704   */\n  tag_128\n    /* \"#utility.yul\":7695:7703   */\n  dup4\n    /* \"#utility.yul\":7679:7704   */\n  tag_36\n  jump\t// in\ntag_128:\n    /* \"#utility.yul\":7667:7704   */\n  swap3\n  pop\n    /* \"#utility.yul\":7723:7827   */\n  tag_129\n    /* \"#utility.yul\":7760:7826   */\n  0xffffffffffffffffffffffffffffffffffffffffffffffffffffffffffffffff\n    /* \"#utility.yul\":7750:7758   */\n  dup5\n    /* \"#utility.yul\":7744:7748   */\n  dup5\n    /* \"#utility.yul\":7723:7827   */\n  tag_35\n  jump\t// in\ntag_129:\n    /* \"#utility.yul\":7714:7827   */\n  swap1\n  pop\n    /* \"#utility.yul\":7553:7834   */\n  swap3\n  swap2\n  pop\n  pop\n  jump\t// out\n    /* \"#utility.yul\":7840:8250   */\ntag_10:\n    /* \"#utility.yul\":7880:7887   */\n  0x00\n    /* \"#utility.yul\":7903:7923   */\n  tag_131\n    /* \"#utility.yul\":7921:7922   */\n  dup3\n    /* \"#utility.yul\":7903:7923   */\n  tag_20\n  jump\t// in\ntag_131:\n    /* \"#utility.yul\":7898:7923   */\n  swap2\n  pop\n    /* \"#utility.yul\":7937:7957   */\n  tag_132\n    /* \"#utility.yul\":7955:7956   */\n  dup4\n    /* \"#utility.yul\":7937:7957   */\n  tag_20\n  jump\t// in\ntag_132:\n    /* \"#utility.yul\":7932:7957   */\n  swap3\n  pop\n    /* \"#utility.yul\":7992:7993   */\n  dup3\n    /* \"#utility.yul\":7989:7990   */\n  dup3\n    /* \"#utility.yul\":7985:7994   */\n  mul\n    /* \"#utility.yul\":8014:8044   */\n  tag_133\n    /* \"#utility.yul\":8032:8043   */\n  dup2\n    /* \"#utility.yul\":8014:8044   */\n  tag_20\n  jump\t// in\ntag_133:\n    /* \"#utility.yul\":8003:8044   */\n  swap2\n  pop\n    /* \"#utility.yul\":8193:8194   */\n  dup3\n    /* \"#utility.yul\":8184:8191   */\n  dup3\n    /* \"#utility.yul\":8180:8195   */\n  div\n    /* \"#utility.yul\":8177:8178   */\n  dup5\n    /* \"#utility.yul\":8174:8196   */\n  eq\n    /* \"#utility.yul\":8154:8155   */\n  dup4\n    /* \"#utility.yul\":8147:8156   */\n  iszero\n    /* \"#utility.yul\":8127:8210   */\n  or\n    /* \"#utility.yul\":8104:8243   */\n  tag_134\n  jumpi\n    /* \"#utility.yul\":8223:8241   */\n  tag_135\n  tag_32\n  jump\t// in\ntag_135:\n    /* \"#utility.yul\":8104:8243   */\ntag_134:\n    /* \"#utility.yul\":7888:8250   */\n  pop\n    /* \"#utility.yul\":7840:8250   */\n  swap3\n  swap2\n  pop\n  pop\n  jump\t// out\n    /* \"BaseERC20/BaseERC20.sol\":711:4753  contract BaseERC20 {... */\ntag_11:\n  dataSize(sub_0)\n  dup1\n  dataOffset(sub_0)\n  0x00\n  codecopy\n  0x00\n  return\nstop\n\nsub_0: assembly {\n        /* \"BaseERC20/BaseERC20.sol\":711:4753  contract BaseERC20 {... */\n      mstore(0x40, 0x80)\n      callvalue\n      dup1\n      iszero\n      tag_1\n      jumpi\n      0x00\n      dup1\n      revert\n    tag_1:\n      pop\n      jumpi(tag_2, lt(calldatasize, 0x04))\n      shr(0xe0, calldataload(0x00))\n      dup1\n      0x70a08231\n      gt\n      tag_13\n      jumpi\n      dup1\n      0x70a08231\n      eq\n      tag_8\n      jumpi\n      dup1\n      0x95d89b41\n      eq\n      tag_9\n      jumpi\n      dup1\n      0xa9059cbb\n      eq\n      tag_10\n      jumpi\n      dup1\n      0xd3139195\n      eq\n      tag_11\n      jumpi\n      dup1\n      0xdd62ed3e\n      eq\n      tag_12\n      jumpi\n      jump(tag_2)\n    tag_13:\n      dup1\n      0x06fdde03\n      eq\n      tag_3\n      jumpi\n      dup1\n      0x095ea7b3\n      eq\n      tag_4\n      jumpi\n      dup1\n      0x18160ddd\n      eq\n      tag_5\n      jumpi\n      dup1\n      0x23b872dd\n      eq\n      tag_6\n      jumpi\n      dup1\n      0x313ce567\n      eq\n      tag_7\n      jumpi\n    tag_2:\n      0x00\n      dup1\n      revert\n        /* \"BaseERC20/BaseERC20.sol\":736:754  string public name */\n    tag_3:\n      tag_14\n      tag_15\n      jump\t// in\n    tag_14:\n      mload(0x40)\n      tag_16\n      swap2\n      swap1\n      tag_17\n      jump\t// in\n    tag_16:\n      mload(0x40)\n      dup1\n      swap2\n      sub\n      swap1\n      return\n        /* \"BaseERC20/BaseERC20.sol\":3039:3298  function approve(address _spender, uint256 _value)... */\n    tag_4:\n      tag_18\n      0x04\n      dup1\n      calldatasize\n      sub\n      dup2\n      add\n      swap1\n      tag_19\n      swap2\n      swap1\n      tag_20\n      jump\t// in\n    tag_19:\n      tag_21\n      jump\t// in\n    tag_18:\n      mload(0x40)\n      tag_22\n      swap2\n      swap1\n      tag_23\n      jump\t// in\n    tag_22:\n      mload(0x40)\n      dup1\n      swap2\n      sub\n      swap1\n      return\n        /* \"BaseERC20/BaseERC20.sol\":813:839  uint256 public totalSupply */\n    tag_5:\n      tag_24\n      tag_25\n      jump\t// in\n    tag_24:\n      mload(0x40)\n      tag_26\n      swap2\n      swap1\n      tag_27\n      jump\t// in\n    tag_26:\n      mload(0x40)\n      dup1\n      swap2\n      sub\n      swap1\n      return\n        /* \"BaseERC20/BaseERC20.sol\":2521:2965  function transferFrom(... */\n    tag_6:\n      tag_28\n      0x04\n      dup1\n      calldatasize\n      sub\n      dup2\n      add\n      swap1\n      tag_29\n      swap2\n      swap1\n      tag_30\n      jump\t// in\n    tag_29:\n      tag_31\n      jump\t// in\n    tag_28:\n      mload(0x40)\n      tag_32\n      swap2\n      swap1\n      tag_23\n      jump\t// in\n    tag_32:\n      mload(0x40)\n      dup1\n      swap2\n      sub\n      swap1\n      return\n        /* \"BaseERC20/BaseERC20.sol\":786:807  uint8 public decimals */\n    tag_7:\n      tag_33\n      tag_34\n      jump\t// in\n    tag_33:\n      mload(0x40)\n      tag_35\n      swap2\n      swap1\n      tag_36\n      jump\t// in\n    tag_35:\n      mload(0x40)\n      dup1\n      swap2\n      sub\n      swap1\n      return\n        /* \"BaseERC20/BaseERC20.sol\":2049:2154  function balanceOf(address _owner) public view returns (uint256) {... */\n    tag_8:\n      tag_37\n      0x04\n      dup1\n      calldatasize\n      sub\n      dup2\n      add\n      swap1\n      tag_38\n      swap2\n      swap1\n      tag_39\n      jump\t// in\n    tag_38:\n      tag_40\n      jump\t// in\n    tag_37:\n      mload(0x40)\n      tag_41\n      swap2\n      swap1\n      tag_27\n      jump\t// in\n    tag_41:\n      mload(0x40)\n      dup1\n      swap2\n      sub\n      swap1\n      return\n        /* \"BaseERC20/BaseERC20.sol\":760:780  string public symbol */\n    tag_9:\n      tag_42\n      tag_43\n      jump\t// in\n    tag_42:\n      mload(0x40)\n      tag_44\n      swap2\n      swap1\n      tag_17\n      jump\t// in\n    tag_44:\n      mload(0x40)\n      dup1\n      swap2\n      sub\n      swap1\n      return\n        /* \"BaseERC20/BaseERC20.sol\":2180:2489  function transfer(address _to, uint256 _value)... */\n    tag_10:\n      tag_45\n      0x04\n      dup1\n      calldatasize\n      sub\n      dup2\n      add\n      swap1\n      tag_46\n      swap2\n      swap1\n      tag_20\n      jump\t// in\n    tag_46:\n      tag_47\n      jump\t// in\n    tag_45:\n      mload(0x40)\n      tag_48\n      swap2\n      swap1\n      tag_23\n      jump\t// in\n    tag_48:\n      mload(0x40)\n      dup1\n      swap2\n      sub\n      swap1\n      return\n        /* \"BaseERC20/BaseERC20.sol\":3729:4554  function transferWithCallback(... */\n    tag_11:\n      tag_49\n      0x04\n      dup1\n      calldatasize\n      sub\n      dup2\n      add\n      swap1\n      tag_50\n      swap2\n      swap1\n      tag_51\n      jump\t// in\n    tag_50:\n      tag_52\n      jump\t// in\n    tag_49:\n      mload(0x40)\n      tag_53\n      swap2\n      swap1\n      tag_23\n      jump\t// in\n    tag_53:\n      mload(0x40)\n      dup1\n      swap2\n      sub\n      swap1\n      return\n        /* \"BaseERC20/BaseERC20.sol\":3330:3493  function allowance(address _owner, address _spender)... */\n    tag_12:\n      tag_54\n      0x04\n      dup1\n      calldatasize\n      sub\n      dup2\n      add\n      swap1\n      tag_55\n      swap2\n      swap1\n      tag_56\n      jump\t// in\n    tag_55:\n      tag_57\n      jump\t// in\n    tag_54:\n      mload(0x40)\n      tag_58\n      swap2\n      swap1\n      tag_27\n      jump\t// in\n    tag_58:\n      mload(0x40)\n      dup1\n      swap2\n      sub\n      swap1\n      return\n        /* \"BaseERC20/BaseERC20.sol\":736:754  string public name */\n    tag_15:\n      0x00\n      dup1\n      sload\n      tag_59\n      swap1\n      tag_60\n      jump\t// in\n    tag_59:\n      dup1\n      0x1f\n      add\n      0x20\n      dup1\n      swap2\n      div\n      mul\n      0x20\n      add\n      mload(0x40)\n      swap1\n      dup2\n      add\n      0x40\n      mstore\n      dup1\n      swap3\n      swap2\n      swap1\n      dup2\n      dup2\n      mstore\n      0x20\n      add\n      dup3\n      dup1\n      sload\n      tag_61\n      swap1\n      tag_60\n      jump\t// in\n    tag_61:\n      dup1\n      iszero\n      tag_62\n      jumpi\n      dup1\n      0x1f\n      lt\n      tag_63\n      jumpi\n      0x0100\n      dup1\n      dup4\n      sload\n      div\n      mul\n      dup4\n      mstore\n      swap2\n      0x20\n      add\n      swap2\n      jump(tag_62)\n    tag_63:\n      dup3\n      add\n      swap2\n      swap1\n      0x00\n      mstore\n      keccak256(0x00, 0x20)\n      swap1\n    tag_64:\n      dup2\n      sload\n      dup2\n      mstore\n      swap1\n      0x01\n      add\n      swap1\n      0x20\n      add\n      dup1\n      dup4\n      gt\n      tag_64\n      jumpi\n      dup3\n      swap1\n      sub\n      0x1f\n      and\n      dup3\n      add\n      swap2\n    tag_62:\n      pop\n      pop\n      pop\n      pop\n      pop\n      dup2\n      jump\t// out\n        /* \"BaseERC20/BaseERC20.sol\":3039:3298  function approve(address _spender, uint256 _value)... */\n    tag_21:\n        /* \"BaseERC20/BaseERC20.sol\":3155:3159  bool */\n      0x00\n        /* \"BaseERC20/BaseERC20.sol\":3128:3136  _spender */\n      dup3\n        /* \"BaseERC20/BaseERC20.sol\":1455:1456  0 */\n      0x00\n        /* \"BaseERC20/BaseERC20.sol\":1438:1457  _addr != address(0) */\n      0xffffffffffffffffffffffffffffffffffffffff\n      and\n        /* \"BaseERC20/BaseERC20.sol\":1438:1443  _addr */\n      dup2\n        /* \"BaseERC20/BaseERC20.sol\":1438:1457  _addr != address(0) */\n      0xffffffffffffffffffffffffffffffffffffffff\n      and\n      sub\n        /* \"BaseERC20/BaseERC20.sol\":1430:1493  require(_addr != address(0), \"ERC20: transfer to zero address\") */\n      tag_66\n      jumpi\n      mload(0x40)\n      0x08c379a000000000000000000000000000000000000000000000000000000000\n      dup2\n      mstore\n      0x04\n      add\n      tag_67\n      swap1\n      tag_68\n      jump\t// in\n    tag_67:\n      mload(0x40)\n      dup1\n      swap2\n      sub\n      swap1\n      revert\n    tag_66:\n        /* \"BaseERC20/BaseERC20.sol\":3210:3216  _value */\n      dup3\n        /* \"BaseERC20/BaseERC20.sol\":3175:3185  allowances */\n      0x05\n        /* \"BaseERC20/BaseERC20.sol\":3175:3197  allowances[msg.sender] */\n      0x00\n        /* \"BaseERC20/BaseERC20.sol\":3186:3196  msg.sender */\n      caller\n        /* \"BaseERC20/BaseERC20.sol\":3175:3197  allowances[msg.sender] */\n      0xffffffffffffffffffffffffffffffffffffffff\n      and\n      0xffffffffffffffffffffffffffffffffffffffff\n      and\n      dup2\n      mstore\n      0x20\n      add\n      swap1\n      dup2\n      mstore\n      0x20\n      add\n      0x00\n      keccak256\n        /* \"BaseERC20/BaseERC20.sol\":3175:3207  allowances[msg.sender][_spender] */\n      0x00\n        /* \"BaseERC20/BaseERC20.sol\":3198:3206  _spender */\n      dup7\n        /* \"BaseERC20/BaseERC20.sol\":3175:3207  allowances[msg.sender][_spender] */\n      0xffffffffffffffffffffffffffffffffffffffff\n      and\n      0xffffffffffffffffffffffffffffffffffffffff\n      and\n      dup2\n      mstore\n      0x20\n      add\n      swap1\n      dup2\n      mstore\n      0x20\n      add\n      0x00\n      keccak256\n        /* \"BaseERC20/BaseERC20.sol\":3175:3216  allowances[msg.sender][_spender] = _value */\n      dup2\n      swap1\n      sstore\n      pop\n        /* \"BaseERC20/BaseERC20.sol\":3253:3261  _spender */\n      dup4\n        /* \"BaseERC20/BaseERC20.sol\":3232:3270  Approval(msg.sender, _spender, _value) */\n      0xffffffffffffffffffffffffffffffffffffffff\n      and\n        /* \"BaseERC20/BaseERC20.sol\":3241:3251  msg.sender */\n      caller\n        /* \"BaseERC20/BaseERC20.sol\":3232:3270  Approval(msg.sender, _spender, _value) */\n      0xffffffffffffffffffffffffffffffffffffffff\n      and\n      0x8c5be1e5ebec7d5bd14f71427d1e84f3dd0314c0f7b2291e5b200ac8c7c3b925\n        /* \"BaseERC20/BaseERC20.sol\":3263:3269  _value */\n      dup6\n        /* \"BaseERC20/BaseERC20.sol\":3232:3270  Approval(msg.sender, _spender, _value) */\n      mload(0x40)\n      tag_70\n      swap2\n      swap1\n      tag_27\n      jump\t// in\n    tag_70:\n      mload(0x40)\n      dup1\n      swap2\n      sub\n      swap1\n      log3\n        /* \"BaseERC20/BaseERC20.sol\":3287:3291  true */\n      0x01\n        /* \"BaseERC20/BaseERC20.sol\":3280:3291  return true */\n      swap2\n      pop\n        /* \"BaseERC20/BaseERC20.sol\":3039:3298  function approve(address _spender, uint256 _value)... */\n      pop\n      swap3\n      swap2\n      pop\n      pop\n      jump\t// out\n        /* \"BaseERC20/BaseERC20.sol\":813:839  uint256 public totalSupply */\n    tag_25:\n      sload(0x03)\n      dup2\n      jump\t// out\n        /* \"BaseERC20/BaseERC20.sol\":2521:2965  function transferFrom(... */\n    tag_31:\n        /* \"BaseERC20/BaseERC20.sol\":2766:2770  bool */\n      0x00\n        /* \"BaseERC20/BaseERC20.sol\":2655:2658  _to */\n      dup3\n        /* \"BaseERC20/BaseERC20.sol\":1455:1456  0 */\n      0x00\n        /* \"BaseERC20/BaseERC20.sol\":1438:1457  _addr != address(0) */\n      0xffffffffffffffffffffffffffffffffffffffff\n      and\n        /* \"BaseERC20/BaseERC20.sol\":1438:1443  _addr */\n      dup2\n        /* \"BaseERC20/BaseERC20.sol\":1438:1457  _addr != address(0) */\n      0xffffffffffffffffffffffffffffffffffffffff\n      and\n      sub\n        /* \"BaseERC20/BaseERC20.sol\":1430:1493  require(_addr != address(0), \"ERC20: transfer to zero address\") */\n      tag_72\n      jumpi\n      mload(0x40)\n      0x08c379a000000000000000000000000000000000000000000000000000000000\n      dup2\n      mstore\n      0x04\n      add\n      tag_73\n      swap1\n      tag_68\n      jump\t// in\n    tag_73:\n      mload(0x40)\n      dup1\n      swap2\n      sub\n      swap1\n      revert\n    tag_72:\n        /* \"BaseERC20/BaseERC20.sol\":2682:2687  _from */\n      dup5\n        /* \"BaseERC20/BaseERC20.sol\":2689:2695  _value */\n      dup4\n        /* \"BaseERC20/BaseERC20.sol\":1641:1647  _value */\n      dup1\n        /* \"BaseERC20/BaseERC20.sol\":1622:1630  balances */\n      0x04\n        /* \"BaseERC20/BaseERC20.sol\":1622:1637  balances[_addr] */\n      0x00\n        /* \"BaseERC20/BaseERC20.sol\":1631:1636  _addr */\n      dup5\n        /* \"BaseERC20/BaseERC20.sol\":1622:1637  balances[_addr] */\n      0xffffffffffffffffffffffffffffffffffffffff\n      and\n      0xffffffffffffffffffffffffffffffffffffffff\n      and\n      dup2\n      mstore\n      0x20\n      add\n      swap1\n      dup2\n      mstore\n      0x20\n      add\n      0x00\n      keccak256\n      sload\n        /* \"BaseERC20/BaseERC20.sol\":1622:1647  balances[_addr] >= _value */\n      lt\n      iszero\n        /* \"BaseERC20/BaseERC20.sol\":1601:1711  require(... */\n      tag_75\n      jumpi\n      mload(0x40)\n      0x08c379a000000000000000000000000000000000000000000000000000000000\n      dup2\n      mstore\n      0x04\n      add\n      tag_76\n      swap1\n      tag_77\n      jump\t// in\n    tag_76:\n      mload(0x40)\n      dup1\n      swap2\n      sub\n      swap1\n      revert\n    tag_75:\n        /* \"BaseERC20/BaseERC20.sol\":2722:2727  _from */\n      dup7\n        /* \"BaseERC20/BaseERC20.sol\":2729:2739  msg.sender */\n      caller\n        /* \"BaseERC20/BaseERC20.sol\":2741:2747  _value */\n      dup7\n        /* \"BaseERC20/BaseERC20.sol\":1918:1924  _value */\n      dup1\n        /* \"BaseERC20/BaseERC20.sol\":1892:1902  allowances */\n      0x05\n        /* \"BaseERC20/BaseERC20.sol\":1892:1909  allowances[_from] */\n      0x00\n        /* \"BaseERC20/BaseERC20.sol\":1903:1908  _from */\n      dup6\n        /* \"BaseERC20/BaseERC20.sol\":1892:1909  allowances[_from] */\n      0xffffffffffffffffffffffffffffffffffffffff\n      and\n      0xffffffffffffffffffffffffffffffffffffffff\n      and\n      dup2\n      mstore\n      0x20\n      add\n      swap1\n      dup2\n      mstore\n      0x20\n      add\n      0x00\n      keccak256\n        /* \"BaseERC20/BaseERC20.sol\":1892:1914  allowances[_from][_to] */\n      0x00\n        /* \"BaseERC20/BaseERC20.sol\":1910:1913  _to */\n      dup5\n        /* \"BaseERC20/BaseERC20.sol\":1892:1914  allowances[_from][_to] */\n      0xffffffffffffffffffffffffffffffffffffffff\n      and\n      0xffffffffffffffffffffffffffffffffffffffff\n      and\n      dup2\n      mstore\n      0x20\n      add\n      swap1\n      dup2\n      mstore\n      0x20\n      add\n      0x00\n      keccak256\n      sload\n        /* \"BaseERC20/BaseERC20.sol\":1892:1924  allowances[_from][_to] >= _value */\n      lt\n      iszero\n        /* \"BaseERC20/BaseERC20.sol\":1871:1990  require(... */\n      tag_79\n      jumpi\n      mload(0x40)\n      0x08c379a000000000000000000000000000000000000000000000000000000000\n      dup2\n      mstore\n      0x04\n      add\n      tag_80\n      swap1\n      tag_81\n      jump\t// in\n    tag_80:\n      mload(0x40)\n      dup1\n      swap2\n      sub\n      swap1\n      revert\n    tag_79:\n        /* \"BaseERC20/BaseERC20.sol\":2805:2811  _value */\n      dup8\n        /* \"BaseERC20/BaseERC20.sol\":2786:2794  balances */\n      0x04\n        /* \"BaseERC20/BaseERC20.sol\":2786:2801  balances[_from] */\n      0x00\n        /* \"BaseERC20/BaseERC20.sol\":2795:2800  _from */\n      dup13\n        /* \"BaseERC20/BaseERC20.sol\":2786:2801  balances[_from] */\n      0xffffffffffffffffffffffffffffffffffffffff\n      and\n      0xffffffffffffffffffffffffffffffffffffffff\n      and\n      dup2\n      mstore\n      0x20\n      add\n      swap1\n      dup2\n      mstore\n      0x20\n      add\n      0x00\n      keccak256\n      0x00\n        /* \"BaseERC20/BaseERC20.sol\":2786:2811  balances[_from] -= _value */\n      dup3\n      dup3\n      sload\n      tag_83\n      swap2\n      swap1\n      tag_84\n      jump\t// in\n    tag_83:\n      swap3\n      pop\n      pop\n      dup2\n      swap1\n      sstore\n      pop\n        /* \"BaseERC20/BaseERC20.sol\":2838:2844  _value */\n      dup8\n        /* \"BaseERC20/BaseERC20.sol\":2821:2829  balances */\n      0x04\n        /* \"BaseERC20/BaseERC20.sol\":2821:2834  balances[_to] */\n      0x00\n        /* \"BaseERC20/BaseERC20.sol\":2830:2833  _to */\n      dup12\n        /* \"BaseERC20/BaseERC20.sol\":2821:2834  balances[_to] */\n      0xffffffffffffffffffffffffffffffffffffffff\n      and\n      0xffffffffffffffffffffffffffffffffffffffff\n      and\n      dup2\n      mstore\n      0x20\n      add\n      swap1\n      dup2\n      mstore\n      0x20\n      add\n      0x00\n      keccak256\n      0x00\n        /* \"BaseERC20/BaseERC20.sol\":2821:2844  balances[_to] += _value */\n      dup3\n      dup3\n      sload\n      tag_85\n      swap2\n      swap1\n      tag_86\n      jump\t// in\n    tag_85:\n      swap3\n      pop\n      pop\n      dup2\n      swap1\n      sstore\n      pop\n        /* \"BaseERC20/BaseERC20.sol\":2887:2893  _value */\n      dup8\n        /* \"BaseERC20/BaseERC20.sol\":2854:2864  allowances */\n      0x05\n        /* \"BaseERC20/BaseERC20.sol\":2854:2871  allowances[_from] */\n      0x00\n        /* \"BaseERC20/BaseERC20.sol\":2865:2870  _from */\n      dup13\n        /* \"BaseERC20/BaseERC20.sol\":2854:2871  allowances[_from] */\n      0xffffffffffffffffffffffffffffffffffffffff\n      and\n      0xffffffffffffffffffffffffffffffffffffffff\n      and\n      dup2\n      mstore\n      0x20\n      add\n      swap1\n      dup2\n      mstore\n      0x20\n      add\n      0x00\n      keccak256\n        /* \"BaseERC20/BaseERC20.sol\":2854:2883  allowances[_from][msg.sender] */\n      0x00\n        /* \"BaseERC20/BaseERC20.sol\":2872:2882  msg.sender */\n      caller\n        /* \"BaseERC20/BaseERC20.sol\":2854:2883  allowances[_from][msg.sender] */\n      0xffffffffffffffffffffffffffffffffffffffff\n      and\n      0xffffffffffffffffffffffffffffffffffffffff\n      and\n      dup2\n      mstore\n      0x20\n      add\n      swap1\n      dup2\n      mstore\n      0x20\n      add\n      0x00\n      keccak256\n      0x00\n        /* \"BaseERC20/BaseERC20.sol\":2854:2893  allowances[_from][msg.sender] -= _value */\n      dup3\n      dup3\n      sload\n      tag_87\n      swap2\n      swap1\n      tag_84\n      jump\t// in\n    tag_87:\n      swap3\n      pop\n      pop\n      dup2\n      swap1\n      sstore\n      pop\n        /* \"BaseERC20/BaseERC20.sol\":2925:2928  _to */\n      dup9\n        /* \"BaseERC20/BaseERC20.sol\":2909:2937  Transfer(_from, _to, _value) */\n      0xffffffffffffffffffffffffffffffffffffffff\n      and\n        /* \"BaseERC20/BaseERC20.sol\":2918:2923  _from */\n      dup11\n        /* \"BaseERC20/BaseERC20.sol\":2909:2937  Transfer(_from, _to, _value) */\n      0xffffffffffffffffffffffffffffffffffffffff\n      and\n      0xddf252ad1be2c89b69c2b068fc378daa952ba7f163c4a11628f55a4df523b3ef\n        /* \"BaseERC20/BaseERC20.sol\":2930:2936  _value */\n      dup11\n        /* \"BaseERC20/BaseERC20.sol\":2909:2937  Transfer(_from, _to, _value) */\n      mload(0x40)\n      tag_88\n      swap2\n      swap1\n      tag_27\n      jump\t// in\n    tag_88:\n      mload(0x40)\n      dup1\n      swap2\n      sub\n      swap1\n      log3\n        /* \"BaseERC20/BaseERC20.sol\":2954:2958  true */\n      0x01\n        /* \"BaseERC20/BaseERC20.sol\":2947:2958  return true */\n      swap7\n      pop\n        /* \"BaseERC20/BaseERC20.sol\":1721:1722  _ */\n      pop\n      pop\n      pop\n        /* \"BaseERC20/BaseERC20.sol\":1503:1504  _ */\n      pop\n      pop\n        /* \"BaseERC20/BaseERC20.sol\":2521:2965  function transferFrom(... */\n      pop\n      swap4\n      swap3\n      pop\n      pop\n      pop\n      jump\t// out\n        /* \"BaseERC20/BaseERC20.sol\":786:807  uint8 public decimals */\n    tag_34:\n      0x02\n      0x00\n      swap1\n      sload\n      swap1\n      0x0100\n      exp\n      swap1\n      div\n      0xff\n      and\n      dup2\n      jump\t// out\n        /* \"BaseERC20/BaseERC20.sol\":2049:2154  function balanceOf(address _owner) public view returns (uint256) {... */\n    tag_40:\n        /* \"BaseERC20/BaseERC20.sol\":2105:2112  uint256 */\n      0x00\n        /* \"BaseERC20/BaseERC20.sol\":2131:2139  balances */\n      0x04\n        /* \"BaseERC20/BaseERC20.sol\":2131:2147  balances[_owner] */\n      0x00\n        /* \"BaseERC20/BaseERC20.sol\":2140:2146  _owner */\n      dup4\n        /* \"BaseERC20/BaseERC20.sol\":2131:2147  balances[_owner] */\n      0xffffffffffffffffffffffffffffffffffffffff\n      and\n      0xffffffffffffffffffffffffffffffffffffffff\n      and\n      dup2\n      mstore\n      0x20\n      add\n      swap1\n      dup2\n      mstore\n      0x20\n      add\n      0x00\n      keccak256\n      sload\n        /* \"BaseERC20/BaseERC20.sol\":2124:2147  return balances[_owner] */\n      swap1\n      pop\n        /* \"BaseERC20/BaseERC20.sol\":2049:2154  function balanceOf(address _owner) public view returns (uint256) {... */\n      swap2\n      swap1\n      pop\n      jump\t// out\n        /* \"BaseERC20/BaseERC20.sol\":760:780  string public symbol */\n    tag_43:\n      0x01\n      dup1\n      sload\n      tag_90\n      swap1\n      tag_60\n      jump\t// in\n    tag_90:\n      dup1\n      0x1f\n      add\n      0x20\n      dup1\n      swap2\n      div\n      mul\n      0x20\n      add\n      mload(0x40)\n      swap1\n      dup2\n      add\n      0x40\n      mstore\n      dup1\n      swap3\n      swap2\n      swap1\n      dup2\n      dup2\n      mstore\n      0x20\n      add\n      dup3\n      dup1\n      sload\n      tag_91\n      swap1\n      tag_60\n      jump\t// in\n    tag_91:\n      dup1\n      iszero\n      tag_92\n      jumpi\n      dup1\n      0x1f\n      lt\n      tag_93\n      jumpi\n      0x0100\n      dup1\n      dup4\n      sload\n      div\n      mul\n      dup4\n      mstore\n      swap2\n      0x20\n      add\n      swap2\n      jump(tag_92)\n    tag_93:\n      dup3\n      add\n      swap2\n      swap1\n      0x00\n      mstore\n      keccak256(0x00, 0x20)\n      swap1\n    tag_94:\n      dup2\n      sload\n      dup2\n      mstore\n      swap1\n      0x01\n      add\n      swap1\n      0x20\n      add\n      dup1\n      dup4\n      gt\n      tag_94\n      jumpi\n      dup3\n      swap1\n      sub\n      0x1f\n      and\n      dup3\n      add\n      swap2\n    tag_92:\n      pop\n      pop\n      pop\n      pop\n      pop\n      dup2\n      jump\t// out\n        /* \"BaseERC20/BaseERC20.sol\":2180:2489  function transfer(address _to, uint256 _value)... */\n    tag_47:\n        /* \"BaseERC20/BaseERC20.sol\":2329:2333  bool */\n      0x00\n        /* \"BaseERC20/BaseERC20.sol\":2265:2268  _to */\n      dup3\n        /* \"BaseERC20/BaseERC20.sol\":1455:1456  0 */\n      0x00\n        /* \"BaseERC20/BaseERC20.sol\":1438:1457  _addr != address(0) */\n      0xffffffffffffffffffffffffffffffffffffffff\n      and\n        /* \"BaseERC20/BaseERC20.sol\":1438:1443  _addr */\n      dup2\n        /* \"BaseERC20/BaseERC20.sol\":1438:1457  _addr != address(0) */\n      0xffffffffffffffffffffffffffffffffffffffff\n      and\n      sub\n        /* \"BaseERC20/BaseERC20.sol\":1430:1493  require(_addr != address(0), \"ERC20: transfer to zero address\") */\n      tag_96\n      jumpi\n      mload(0x40)\n      0x08c379a000000000000000000000000000000000000000000000000000000000\n      dup2\n      mstore\n      0x04\n      add\n      tag_97\n      swap1\n      tag_68\n      jump\t// in\n    tag_97:\n      mload(0x40)\n      dup1\n      swap2\n      sub\n      swap1\n      revert\n    tag_96:\n        /* \"BaseERC20/BaseERC20.sol\":2292:2302  msg.sender */\n      caller\n        /* \"BaseERC20/BaseERC20.sol\":2304:2310  _value */\n      dup4\n        /* \"BaseERC20/BaseERC20.sol\":1641:1647  _value */\n      dup1\n        /* \"BaseERC20/BaseERC20.sol\":1622:1630  balances */\n      0x04\n        /* \"BaseERC20/BaseERC20.sol\":1622:1637  balances[_addr] */\n      0x00\n        /* \"BaseERC20/BaseERC20.sol\":1631:1636  _addr */\n      dup5\n        /* \"BaseERC20/BaseERC20.sol\":1622:1637  balances[_addr] */\n      0xffffffffffffffffffffffffffffffffffffffff\n      and\n      0xffffffffffffffffffffffffffffffffffffffff\n      and\n      dup2\n      mstore\n      0x20\n      add\n      swap1\n      dup2\n      mstore\n      0x20\n      add\n      0x00\n      keccak256\n      sload\n        /* \"BaseERC20/BaseERC20.sol\":1622:1647  balances[_addr] >= _value */\n      lt\n      iszero\n        /* \"BaseERC20/BaseERC20.sol\":1601:1711  require(... */\n      tag_99\n      jumpi\n      mload(0x40)\n      0x08c379a000000000000000000000000000000000000000000000000000000000\n      dup2\n      mstore\n      0x04\n      add\n      tag_100\n      swap1\n      tag_77\n      jump\t// in\n    tag_100:\n      mload(0x40)\n      dup1\n      swap2\n      sub\n      swap1\n      revert\n    tag_99:\n        /* \"BaseERC20/BaseERC20.sol\":2373:2379  _value */\n      dup5\n        /* \"BaseERC20/BaseERC20.sol\":2349:2357  balances */\n      0x04\n        /* \"BaseERC20/BaseERC20.sol\":2349:2369  balances[msg.sender] */\n      0x00\n        /* \"BaseERC20/BaseERC20.sol\":2358:2368  msg.sender */\n      caller\n        /* \"BaseERC20/BaseERC20.sol\":2349:2369  balances[msg.sender] */\n      0xffffffffffffffffffffffffffffffffffffffff\n      and\n      0xffffffffffffffffffffffffffffffffffffffff\n      and\n      dup2\n      mstore\n      0x20\n      add\n      swap1\n      dup2\n      mstore\n      0x20\n      add\n      0x00\n      keccak256\n      0x00\n        /* \"BaseERC20/BaseERC20.sol\":2349:2379  balances[msg.sender] -= _value */\n      dup3\n      dup3\n      sload\n      tag_102\n      swap2\n      swap1\n      tag_84\n      jump\t// in\n    tag_102:\n      swap3\n      pop\n      pop\n      dup2\n      swap1\n      sstore\n      pop\n        /* \"BaseERC20/BaseERC20.sol\":2406:2412  _value */\n      dup5\n        /* \"BaseERC20/BaseERC20.sol\":2389:2397  balances */\n      0x04\n        /* \"BaseERC20/BaseERC20.sol\":2389:2402  balances[_to] */\n      0x00\n        /* \"BaseERC20/BaseERC20.sol\":2398:2401  _to */\n      dup9\n        /* \"BaseERC20/BaseERC20.sol\":2389:2402  balances[_to] */\n      0xffffffffffffffffffffffffffffffffffffffff\n      and\n      0xffffffffffffffffffffffffffffffffffffffff\n      and\n      dup2\n      mstore\n      0x20\n      add\n      swap1\n      dup2\n      mstore\n      0x20\n      add\n      0x00\n      keccak256\n      0x00\n        /* \"BaseERC20/BaseERC20.sol\":2389:2412  balances[_to] += _value */\n      dup3\n      dup3\n      sload\n      tag_103\n      swap2\n      swap1\n      tag_86\n      jump\t// in\n    tag_103:\n      swap3\n      pop\n      pop\n      dup2\n      swap1\n      sstore\n      pop\n        /* \"BaseERC20/BaseERC20.sol\":2449:2452  _to */\n      dup6\n        /* \"BaseERC20/BaseERC20.sol\":2428:2461  Transfer(msg.sender, _to, _value) */\n      0xffffffffffffffffffffffffffffffffffffffff\n      and\n        /* \"BaseERC20/BaseERC20.sol\":2437:2447  msg.sender */\n      caller\n        /* \"BaseERC20/BaseERC20.sol\":2428:2461  Transfer(msg.sender, _to, _value) */\n      0xffffffffffffffffffffffffffffffffffffffff\n      and\n      0xddf252ad1be2c89b69c2b068fc378daa952ba7f163c4a11628f55a4df523b3ef\n        /* \"BaseERC20/BaseERC20.sol\":2454:2460  _value */\n      dup8\n        /* \"BaseERC20/BaseERC20.sol\":2428:2461  Transfer(msg.sender, _to, _value) */\n      mload(0x40)\n      tag_104\n      swap2\n      swap1\n      tag_27\n      jump\t// in\n    tag_104:\n      mload(0x40)\n      dup1\n      swap2\n      sub\n      swap1\n      log3\n        /* \"BaseERC20/BaseERC20.sol\":2478:2482  true */\n      0x01\n        /* \"BaseERC20/BaseERC20.sol\":2471:2482  return true */\n      swap4\n      pop\n        /* \"BaseERC20/BaseERC20.sol\":1503:1504  _ */\n      pop\n      pop\n        /* \"BaseERC20/BaseERC20.sol\":2180:2489  function transfer(address _to, uint256 _value)... */\n      pop\n      swap3\n      swap2\n      pop\n      pop\n      jump\t// out\n        /* \"BaseERC20/BaseERC20.sol\":3729:4554  function transferWithCallback(... */\n    tag_52:\n        /* \"BaseERC20/BaseERC20.sol\":3942:3946  bool */\n      0x00\n        /* \"BaseERC20/BaseERC20.sol\":3878:3881  _to */\n      dup5\n        /* \"BaseERC20/BaseERC20.sol\":1455:1456  0 */\n      0x00\n        /* \"BaseERC20/BaseERC20.sol\":1438:1457  _addr != address(0) */\n      0xffffffffffffffffffffffffffffffffffffffff\n      and\n        /* \"BaseERC20/BaseERC20.sol\":1438:1443  _addr */\n      dup2\n        /* \"BaseERC20/BaseERC20.sol\":1438:1457  _addr != address(0) */\n      0xffffffffffffffffffffffffffffffffffffffff\n      and\n      sub\n        /* \"BaseERC20/BaseERC20.sol\":1430:1493  require(_addr != address(0), \"ERC20: transfer to zero address\") */\n      tag_106\n      jumpi\n      mload(0x40)\n      0x08c379a000000000000000000000000000000000000000000000000000000000\n      dup2\n      mstore\n      0x04\n      add\n      tag_107\n      swap1\n      tag_68\n      jump\t// in\n    tag_107:\n      mload(0x40)\n      dup1\n      swap2\n      sub\n      swap1\n      revert\n    tag_106:\n        /* \"BaseERC20/BaseERC20.sol\":3905:3915  msg.sender */\n      caller\n        /* \"BaseERC20/BaseERC20.sol\":3917:3923  _value */\n      dup6\n        /* \"BaseERC20/BaseERC20.sol\":1641:1647  _value */\n      dup1\n        /* \"BaseERC20/BaseERC20.sol\":1622:1630  balances */\n      0x04\n        /* \"BaseERC20/BaseERC20.sol\":1622:1637  balances[_addr] */\n      0x00\n        /* \"BaseERC20/BaseERC20.sol\":1631:1636  _addr */\n      dup5\n        /* \"BaseERC20/BaseERC20.sol\":1622:1637  balances[_addr] */\n      0xffffffffffffffffffffffffffffffffffffffff\n      and\n      0xffffffffffffffffffffffffffffffffffffffff\n      and\n      dup2\n      mstore\n      0x20\n      add\n      swap1\n      dup2\n      mstore\n      0x20\n      add\n      0x00\n      keccak256\n      sload\n        /* \"BaseERC20/BaseERC20.sol\":1622:1647  balances[_addr] >= _value */\n      lt\n      iszero\n        /* \"BaseERC20/BaseERC20.sol\":1601:1711  require(... */\n      tag_109\n      jumpi\n      mload(0x40)\n      0x08c379a000000000000000000000000000000000000000000000000000000000\n      dup2\n      mstore\n      0x04\n      add\n      tag_110\n      swap1\n      tag_77\n      jump\t// in\n    tag_110:\n      mload(0x40)\n      dup1\n      swap2\n      sub\n      swap1\n      revert\n    tag_109:\n        /* \"BaseERC20/BaseERC20.sol\":3982:3985  _to */\n      dup8\n        /* \"BaseERC20/BaseERC20.sol\":3970:3985  msg.sender!=_to */\n      0xffffffffffffffffffffffffffffffffffffffff\n      and\n        /* \"BaseERC20/BaseERC20.sol\":3970:3980  msg.sender */\n      caller\n        /* \"BaseERC20/BaseERC20.sol\":3970:3985  msg.sender!=_to */\n      0xffffffffffffffffffffffffffffffffffffffff\n      and\n      sub\n        /* \"BaseERC20/BaseERC20.sol\":3962:4024  require(msg.sender!=_to,\"ERC20: can not transfer to yourself\") */\n      tag_112\n      jumpi\n      mload(0x40)\n      0x08c379a000000000000000000000000000000000000000000000000000000000\n      dup2\n      mstore\n      0x04\n      add\n      tag_113\n      swap1\n      tag_114\n      jump\t// in\n    tag_113:\n      mload(0x40)\n      dup1\n      swap2\n      sub\n      swap1\n      revert\n    tag_112:\n        /* \"BaseERC20/BaseERC20.sol\":4058:4064  _value */\n      dup7\n        /* \"BaseERC20/BaseERC20.sol\":4034:4042  balances */\n      0x04\n        /* \"BaseERC20/BaseERC20.sol\":4034:4054  balances[msg.sender] */\n      0x00\n        /* \"BaseERC20/BaseERC20.sol\":4043:4053  msg.sender */\n      caller\n        /* \"BaseERC20/BaseERC20.sol\":4034:4054  balances[msg.sender] */\n      0xffffffffffffffffffffffffffffffffffffffff\n      and\n      0xffffffffffffffffffffffffffffffffffffffff\n      and\n      dup2\n      mstore\n      0x20\n      add\n      swap1\n      dup2\n      mstore\n      0x20\n      add\n      0x00\n      keccak256\n      0x00\n        /* \"BaseERC20/BaseERC20.sol\":4034:4064  balances[msg.sender] -= _value */\n      dup3\n      dup3\n      sload\n      tag_115\n      swap2\n      swap1\n      tag_84\n      jump\t// in\n    tag_115:\n      swap3\n      pop\n      pop\n      dup2\n      swap1\n      sstore\n      pop\n        /* \"BaseERC20/BaseERC20.sol\":4091:4097  _value */\n      dup7\n        /* \"BaseERC20/BaseERC20.sol\":4074:4082  balances */\n      0x04\n        /* \"BaseERC20/BaseERC20.sol\":4074:4087  balances[_to] */\n      0x00\n        /* \"BaseERC20/BaseERC20.sol\":4083:4086  _to */\n      dup11\n        /* \"BaseERC20/BaseERC20.sol\":4074:4087  balances[_to] */\n      0xffffffffffffffffffffffffffffffffffffffff\n      and\n      0xffffffffffffffffffffffffffffffffffffffff\n      and\n      dup2\n      mstore\n      0x20\n      add\n      swap1\n      dup2\n      mstore\n      0x20\n      add\n      0x00\n      keccak256\n      0x00\n        /* \"BaseERC20/BaseERC20.sol\":4074:4097  balances[_to] += _value */\n      dup3\n      dup3\n      sload\n      tag_116\n      swap2\n      swap1\n      tag_86\n      jump\t// in\n    tag_116:\n      swap3\n      pop\n      pop\n      dup2\n      swap1\n      sstore\n      pop\n        /* \"BaseERC20/BaseERC20.sol\":4168:4184  _isContract(_to) */\n      tag_117\n        /* \"BaseERC20/BaseERC20.sol\":4180:4183  _to */\n      dup9\n        /* \"BaseERC20/BaseERC20.sol\":4168:4179  _isContract */\n      tag_118\n        /* \"BaseERC20/BaseERC20.sol\":4168:4184  _isContract(_to) */\n      jump\t// in\n    tag_117:\n        /* \"BaseERC20/BaseERC20.sol\":4164:4527  if (_isContract(_to)) {... */\n      iszero\n      tag_119\n      jumpi\n        /* \"BaseERC20/BaseERC20.sol\":4201:4213  bool success */\n      0x00\n        /* \"BaseERC20/BaseERC20.sol\":4219:4222  _to */\n      dup9\n        /* \"BaseERC20/BaseERC20.sol\":4219:4227  _to.call */\n      0xffffffffffffffffffffffffffffffffffffffff\n      and\n        /* \"BaseERC20/BaseERC20.sol\":4351:4361  msg.sender */\n      caller\n        /* \"BaseERC20/BaseERC20.sol\":4383:4389  _value */\n      dup10\n        /* \"BaseERC20/BaseERC20.sol\":4411:4416  _data */\n      dup10\n      dup10\n        /* \"BaseERC20/BaseERC20.sol\":4245:4434  abi.encodeWithSignature(... */\n      add(0x24, mload(0x40))\n      tag_120\n      swap5\n      swap4\n      swap3\n      swap2\n      swap1\n      tag_121\n      jump\t// in\n    tag_120:\n      mload(0x40)\n      0x20\n      dup2\n      dup4\n      sub\n      sub\n      dup2\n      mstore\n      swap1\n      0x40\n      mstore\n      and(not(0xffffffffffffffffffffffffffffffffffffffffffffffffffffffff), 0xd031426300000000000000000000000000000000000000000000000000000000)\n      0x20\n      dup3\n      add\n      dup1\n      mload\n      0xffffffffffffffffffffffffffffffffffffffffffffffffffffffff\n      dup4\n      dup2\n      dup4\n      and\n      or\n      dup4\n      mstore\n      pop\n      pop\n      pop\n      pop\n        /* \"BaseERC20/BaseERC20.sol\":4219:4448  _to.call(... */\n      mload(0x40)\n      tag_122\n      swap2\n      swap1\n      tag_123\n      jump\t// in\n    tag_122:\n      0x00\n      mload(0x40)\n      dup1\n      dup4\n      sub\n      dup2\n      0x00\n      dup7\n      gas\n      call\n      swap2\n      pop\n      pop\n      returndatasize\n      dup1\n      0x00\n      dup2\n      eq\n      tag_126\n      jumpi\n      mload(0x40)\n      swap2\n      pop\n      and(add(returndatasize, 0x3f), not(0x1f))\n      dup3\n      add\n      0x40\n      mstore\n      returndatasize\n      dup3\n      mstore\n      returndatasize\n      0x00\n      0x20\n      dup5\n      add\n      returndatacopy\n      jump(tag_125)\n    tag_126:\n      0x60\n      swap2\n      pop\n    tag_125:\n      pop\n        /* \"BaseERC20/BaseERC20.sol\":4200:4448  (bool success, ) = _to.call(... */\n      pop\n      swap1\n      pop\n        /* \"BaseERC20/BaseERC20.sol\":4470:4477  success */\n      dup1\n        /* \"BaseERC20/BaseERC20.sol\":4462:4516  require(success, \"ERC20: call tokensReceived failed!\") */\n      tag_127\n      jumpi\n      mload(0x40)\n      0x08c379a000000000000000000000000000000000000000000000000000000000\n      dup2\n      mstore\n      0x04\n      add\n      tag_128\n      swap1\n      tag_129\n      jump\t// in\n    tag_128:\n      mload(0x40)\n      dup1\n      swap2\n      sub\n      swap1\n      revert\n    tag_127:\n        /* \"BaseERC20/BaseERC20.sol\":4186:4527  {... */\n      pop\n        /* \"BaseERC20/BaseERC20.sol\":4164:4527  if (_isContract(_to)) {... */\n    tag_119:\n        /* \"BaseERC20/BaseERC20.sol\":4543:4547  true */\n      0x01\n        /* \"BaseERC20/BaseERC20.sol\":4536:4547  return true */\n      swap4\n      pop\n        /* \"BaseERC20/BaseERC20.sol\":1503:1504  _ */\n      pop\n      pop\n        /* \"BaseERC20/BaseERC20.sol\":3729:4554  function transferWithCallback(... */\n      pop\n      swap5\n      swap4\n      pop\n      pop\n      pop\n      pop\n      jump\t// out\n        /* \"BaseERC20/BaseERC20.sol\":3330:3493  function allowance(address _owner, address _spender)... */\n    tag_57:\n        /* \"BaseERC20/BaseERC20.sol\":3428:3435  uint256 */\n      0x00\n        /* \"BaseERC20/BaseERC20.sol\":3458:3468  allowances */\n      0x05\n        /* \"BaseERC20/BaseERC20.sol\":3458:3476  allowances[_owner] */\n      0x00\n        /* \"BaseERC20/BaseERC20.sol\":3469:3475  _owner */\n      dup5\n        /* \"BaseERC20/BaseERC20.sol\":3458:3476  allowances[_owner] */\n      0xffffffffffffffffffffffffffffffffffffffff\n      and\n      0xffffffffffffffffffffffffffffffffffffffff\n      and\n      dup2\n      mstore\n      0x20\n      add\n      swap1\n      dup2\n      mstore\n      0x20\n      add\n      0x00\n      keccak256\n        /* \"BaseERC20/BaseERC20.sol\":3458:3486  allowances[_owner][_spender] */\n      0x00\n        /* \"BaseERC20/BaseERC20.sol\":3477:3485  _spender */\n      dup4\n        /* \"BaseERC20/BaseERC20.sol\":3458:3486  allowances[_owner][_spender] */\n      0xffffffffffffffffffffffffffffffffffffffff\n      and\n      0xffffffffffffffffffffffffffffffffffffffff\n      and\n      dup2\n      mstore\n      0x20\n      add\n      swap1\n      dup2\n      mstore\n      0x20\n      add\n      0x00\n      keccak256\n      sload\n        /* \"BaseERC20/BaseERC20.sol\":3451:3486  return allowances[_owner][_spender] */\n      swap1\n      pop\n        /* \"BaseERC20/BaseERC20.sol\":3330:3493  function allowance(address _owner, address _spender)... */\n      swap3\n      swap2\n      pop\n      pop\n      jump\t// out\n        /* \"BaseERC20/BaseERC20.sol\":4560:4751  function _isContract(address account) internal view returns (bool) {... */\n    tag_118:\n        /* \"BaseERC20/BaseERC20.sol\":4621:4625  bool */\n      0x00\n        /* \"BaseERC20/BaseERC20.sol\":4637:4649  uint256 size */\n      dup1\n        /* \"BaseERC20/BaseERC20.sol\":4702:4709  account */\n      dup3\n        /* \"BaseERC20/BaseERC20.sol\":4690:4710  extcodesize(account) */\n      extcodesize\n        /* \"BaseERC20/BaseERC20.sol\":4682:4710  size := extcodesize(account) */\n      swap1\n      pop\n        /* \"BaseERC20/BaseERC20.sol\":4743:4744  0 */\n      0x00\n        /* \"BaseERC20/BaseERC20.sol\":4736:4740  size */\n      dup2\n        /* \"BaseERC20/BaseERC20.sol\":4736:4744  size > 0 */\n      gt\n        /* \"BaseERC20/BaseERC20.sol\":4729:4744  return size > 0 */\n      swap2\n      pop\n      pop\n        /* \"BaseERC20/BaseERC20.sol\":4560:4751  function _isContract(address account) internal view returns (bool) {... */\n      swap2\n      swap1\n      pop\n      jump\t// out\n        /* \"#utility.yul\":7:106   */\n    tag_132:\n        /* \"#utility.yul\":59:65   */\n      0x00\n        /* \"#utility.yul\":93:98   */\n      dup2\n        /* \"#utility.yul\":87:99   */\n      mload\n        /* \"#utility.yul\":77:99   */\n      swap1\n      pop\n        /* \"#utility.yul\":7:106   */\n      swap2\n      swap1\n      pop\n      jump\t// out\n        /* \"#utility.yul\":112:281   */\n    tag_133:\n        /* \"#utility.yul\":196:207   */\n      0x00\n        /* \"#utility.yul\":230:236   */\n      dup3\n        /* \"#utility.yul\":225:228   */\n      dup3\n        /* \"#utility.yul\":218:237   */\n      mstore\n        /* \"#utility.yul\":270:274   */\n      0x20\n        /* \"#utility.yul\":265:268   */\n      dup3\n        /* \"#utility.yul\":261:275   */\n      add\n        /* \"#utility.yul\":246:275   */\n      swap1\n      pop\n        /* \"#utility.yul\":112:281   */\n      swap3\n      swap2\n      pop\n      pop\n      jump\t// out\n        /* \"#utility.yul\":287:426   */\n    tag_134:\n        /* \"#utility.yul\":376:382   */\n      dup3\n        /* \"#utility.yul\":371:374   */\n      dup2\n        /* \"#utility.yul\":366:369   */\n      dup4\n        /* \"#utility.yul\":360:383   */\n      mcopy\n        /* \"#utility.yul\":417:418   */\n      0x00\n        /* \"#utility.yul\":408:414   */\n      dup4\n        /* \"#utility.yul\":403:406   */\n      dup4\n        /* \"#utility.yul\":399:415   */\n      add\n        /* \"#utility.yul\":392:419   */\n      mstore\n        /* \"#utility.yul\":287:426   */\n      pop\n      pop\n      pop\n      jump\t// out\n        /* \"#utility.yul\":432:534   */\n    tag_135:\n        /* \"#utility.yul\":473:479   */\n      0x00\n        /* \"#utility.yul\":524:526   */\n      0x1f\n        /* \"#utility.yul\":520:527   */\n      not\n        /* \"#utility.yul\":515:517   */\n      0x1f\n        /* \"#utility.yul\":508:513   */\n      dup4\n        /* \"#utility.yul\":504:518   */\n      add\n        /* \"#utility.yul\":500:528   */\n      and\n        /* \"#utility.yul\":490:528   */\n      swap1\n      pop\n        /* \"#utility.yul\":432:534   */\n      swap2\n      swap1\n      pop\n      jump\t// out\n        /* \"#utility.yul\":540:917   */\n    tag_136:\n        /* \"#utility.yul\":628:631   */\n      0x00\n        /* \"#utility.yul\":656:695   */\n      tag_181\n        /* \"#utility.yul\":689:694   */\n      dup3\n        /* \"#utility.yul\":656:695   */\n      tag_132\n      jump\t// in\n    tag_181:\n        /* \"#utility.yul\":711:782   */\n      tag_182\n        /* \"#utility.yul\":775:781   */\n      dup2\n        /* \"#utility.yul\":770:773   */\n      dup6\n        /* \"#utility.yul\":711:782   */\n      tag_133\n      jump\t// in\n    tag_182:\n        /* \"#utility.yul\":704:782   */\n      swap4\n      pop\n        /* \"#utility.yul\":791:856   */\n      tag_183\n        /* \"#utility.yul\":849:855   */\n      dup2\n        /* \"#utility.yul\":844:847   */\n      dup6\n        /* \"#utility.yul\":837:841   */\n      0x20\n        /* \"#utility.yul\":830:835   */\n      dup7\n        /* \"#utility.yul\":826:842   */\n      add\n        /* \"#utility.yul\":791:856   */\n      tag_134\n      jump\t// in\n    tag_183:\n        /* \"#utility.yul\":881:910   */\n      tag_184\n        /* \"#utility.yul\":903:909   */\n      dup2\n        /* \"#utility.yul\":881:910   */\n      tag_135\n      jump\t// in\n    tag_184:\n        /* \"#utility.yul\":876:879   */\n      dup5\n        /* \"#utility.yul\":872:911   */\n      add\n        /* \"#utility.yul\":865:911   */\n      swap2\n      pop\n        /* \"#utility.yul\":632:917   */\n      pop\n        /* \"#utility.yul\":540:917   */\n      swap3\n      swap2\n      pop\n      pop\n      jump\t// out\n        /* \"#utility.yul\":923:1236   */\n    tag_17:\n        /* \"#utility.yul\":1036:1040   */\n      0x00\n        /* \"#utility.yul\":1074:1076   */\n      0x20\n        /* \"#utility.yul\":1063:1072   */\n      dup3\n        /* \"#utility.yul\":1059:1077   */\n      add\n        /* \"#utility.yul\":1051:1077   */\n      swap1\n      pop\n        /* \"#utility.yul\":1123:1132   */\n      dup2\n        /* \"#utility.yul\":1117:1121   */\n      dup2\n        /* \"#utility.yul\":1113:1133   */\n      sub\n        /* \"#utility.yul\":1109:1110   */\n      0x00\n        /* \"#utility.yul\":1098:1107   */\n      dup4\n        /* \"#utility.yul\":1094:1111   */\n      add\n        /* \"#utility.yul\":1087:1134   */\n      mstore\n        /* \"#utility.yul\":1151:1229   */\n      tag_186\n        /* \"#utility.yul\":1224:1228   */\n      dup2\n        /* \"#utility.yul\":1215:1221   */\n      dup5\n        /* \"#utility.yul\":1151:1229   */\n      tag_136\n      jump\t// in\n    tag_186:\n        /* \"#utility.yul\":1143:1229   */\n      swap1\n      pop\n        /* \"#utility.yul\":923:1236   */\n      swap3\n      swap2\n      pop\n      pop\n      jump\t// out\n        /* \"#utility.yul\":1323:1440   */\n    tag_138:\n        /* \"#utility.yul\":1432:1433   */\n      0x00\n        /* \"#utility.yul\":1429:1430   */\n      dup1\n        /* \"#utility.yul\":1422:1434   */\n      revert\n        /* \"#utility.yul\":1446:1563   */\n    tag_139:\n        /* \"#utility.yul\":1555:1556   */\n      0x00\n        /* \"#utility.yul\":1552:1553   */\n      dup1\n        /* \"#utility.yul\":1545:1557   */\n      revert\n        /* \"#utility.yul\":1569:1695   */\n    tag_140:\n        /* \"#utility.yul\":1606:1613   */\n      0x00\n        /* \"#utility.yul\":1646:1688   */\n      0xffffffffffffffffffffffffffffffffffffffff\n        /* \"#utility.yul\":1639:1644   */\n      dup3\n        /* \"#utility.yul\":1635:1689   */\n      and\n        /* \"#utility.yul\":1624:1689   */\n      swap1\n      pop\n        /* \"#utility.yul\":1569:1695   */\n      swap2\n      swap1\n      pop\n      jump\t// out\n        /* \"#utility.yul\":1701:1797   */\n    tag_141:\n        /* \"#utility.yul\":1738:1745   */\n      0x00\n        /* \"#utility.yul\":1767:1791   */\n      tag_192\n        /* \"#utility.yul\":1785:1790   */\n      dup3\n        /* \"#utility.yul\":1767:1791   */\n      tag_140\n      jump\t// in\n    tag_192:\n        /* \"#utility.yul\":1756:1791   */\n      swap1\n      pop\n        /* \"#utility.yul\":1701:1797   */\n      swap2\n      swap1\n      pop\n      jump\t// out\n        /* \"#utility.yul\":1803:1925   */\n    tag_142:\n        /* \"#utility.yul\":1876:1900   */\n      tag_194\n        /* \"#utility.yul\":1894:1899   */\n      dup2\n        /* \"#utility.yul\":1876:1900   */\n      tag_141\n      jump\t// in\n    tag_194:\n        /* \"#utility.yul\":1869:1874   */\n      dup2\n        /* \"#utility.yul\":1866:1901   */\n      eq\n        /* \"#utility.yul\":1856:1919   */\n      tag_195\n      jumpi\n        /* \"#utility.yul\":1915:1916   */\n      0x00\n        /* \"#utility.yul\":1912:1913   */\n      dup1\n        /* \"#utility.yul\":1905:1917   */\n      revert\n        /* \"#utility.yul\":1856:1919   */\n    tag_195:\n        /* \"#utility.yul\":1803:1925   */\n      pop\n      jump\t// out\n        /* \"#utility.yul\":1931:2070   */\n    tag_143:\n        /* \"#utility.yul\":1977:1982   */\n      0x00\n        /* \"#utility.yul\":2015:2021   */\n      dup2\n        /* \"#utility.yul\":2002:2022   */\n      calldataload\n        /* \"#utility.yul\":1993:2022   */\n      swap1\n      pop\n        /* \"#utility.yul\":2031:2064   */\n      tag_197\n        /* \"#utility.yul\":2058:2063   */\n      dup2\n        /* \"#utility.yul\":2031:2064   */\n      tag_142\n      jump\t// in\n    tag_197:\n        /* \"#utility.yul\":1931:2070   */\n      swap3\n      swap2\n      pop\n      pop\n      jump\t// out\n        /* \"#utility.yul\":2076:2153   */\n    tag_144:\n        /* \"#utility.yul\":2113:2120   */\n      0x00\n        /* \"#utility.yul\":2142:2147   */\n      dup2\n        /* \"#utility.yul\":2131:2147   */\n      swap1\n      pop\n        /* \"#utility.yul\":2076:2153   */\n      swap2\n      swap1\n      pop\n      jump\t// out\n        /* \"#utility.yul\":2159:2281   */\n    tag_145:\n        /* \"#utility.yul\":2232:2256   */\n      tag_200\n        /* \"#utility.yul\":2250:2255   */\n      dup2\n        /* \"#utility.yul\":2232:2256   */\n      tag_144\n      jump\t// in\n    tag_200:\n        /* \"#utility.yul\":2225:2230   */\n      dup2\n        /* \"#utility.yul\":2222:2257   */\n      eq\n        /* \"#utility.yul\":2212:2275   */\n      tag_201\n      jumpi\n        /* \"#utility.yul\":2271:2272   */\n      0x00\n        /* \"#utility.yul\":2268:2269   */\n      dup1\n        /* \"#utility.yul\":2261:2273   */\n      revert\n        /* \"#utility.yul\":2212:2275   */\n    tag_201:\n        /* \"#utility.yul\":2159:2281   */\n      pop\n      jump\t// out\n        /* \"#utility.yul\":2287:2426   */\n    tag_146:\n        /* \"#utility.yul\":2333:2338   */\n      0x00\n        /* \"#utility.yul\":2371:2377   */\n      dup2\n        /* \"#utility.yul\":2358:2378   */\n      calldataload\n        /* \"#utility.yul\":2349:2378   */\n      swap1\n      pop\n        /* \"#utility.yul\":2387:2420   */\n      tag_203\n        /* \"#utility.yul\":2414:2419   */\n      dup2\n        /* \"#utility.yul\":2387:2420   */\n      tag_145\n      jump\t// in\n    tag_203:\n        /* \"#utility.yul\":2287:2426   */\n      swap3\n      swap2\n      pop\n      pop\n      jump\t// out\n        /* \"#utility.yul\":2432:2906   */\n    tag_20:\n        /* \"#utility.yul\":2500:2506   */\n      0x00\n        /* \"#utility.yul\":2508:2514   */\n      dup1\n        /* \"#utility.yul\":2557:2559   */\n      0x40\n        /* \"#utility.yul\":2545:2554   */\n      dup4\n        /* \"#utility.yul\":2536:2543   */\n      dup6\n        /* \"#utility.yul\":2532:2555   */\n      sub\n        /* \"#utility.yul\":2528:2560   */\n      slt\n        /* \"#utility.yul\":2525:2644   */\n      iszero\n      tag_205\n      jumpi\n        /* \"#utility.yul\":2563:2642   */\n      tag_206\n      tag_138\n      jump\t// in\n    tag_206:\n        /* \"#utility.yul\":2525:2644   */\n    tag_205:\n        /* \"#utility.yul\":2683:2684   */\n      0x00\n        /* \"#utility.yul\":2708:2761   */\n      tag_207\n        /* \"#utility.yul\":2753:2760   */\n      dup6\n        /* \"#utility.yul\":2744:2750   */\n      dup3\n        /* \"#utility.yul\":2733:2742   */\n      dup7\n        /* \"#utility.yul\":2729:2751   */\n      add\n        /* \"#utility.yul\":2708:2761   */\n      tag_143\n      jump\t// in\n    tag_207:\n        /* \"#utility.yul\":2698:2761   */\n      swap3\n      pop\n        /* \"#utility.yul\":2654:2771   */\n      pop\n        /* \"#utility.yul\":2810:2812   */\n      0x20\n        /* \"#utility.yul\":2836:2889   */\n      tag_208\n        /* \"#utility.yul\":2881:2888   */\n      dup6\n        /* \"#utility.yul\":2872:2878   */\n      dup3\n        /* \"#utility.yul\":2861:2870   */\n      dup7\n        /* \"#utility.yul\":2857:2879   */\n      add\n        /* \"#utility.yul\":2836:2889   */\n      tag_146\n      jump\t// in\n    tag_208:\n        /* \"#utility.yul\":2826:2889   */\n      swap2\n      pop\n        /* \"#utility.yul\":2781:2899   */\n      pop\n        /* \"#utility.yul\":2432:2906   */\n      swap3\n      pop\n      swap3\n      swap1\n      pop\n      jump\t// out\n        /* \"#utility.yul\":2912:3002   */\n    tag_147:\n        /* \"#utility.yul\":2946:2953   */\n      0x00\n        /* \"#utility.yul\":2989:2994   */\n      dup2\n        /* \"#utility.yul\":2982:2995   */\n      iszero\n        /* \"#utility.yul\":2975:2996   */\n      iszero\n        /* \"#utility.yul\":2964:2996   */\n      swap1\n      pop\n        /* \"#utility.yul\":2912:3002   */\n      swap2\n      swap1\n      pop\n      jump\t// out\n        /* \"#utility.yul\":3008:3117   */\n    tag_148:\n        /* \"#utility.yul\":3089:3110   */\n      tag_211\n        /* \"#utility.yul\":3104:3109   */\n      dup2\n        /* \"#utility.yul\":3089:3110   */\n      tag_147\n      jump\t// in\n    tag_211:\n        /* \"#utility.yul\":3084:3087   */\n      dup3\n        /* \"#utility.yul\":3077:3111   */\n      mstore\n        /* \"#utility.yul\":3008:3117   */\n      pop\n      pop\n      jump\t// out\n        /* \"#utility.yul\":3123:3333   */\n    tag_23:\n        /* \"#utility.yul\":3210:3214   */\n      0x00\n        /* \"#utility.yul\":3248:3250   */\n      0x20\n        /* \"#utility.yul\":3237:3246   */\n      dup3\n        /* \"#utility.yul\":3233:3251   */\n      add\n        /* \"#utility.yul\":3225:3251   */\n      swap1\n      pop\n        /* \"#utility.yul\":3261:3326   */\n      tag_213\n        /* \"#utility.yul\":3323:3324   */\n      0x00\n        /* \"#utility.yul\":3312:3321   */\n      dup4\n        /* \"#utility.yul\":3308:3325   */\n      add\n        /* \"#utility.yul\":3299:3305   */\n      dup5\n        /* \"#utility.yul\":3261:3326   */\n      tag_148\n      jump\t// in\n    tag_213:\n        /* \"#utility.yul\":3123:3333   */\n      swap3\n      swap2\n      pop\n      pop\n      jump\t// out\n        /* \"#utility.yul\":3339:3457   */\n    tag_149:\n        /* \"#utility.yul\":3426:3450   */\n      tag_215\n        /* \"#utility.yul\":3444:3449   */\n      dup2\n        /* \"#utility.yul\":3426:3450   */\n      tag_144\n      jump\t// in\n    tag_215:\n        /* \"#utility.yul\":3421:3424   */\n      dup3\n        /* \"#utility.yul\":3414:3451   */\n      mstore\n        /* \"#utility.yul\":3339:3457   */\n      pop\n      pop\n      jump\t// out\n        /* \"#utility.yul\":3463:3685   */\n    tag_27:\n        /* \"#utility.yul\":3556:3560   */\n      0x00\n        /* \"#utility.yul\":3594:3596   */\n      0x20\n        /* \"#utility.yul\":3583:3592   */\n      dup3\n        /* \"#utility.yul\":3579:3597   */\n      add\n        /* \"#utility.yul\":3571:3597   */\n      swap1\n      pop\n        /* \"#utility.yul\":3607:3678   */\n      tag_217\n        /* \"#utility.yul\":3675:3676   */\n      0x00\n        /* \"#utility.yul\":3664:3673   */\n      dup4\n        /* \"#utility.yul\":3660:3677   */\n      add\n        /* \"#utility.yul\":3651:3657   */\n      dup5\n        /* \"#utility.yul\":3607:3678   */\n      tag_149\n      jump\t// in\n    tag_217:\n        /* \"#utility.yul\":3463:3685   */\n      swap3\n      swap2\n      pop\n      pop\n      jump\t// out\n        /* \"#utility.yul\":3691:4310   */\n    tag_30:\n        /* \"#utility.yul\":3768:3774   */\n      0x00\n        /* \"#utility.yul\":3776:3782   */\n      dup1\n        /* \"#utility.yul\":3784:3790   */\n      0x00\n        /* \"#utility.yul\":3833:3835   */\n      0x60\n        /* \"#utility.yul\":3821:3830   */\n      dup5\n        /* \"#utility.yul\":3812:3819   */\n      dup7\n        /* \"#utility.yul\":3808:3831   */\n      sub\n        /* \"#utility.yul\":3804:3836   */\n      slt\n        /* \"#utility.yul\":3801:3920   */\n      iszero\n      tag_219\n      jumpi\n        /* \"#utility.yul\":3839:3918   */\n      tag_220\n      tag_138\n      jump\t// in\n    tag_220:\n        /* \"#utility.yul\":3801:3920   */\n    tag_219:\n        /* \"#utility.yul\":3959:3960   */\n      0x00\n        /* \"#utility.yul\":3984:4037   */\n      tag_221\n        /* \"#utility.yul\":4029:4036   */\n      dup7\n        /* \"#utility.yul\":4020:4026   */\n      dup3\n        /* \"#utility.yul\":4009:4018   */\n      dup8\n        /* \"#utility.yul\":4005:4027   */\n      add\n        /* \"#utility.yul\":3984:4037   */\n      tag_143\n      jump\t// in\n    tag_221:\n        /* \"#utility.yul\":3974:4037   */\n      swap4\n      pop\n        /* \"#utility.yul\":3930:4047   */\n      pop\n        /* \"#utility.yul\":4086:4088   */\n      0x20\n        /* \"#utility.yul\":4112:4165   */\n      tag_222\n        /* \"#utility.yul\":4157:4164   */\n      dup7\n        /* \"#utility.yul\":4148:4154   */\n      dup3\n        /* \"#utility.yul\":4137:4146   */\n      dup8\n        /* \"#utility.yul\":4133:4155   */\n      add\n        /* \"#utility.yul\":4112:4165   */\n      tag_143\n      jump\t// in\n    tag_222:\n        /* \"#utility.yul\":4102:4165   */\n      swap3\n      pop\n        /* \"#utility.yul\":4057:4175   */\n      pop\n        /* \"#utility.yul\":4214:4216   */\n      0x40\n        /* \"#utility.yul\":4240:4293   */\n      tag_223\n        /* \"#utility.yul\":4285:4292   */\n      dup7\n        /* \"#utility.yul\":4276:4282   */\n      dup3\n        /* \"#utility.yul\":4265:4274   */\n      dup8\n        /* \"#utility.yul\":4261:4283   */\n      add\n        /* \"#utility.yul\":4240:4293   */\n      tag_146\n      jump\t// in\n    tag_223:\n        /* \"#utility.yul\":4230:4293   */\n      swap2\n      pop\n        /* \"#utility.yul\":4185:4303   */\n      pop\n        /* \"#utility.yul\":3691:4310   */\n      swap3\n      pop\n      swap3\n      pop\n      swap3\n      jump\t// out\n        /* \"#utility.yul\":4316:4402   */\n    tag_150:\n        /* \"#utility.yul\":4351:4358   */\n      0x00\n        /* \"#utility.yul\":4391:4395   */\n      0xff\n        /* \"#utility.yul\":4384:4389   */\n      dup3\n        /* \"#utility.yul\":4380:4396   */\n      and\n        /* \"#utility.yul\":4369:4396   */\n      swap1\n      pop\n        /* \"#utility.yul\":4316:4402   */\n      swap2\n      swap1\n      pop\n      jump\t// out\n        /* \"#utility.yul\":4408:4520   */\n    tag_151:\n        /* \"#utility.yul\":4491:4513   */\n      tag_226\n        /* \"#utility.yul\":4507:4512   */\n      dup2\n        /* \"#utility.yul\":4491:4513   */\n      tag_150\n      jump\t// in\n    tag_226:\n        /* \"#utility.yul\":4486:4489   */\n      dup3\n        /* \"#utility.yul\":4479:4514   */\n      mstore\n        /* \"#utility.yul\":4408:4520   */\n      pop\n      pop\n      jump\t// out\n        /* \"#utility.yul\":4526:4740   */\n    tag_36:\n        /* \"#utility.yul\":4615:4619   */\n      0x00\n        /* \"#utility.yul\":4653:4655   */\n      0x20\n        /* \"#utility.yul\":4642:4651   */\n      dup3\n        /* \"#utility.yul\":4638:4656   */\n      add\n        /* \"#utility.yul\":4630:4656   */\n      swap1\n      pop\n        /* \"#utility.yul\":4666:4733   */\n      tag_228\n        /* \"#utility.yul\":4730:4731   */\n      0x00\n        /* \"#utility.yul\":4719:4728   */\n      dup4\n        /* \"#utility.yul\":4715:4732   */\n      add\n        /* \"#utility.yul\":4706:4712   */\n      dup5\n        /* \"#utility.yul\":4666:4733   */\n      tag_151\n      jump\t// in\n    tag_228:\n        /* \"#utility.yul\":4526:4740   */\n      swap3\n      swap2\n      pop\n      pop\n      jump\t// out\n        /* \"#utility.yul\":4746:5075   */\n    tag_39:\n        /* \"#utility.yul\":4805:4811   */\n      0x00\n        /* \"#utility.yul\":4854:4856   */\n      0x20\n        /* \"#utility.yul\":4842:4851   */\n      dup3\n        /* \"#utility.yul\":4833:4840   */\n      dup5\n        /* \"#utility.yul\":4829:4852   */\n      sub\n        /* \"#utility.yul\":4825:4857   */\n      slt\n        /* \"#utility.yul\":4822:4941   */\n      iszero\n      tag_230\n      jumpi\n        /* \"#utility.yul\":4860:4939   */\n      tag_231\n      tag_138\n      jump\t// in\n    tag_231:\n        /* \"#utility.yul\":4822:4941   */\n    tag_230:\n        /* \"#utility.yul\":4980:4981   */\n      0x00\n        /* \"#utility.yul\":5005:5058   */\n      tag_232\n        /* \"#utility.yul\":5050:5057   */\n      dup5\n        /* \"#utility.yul\":5041:5047   */\n      dup3\n        /* \"#utility.yul\":5030:5039   */\n      dup6\n        /* \"#utility.yul\":5026:5048   */\n      add\n        /* \"#utility.yul\":5005:5058   */\n      tag_143\n      jump\t// in\n    tag_232:\n        /* \"#utility.yul\":4995:5058   */\n      swap2\n      pop\n        /* \"#utility.yul\":4951:5068   */\n      pop\n        /* \"#utility.yul\":4746:5075   */\n      swap3\n      swap2\n      pop\n      pop\n      jump\t// out\n        /* \"#utility.yul\":5081:5198   */\n    tag_152:\n        /* \"#utility.yul\":5190:5191   */\n      0x00\n        /* \"#utility.yul\":5187:5188   */\n      dup1\n        /* \"#utility.yul\":5180:5192   */\n      revert\n        /* \"#utility.yul\":5204:5321   */\n    tag_153:\n        /* \"#utility.yul\":5313:5314   */\n      0x00\n        /* \"#utility.yul\":5310:5311   */\n      dup1\n        /* \"#utility.yul\":5303:5315   */\n      revert\n        /* \"#utility.yul\":5327:5444   */\n    tag_154:\n        /* \"#utility.yul\":5436:5437   */\n      0x00\n        /* \"#utility.yul\":5433:5434   */\n      dup1\n        /* \"#utility.yul\":5426:5438   */\n      revert\n        /* \"#utility.yul\":5463:6015   */\n    tag_155:\n        /* \"#utility.yul\":5520:5528   */\n      0x00\n        /* \"#utility.yul\":5530:5536   */\n      dup1\n        /* \"#utility.yul\":5580:5583   */\n      dup4\n        /* \"#utility.yul\":5573:5577   */\n      0x1f\n        /* \"#utility.yul\":5565:5571   */\n      dup5\n        /* \"#utility.yul\":5561:5578   */\n      add\n        /* \"#utility.yul\":5557:5584   */\n      slt\n        /* \"#utility.yul\":5547:5669   */\n      tag_237\n      jumpi\n        /* \"#utility.yul\":5588:5667   */\n      tag_238\n      tag_152\n      jump\t// in\n    tag_238:\n        /* \"#utility.yul\":5547:5669   */\n    tag_237:\n        /* \"#utility.yul\":5701:5707   */\n      dup3\n        /* \"#utility.yul\":5688:5708   */\n      calldataload\n        /* \"#utility.yul\":5678:5708   */\n      swap1\n      pop\n        /* \"#utility.yul\":5731:5749   */\n      0xffffffffffffffff\n        /* \"#utility.yul\":5723:5729   */\n      dup2\n        /* \"#utility.yul\":5720:5750   */\n      gt\n        /* \"#utility.yul\":5717:5834   */\n      iszero\n      tag_239\n      jumpi\n        /* \"#utility.yul\":5753:5832   */\n      tag_240\n      tag_153\n      jump\t// in\n    tag_240:\n        /* \"#utility.yul\":5717:5834   */\n    tag_239:\n        /* \"#utility.yul\":5867:5871   */\n      0x20\n        /* \"#utility.yul\":5859:5865   */\n      dup4\n        /* \"#utility.yul\":5855:5872   */\n      add\n        /* \"#utility.yul\":5843:5872   */\n      swap2\n      pop\n        /* \"#utility.yul\":5921:5924   */\n      dup4\n        /* \"#utility.yul\":5913:5917   */\n      0x01\n        /* \"#utility.yul\":5905:5911   */\n      dup3\n        /* \"#utility.yul\":5901:5918   */\n      mul\n        /* \"#utility.yul\":5891:5899   */\n      dup4\n        /* \"#utility.yul\":5887:5919   */\n      add\n        /* \"#utility.yul\":5884:5925   */\n      gt\n        /* \"#utility.yul\":5881:6009   */\n      iszero\n      tag_241\n      jumpi\n        /* \"#utility.yul\":5928:6007   */\n      tag_242\n      tag_154\n      jump\t// in\n    tag_242:\n        /* \"#utility.yul\":5881:6009   */\n    tag_241:\n        /* \"#utility.yul\":5463:6015   */\n      swap3\n      pop\n      swap3\n      swap1\n      pop\n      jump\t// out\n        /* \"#utility.yul\":6021:6838   */\n    tag_51:\n        /* \"#utility.yul\":6109:6115   */\n      0x00\n        /* \"#utility.yul\":6117:6123   */\n      dup1\n        /* \"#utility.yul\":6125:6131   */\n      0x00\n        /* \"#utility.yul\":6133:6139   */\n      dup1\n        /* \"#utility.yul\":6182:6184   */\n      0x60\n        /* \"#utility.yul\":6170:6179   */\n      dup6\n        /* \"#utility.yul\":6161:6168   */\n      dup8\n        /* \"#utility.yul\":6157:6180   */\n      sub\n        /* \"#utility.yul\":6153:6185   */\n      slt\n        /* \"#utility.yul\":6150:6269   */\n      iszero\n      tag_244\n      jumpi\n        /* \"#utility.yul\":6188:6267   */\n      tag_245\n      tag_138\n      jump\t// in\n    tag_245:\n        /* \"#utility.yul\":6150:6269   */\n    tag_244:\n        /* \"#utility.yul\":6308:6309   */\n      0x00\n        /* \"#utility.yul\":6333:6386   */\n      tag_246\n        /* \"#utility.yul\":6378:6385   */\n      dup8\n        /* \"#utility.yul\":6369:6375   */\n      dup3\n        /* \"#utility.yul\":6358:6367   */\n      dup9\n        /* \"#utility.yul\":6354:6376   */\n      add\n        /* \"#utility.yul\":6333:6386   */\n      tag_143\n      jump\t// in\n    tag_246:\n        /* \"#utility.yul\":6323:6386   */\n      swap5\n      pop\n        /* \"#utility.yul\":6279:6396   */\n      pop\n        /* \"#utility.yul\":6435:6437   */\n      0x20\n        /* \"#utility.yul\":6461:6514   */\n      tag_247\n        /* \"#utility.yul\":6506:6513   */\n      dup8\n        /* \"#utility.yul\":6497:6503   */\n      dup3\n        /* \"#utility.yul\":6486:6495   */\n      dup9\n        /* \"#utility.yul\":6482:6504   */\n      add\n        /* \"#utility.yul\":6461:6514   */\n      tag_146\n      jump\t// in\n    tag_247:\n        /* \"#utility.yul\":6451:6514   */\n      swap4\n      pop\n        /* \"#utility.yul\":6406:6524   */\n      pop\n        /* \"#utility.yul\":6591:6593   */\n      0x40\n        /* \"#utility.yul\":6580:6589   */\n      dup6\n        /* \"#utility.yul\":6576:6594   */\n      add\n        /* \"#utility.yul\":6563:6595   */\n      calldataload\n        /* \"#utility.yul\":6622:6640   */\n      0xffffffffffffffff\n        /* \"#utility.yul\":6614:6620   */\n      dup2\n        /* \"#utility.yul\":6611:6641   */\n      gt\n        /* \"#utility.yul\":6608:6725   */\n      iszero\n      tag_248\n      jumpi\n        /* \"#utility.yul\":6644:6723   */\n      tag_249\n      tag_139\n      jump\t// in\n    tag_249:\n        /* \"#utility.yul\":6608:6725   */\n    tag_248:\n        /* \"#utility.yul\":6757:6821   */\n      tag_250\n        /* \"#utility.yul\":6813:6820   */\n      dup8\n        /* \"#utility.yul\":6804:6810   */\n      dup3\n        /* \"#utility.yul\":6793:6802   */\n      dup9\n        /* \"#utility.yul\":6789:6811   */\n      add\n        /* \"#utility.yul\":6757:6821   */\n      tag_155\n      jump\t// in\n    tag_250:\n        /* \"#utility.yul\":6739:6821   */\n      swap3\n      pop\n      swap3\n      pop\n        /* \"#utility.yul\":6534:6831   */\n      pop\n        /* \"#utility.yul\":6021:6838   */\n      swap3\n      swap6\n      swap2\n      swap5\n      pop\n      swap3\n      pop\n      jump\t// out\n        /* \"#utility.yul\":6844:7318   */\n    tag_56:\n        /* \"#utility.yul\":6912:6918   */\n      0x00\n        /* \"#utility.yul\":6920:6926   */\n      dup1\n        /* \"#utility.yul\":6969:6971   */\n      0x40\n        /* \"#utility.yul\":6957:6966   */\n      dup4\n        /* \"#utility.yul\":6948:6955   */\n      dup6\n        /* \"#utility.yul\":6944:6967   */\n      sub\n        /* \"#utility.yul\":6940:6972   */\n      slt\n        /* \"#utility.yul\":6937:7056   */\n      iszero\n      tag_252\n      jumpi\n        /* \"#utility.yul\":6975:7054   */\n      tag_253\n      tag_138\n      jump\t// in\n    tag_253:\n        /* \"#utility.yul\":6937:7056   */\n    tag_252:\n        /* \"#utility.yul\":7095:7096   */\n      0x00\n        /* \"#utility.yul\":7120:7173   */\n      tag_254\n        /* \"#utility.yul\":7165:7172   */\n      dup6\n        /* \"#utility.yul\":7156:7162   */\n      dup3\n        /* \"#utility.yul\":7145:7154   */\n      dup7\n        /* \"#utility.yul\":7141:7163   */\n      add\n        /* \"#utility.yul\":7120:7173   */\n      tag_143\n      jump\t// in\n    tag_254:\n        /* \"#utility.yul\":7110:7173   */\n      swap3\n      pop\n        /* \"#utility.yul\":7066:7183   */\n      pop\n        /* \"#utility.yul\":7222:7224   */\n      0x20\n        /* \"#utility.yul\":7248:7301   */\n      tag_255\n        /* \"#utility.yul\":7293:7300   */\n      dup6\n        /* \"#utility.yul\":7284:7290   */\n      dup3\n        /* \"#utility.yul\":7273:7282   */\n      dup7\n        /* \"#utility.yul\":7269:7291   */\n      add\n        /* \"#utility.yul\":7248:7301   */\n      tag_143\n      jump\t// in\n    tag_255:\n        /* \"#utility.yul\":7238:7301   */\n      swap2\n      pop\n        /* \"#utility.yul\":7193:7311   */\n      pop\n        /* \"#utility.yul\":6844:7318   */\n      swap3\n      pop\n      swap3\n      swap1\n      pop\n      jump\t// out\n        /* \"#utility.yul\":7324:7504   */\n    tag_156:\n        /* \"#utility.yul\":7372:7449   */\n      0x4e487b7100000000000000000000000000000000000000000000000000000000\n        /* \"#utility.yul\":7369:7370   */\n      0x00\n        /* \"#utility.yul\":7362:7450   */\n      mstore\n        /* \"#utility.yul\":7469:7473   */\n      0x22\n        /* \"#utility.yul\":7466:7467   */\n      0x04\n        /* \"#utility.yul\":7459:7474   */\n      mstore\n        /* \"#utility.yul\":7493:7497   */\n      0x24\n        /* \"#utility.yul\":7490:7491   */\n      0x00\n        /* \"#utility.yul\":7483:7498   */\n      revert\n        /* \"#utility.yul\":7510:7830   */\n    tag_60:\n        /* \"#utility.yul\":7554:7560   */\n      0x00\n        /* \"#utility.yul\":7591:7592   */\n      0x02\n        /* \"#utility.yul\":7585:7589   */\n      dup3\n        /* \"#utility.yul\":7581:7593   */\n      div\n        /* \"#utility.yul\":7571:7593   */\n      swap1\n      pop\n        /* \"#utility.yul\":7638:7639   */\n      0x01\n        /* \"#utility.yul\":7632:7636   */\n      dup3\n        /* \"#utility.yul\":7628:7640   */\n      and\n        /* \"#utility.yul\":7659:7677   */\n      dup1\n        /* \"#utility.yul\":7649:7730   */\n      tag_258\n      jumpi\n        /* \"#utility.yul\":7715:7719   */\n      0x7f\n        /* \"#utility.yul\":7707:7713   */\n      dup3\n        /* \"#utility.yul\":7703:7720   */\n      and\n        /* \"#utility.yul\":7693:7720   */\n      swap2\n      pop\n        /* \"#utility.yul\":7649:7730   */\n    tag_258:\n        /* \"#utility.yul\":7777:7779   */\n      0x20\n        /* \"#utility.yul\":7769:7775   */\n      dup3\n        /* \"#utility.yul\":7766:7780   */\n      lt\n        /* \"#utility.yul\":7746:7764   */\n      dup2\n        /* \"#utility.yul\":7743:7781   */\n      sub\n        /* \"#utility.yul\":7740:7824   */\n      tag_259\n      jumpi\n        /* \"#utility.yul\":7796:7814   */\n      tag_260\n      tag_156\n      jump\t// in\n    tag_260:\n        /* \"#utility.yul\":7740:7824   */\n    tag_259:\n        /* \"#utility.yul\":7561:7830   */\n      pop\n        /* \"#utility.yul\":7510:7830   */\n      swap2\n      swap1\n      pop\n      jump\t// out\n        /* \"#utility.yul\":7836:8017   */\n    tag_157:\n        /* \"#utility.yul\":7976:8009   */\n      0x45524332303a207472616e7366657220746f207a65726f206164647265737300\n        /* \"#utility.yul\":7972:7973   */\n      0x00\n        /* \"#utility.yul\":7964:7970   */\n      dup3\n        /* \"#utility.yul\":7960:7974   */\n      add\n        /* \"#utility.yul\":7953:8010   */\n      mstore\n        /* \"#utility.yul\":7836:8017   */\n      pop\n      jump\t// out\n        /* \"#utility.yul\":8023:8389   */\n    tag_158:\n        /* \"#utility.yul\":8165:8168   */\n      0x00\n        /* \"#utility.yul\":8186:8253   */\n      tag_263\n        /* \"#utility.yul\":8250:8252   */\n      0x1f\n        /* \"#utility.yul\":8245:8248   */\n      dup4\n        /* \"#utility.yul\":8186:8253   */\n      tag_133\n      jump\t// in\n    tag_263:\n        /* \"#utility.yul\":8179:8253   */\n      swap2\n      pop\n        /* \"#utility.yul\":8262:8355   */\n      tag_264\n        /* \"#utility.yul\":8351:8354   */\n      dup3\n        /* \"#utility.yul\":8262:8355   */\n      tag_157\n      jump\t// in\n    tag_264:\n        /* \"#utility.yul\":8380:8382   */\n      0x20\n        /* \"#utility.yul\":8375:8378   */\n      dup3\n        /* \"#utility.yul\":8371:8383   */\n      add\n        /* \"#utility.yul\":8364:8383   */\n      swap1\n      pop\n        /* \"#utility.yul\":8023:8389   */\n      swap2\n      swap1\n      pop\n      jump\t// out\n        /* \"#utility.yul\":8395:8814   */\n    tag_68:\n        /* \"#utility.yul\":8561:8565   */\n      0x00\n        /* \"#utility.yul\":8599:8601   */\n      0x20\n        /* \"#utility.yul\":8588:8597   */\n      dup3\n        /* \"#utility.yul\":8584:8602   */\n      add\n        /* \"#utility.yul\":8576:8602   */\n      swap1\n      pop\n        /* \"#utility.yul\":8648:8657   */\n      dup2\n        /* \"#utility.yul\":8642:8646   */\n      dup2\n        /* \"#utility.yul\":8638:8658   */\n      sub\n        /* \"#utility.yul\":8634:8635   */\n      0x00\n        /* \"#utility.yul\":8623:8632   */\n      dup4\n        /* \"#utility.yul\":8619:8636   */\n      add\n        /* \"#utility.yul\":8612:8659   */\n      mstore\n        /* \"#utility.yul\":8676:8807   */\n      tag_266\n        /* \"#utility.yul\":8802:8806   */\n      dup2\n        /* \"#utility.yul\":8676:8807   */\n      tag_158\n      jump\t// in\n    tag_266:\n        /* \"#utility.yul\":8668:8807   */\n      swap1\n      pop\n        /* \"#utility.yul\":8395:8814   */\n      swap2\n      swap1\n      pop\n      jump\t// out\n        /* \"#utility.yul\":8820:9045   */\n    tag_159:\n        /* \"#utility.yul\":8960:8994   */\n      0x45524332303a207472616e7366657220616d6f756e7420657863656564732062\n        /* \"#utility.yul\":8956:8957   */\n      0x00\n        /* \"#utility.yul\":8948:8954   */\n      dup3\n        /* \"#utility.yul\":8944:8958   */\n      add\n        /* \"#utility.yul\":8937:8995   */\n      mstore\n        /* \"#utility.yul\":9029:9037   */\n      0x616c616e63650000000000000000000000000000000000000000000000000000\n        /* \"#utility.yul\":9024:9026   */\n      0x20\n        /* \"#utility.yul\":9016:9022   */\n      dup3\n        /* \"#utility.yul\":9012:9027   */\n      add\n        /* \"#utility.yul\":9005:9038   */\n      mstore\n        /* \"#utility.yul\":8820:9045   */\n      pop\n      jump\t// out\n        /* \"#utility.yul\":9051:9417   */\n    tag_160:\n        /* \"#utility.yul\":9193:9196   */\n      0x00\n        /* \"#utility.yul\":9214:9281   */\n      tag_269\n        /* \"#utility.yul\":9278:9280   */\n      0x26\n        /* \"#utility.yul\":9273:9276   */\n      dup4\n        /* \"#utility.yul\":9214:9281   */\n      tag_133\n      jump\t// in\n    tag_269:\n        /* \"#utility.yul\":9207:9281   */\n      swap2\n      pop\n        /* \"#utility.yul\":9290:9383   */\n      tag_270\n        /* \"#utility.yul\":9379:9382   */\n      dup3\n        /* \"#utility.yul\":9290:9383   */\n      tag_159\n      jump\t// in\n    tag_270:\n        /* \"#utility.yul\":9408:9410   */\n      0x40\n        /* \"#utility.yul\":9403:9406   */\n      dup3\n        /* \"#utility.yul\":9399:9411   */\n      add\n        /* \"#utility.yul\":9392:9411   */\n      swap1\n      pop\n        /* \"#utility.yul\":9051:9417   */\n      swap2\n      swap1\n      pop\n      jump\t// out\n        /* \"#utility.yul\":9423:9842   */\n    tag_77:\n        /* \"#utility.yul\":9589:9593   */\n      0x00\n        /* \"#utility.yul\":9627:9629   */\n      0x20\n        /* \"#utility.yul\":9616:9625   */\n      dup3\n        /* \"#utility.yul\":9612:9630   */\n      add\n        /* \"#utility.yul\":9604:9630   */\n      swap1\n      pop\n        /* \"#utility.yul\":9676:9685   */\n      dup2\n        /* \"#utility.yul\":9670:9674   */\n      dup2\n        /* \"#utility.yul\":9666:9686   */\n      sub\n        /* \"#utility.yul\":9662:9663   */\n      0x00\n        /* \"#utility.yul\":9651:9660   */\n      dup4\n        /* \"#utility.yul\":9647:9664   */\n      add\n        /* \"#utility.yul\":9640:9687   */\n      mstore\n        /* \"#utility.yul\":9704:9835   */\n      tag_272\n        /* \"#utility.yul\":9830:9834   */\n      dup2\n        /* \"#utility.yul\":9704:9835   */\n      tag_160\n      jump\t// in\n    tag_272:\n        /* \"#utility.yul\":9696:9835   */\n      swap1\n      pop\n        /* \"#utility.yul\":9423:9842   */\n      swap2\n      swap1\n      pop\n      jump\t// out\n        /* \"#utility.yul\":9848:10075   */\n    tag_161:\n        /* \"#utility.yul\":9988:10022   */\n      0x45524332303a207472616e7366657220616d6f756e7420657863656564732061\n        /* \"#utility.yul\":9984:9985   */\n      0x00\n        /* \"#utility.yul\":9976:9982   */\n      dup3\n        /* \"#utility.yul\":9972:9986   */\n      add\n        /* \"#utility.yul\":9965:10023   */\n      mstore\n        /* \"#utility.yul\":10057:10067   */\n      0x6c6c6f77616e6365000000000000000000000000000000000000000000000000\n        /* \"#utility.yul\":10052:10054   */\n      0x20\n        /* \"#utility.yul\":10044:10050   */\n      dup3\n        /* \"#utility.yul\":10040:10055   */\n      add\n        /* \"#utility.yul\":10033:10068   */\n      mstore\n        /* \"#utility.yul\":9848:10075   */\n      pop\n      jump\t// out\n        /* \"#utility.yul\":10081:10447   */\n    tag_162:\n        /* \"#utility.yul\":10223:10226   */\n      0x00\n        /* \"#utility.yul\":10244:10311   */\n      tag_275\n        /* \"#utility.yul\":10308:10310   */\n      0x28\n        /* \"#utility.yul\":10303:10306   */\n      dup4\n        /* \"#utility.yul\":10244:10311   */\n      tag_133\n      jump\t// in\n    tag_275:\n        /* \"#utility.yul\":10237:10311   */\n      swap2\n      pop\n        /* \"#utility.yul\":10320:10413   */\n      tag_276\n        /* \"#utility.yul\":10409:10412   */\n      dup3\n        /* \"#utility.yul\":10320:10413   */\n      tag_161\n      jump\t// in\n    tag_276:\n        /* \"#utility.yul\":10438:10440   */\n      0x40\n        /* \"#utility.yul\":10433:10436   */\n      dup3\n        /* \"#utility.yul\":10429:10441   */\n      add\n        /* \"#utility.yul\":10422:10441   */\n      swap1\n      pop\n        /* \"#utility.yul\":10081:10447   */\n      swap2\n      swap1\n      pop\n      jump\t// out\n        /* \"#utility.yul\":10453:10872   */\n    tag_81:\n        /* \"#utility.yul\":10619:10623   */\n      0x00\n        /* \"#utility.yul\":10657:10659   */\n      0x20\n        /* \"#utility.yul\":10646:10655   */\n      dup3\n        /* \"#utility.yul\":10642:10660   */\n      add\n        /* \"#utility.yul\":10634:10660   */\n      swap1\n      pop\n        /* \"#utility.yul\":10706:10715   */\n      dup2\n        /* \"#utility.yul\":10700:10704   */\n      dup2\n        /* \"#utility.yul\":10696:10716   */\n      sub\n        /* \"#utility.yul\":10692:10693   */\n      0x00\n        /* \"#utility.yul\":10681:10690   */\n      dup4\n        /* \"#utility.yul\":10677:10694   */\n      add\n        /* \"#utility.yul\":10670:10717   */\n      mstore\n        /* \"#utility.yul\":10734:10865   */\n      tag_278\n        /* \"#utility.yul\":10860:10864   */\n      dup2\n        /* \"#utility.yul\":10734:10865   */\n      tag_162\n      jump\t// in\n    tag_278:\n        /* \"#utility.yul\":10726:10865   */\n      swap1\n      pop\n        /* \"#utility.yul\":10453:10872   */\n      swap2\n      swap1\n      pop\n      jump\t// out\n        /* \"#utility.yul\":10878:11058   */\n    tag_163:\n        /* \"#utility.yul\":10926:11003   */\n      0x4e487b7100000000000000000000000000000000000000000000000000000000\n        /* \"#utility.yul\":10923:10924   */\n      0x00\n        /* \"#utility.yul\":10916:11004   */\n      mstore\n        /* \"#utility.yul\":11023:11027   */\n      0x11\n        /* \"#utility.yul\":11020:11021   */\n      0x04\n        /* \"#utility.yul\":11013:11028   */\n      mstore\n        /* \"#utility.yul\":11047:11051   */\n      0x24\n        /* \"#utility.yul\":11044:11045   */\n      0x00\n        /* \"#utility.yul\":11037:11052   */\n      revert\n        /* \"#utility.yul\":11064:11258   */\n    tag_84:\n        /* \"#utility.yul\":11104:11108   */\n      0x00\n        /* \"#utility.yul\":11124:11144   */\n      tag_281\n        /* \"#utility.yul\":11142:11143   */\n      dup3\n        /* \"#utility.yul\":11124:11144   */\n      tag_144\n      jump\t// in\n    tag_281:\n        /* \"#utility.yul\":11119:11144   */\n      swap2\n      pop\n        /* \"#utility.yul\":11158:11178   */\n      tag_282\n        /* \"#utility.yul\":11176:11177   */\n      dup4\n        /* \"#utility.yul\":11158:11178   */\n      tag_144\n      jump\t// in\n    tag_282:\n        /* \"#utility.yul\":11153:11178   */\n      swap3\n      pop\n        /* \"#utility.yul\":11202:11203   */\n      dup3\n        /* \"#utility.yul\":11199:11200   */\n      dup3\n        /* \"#utility.yul\":11195:11204   */\n      sub\n        /* \"#utility.yul\":11187:11204   */\n      swap1\n      pop\n        /* \"#utility.yul\":11226:11227   */\n      dup2\n        /* \"#utility.yul\":11220:11224   */\n      dup2\n        /* \"#utility.yul\":11217:11228   */\n      gt\n        /* \"#utility.yul\":11214:11251   */\n      iszero\n      tag_283\n      jumpi\n        /* \"#utility.yul\":11231:11249   */\n      tag_284\n      tag_163\n      jump\t// in\n    tag_284:\n        /* \"#utility.yul\":11214:11251   */\n    tag_283:\n        /* \"#utility.yul\":11064:11258   */\n      swap3\n      swap2\n      pop\n      pop\n      jump\t// out\n        /* \"#utility.yul\":11264:11455   */\n    tag_86:\n        /* \"#utility.yul\":11304:11307   */\n      0x00\n        /* \"#utility.yul\":11323:11343   */\n      tag_286\n        /* \"#utility.yul\":11341:11342   */\n      dup3\n        /* \"#utility.yul\":11323:11343   */\n      tag_144\n      jump\t// in\n    tag_286:\n        /* \"#utility.yul\":11318:11343   */\n      swap2\n      pop\n        /* \"#utility.yul\":11357:11377   */\n      tag_287\n        /* \"#utility.yul\":11375:11376   */\n      dup4\n        /* \"#utility.yul\":11357:11377   */\n      tag_144\n      jump\t// in\n    tag_287:\n        /* \"#utility.yul\":11352:11377   */\n      swap3\n      pop\n        /* \"#utility.yul\":11400:11401   */\n      dup3\n        /* \"#utility.yul\":11397:11398   */\n      dup3\n        /* \"#utility.yul\":11393:11402   */\n      add\n        /* \"#utility.yul\":11386:11402   */\n      swap1\n      pop\n        /* \"#utility.yul\":11421:11424   */\n      dup1\n        /* \"#utility.yul\":11418:11419   */\n      dup3\n        /* \"#utility.yul\":11415:11425   */\n      gt\n        /* \"#utility.yul\":11412:11448   */\n      iszero\n      tag_288\n      jumpi\n        /* \"#utility.yul\":11428:11446   */\n      tag_289\n      tag_163\n      jump\t// in\n    tag_289:\n        /* \"#utility.yul\":11412:11448   */\n    tag_288:\n        /* \"#utility.yul\":11264:11455   */\n      swap3\n      swap2\n      pop\n      pop\n      jump\t// out\n        /* \"#utility.yul\":11461:11683   */\n    tag_164:\n        /* \"#utility.yul\":11601:11635   */\n      0x45524332303a2063616e206e6f74207472616e7366657220746f20796f757273\n        /* \"#utility.yul\":11597:11598   */\n      0x00\n        /* \"#utility.yul\":11589:11595   */\n      dup3\n        /* \"#utility.yul\":11585:11599   */\n      add\n        /* \"#utility.yul\":11578:11636   */\n      mstore\n        /* \"#utility.yul\":11670:11675   */\n      0x656c660000000000000000000000000000000000000000000000000000000000\n        /* \"#utility.yul\":11665:11667   */\n      0x20\n        /* \"#utility.yul\":11657:11663   */\n      dup3\n        /* \"#utility.yul\":11653:11668   */\n      add\n        /* \"#utility.yul\":11646:11676   */\n      mstore\n        /* \"#utility.yul\":11461:11683   */\n      pop\n      jump\t// out\n        /* \"#utility.yul\":11689:12055   */\n    tag_165:\n        /* \"#utility.yul\":11831:11834   */\n      0x00\n        /* \"#utility.yul\":11852:11919   */\n      tag_292\n        /* \"#utility.yul\":11916:11918   */\n      0x23\n        /* \"#utility.yul\":11911:11914   */\n      dup4\n        /* \"#utility.yul\":11852:11919   */\n      tag_133\n      jump\t// in\n    tag_292:\n        /* \"#utility.yul\":11845:11919   */\n      swap2\n      pop\n        /* \"#utility.yul\":11928:12021   */\n      tag_293\n        /* \"#utility.yul\":12017:12020   */\n      dup3\n        /* \"#utility.yul\":11928:12021   */\n      tag_164\n      jump\t// in\n    tag_293:\n        /* \"#utility.yul\":12046:12048   */\n      0x40\n        /* \"#utility.yul\":12041:12044   */\n      dup3\n        /* \"#utility.yul\":12037:12049   */\n      add\n        /* \"#utility.yul\":12030:12049   */\n      swap1\n      pop\n        /* \"#utility.yul\":11689:12055   */\n      swap2\n      swap1\n      pop\n      jump\t// out\n        /* \"#utility.yul\":12061:12480   */\n    tag_114:\n        /* \"#utility.yul\":12227:12231   */\n      0x00\n        /* \"#utility.yul\":12265:12267   */\n      0x20\n        /* \"#utility.yul\":12254:12263   */\n      dup3\n        /* \"#utility.yul\":12250:12268   */\n      add\n        /* \"#utility.yul\":12242:12268   */\n      swap1\n      pop\n        /* \"#utility.yul\":12314:12323   */\n      dup2\n        /* \"#utility.yul\":12308:12312   */\n      dup2\n        /* \"#utility.yul\":12304:12324   */\n      sub\n        /* \"#utility.yul\":12300:12301   */\n      0x00\n        /* \"#utility.yul\":12289:12298   */\n      dup4\n        /* \"#utility.yul\":12285:12302   */\n      add\n        /* \"#utility.yul\":12278:12325   */\n      mstore\n        /* \"#utility.yul\":12342:12473   */\n      tag_295\n        /* \"#utility.yul\":12468:12472   */\n      dup2\n        /* \"#utility.yul\":12342:12473   */\n      tag_165\n      jump\t// in\n    tag_295:\n        /* \"#utility.yul\":12334:12473   */\n      swap1\n      pop\n        /* \"#utility.yul\":12061:12480   */\n      swap2\n      swap1\n      pop\n      jump\t// out\n        /* \"#utility.yul\":12486:12604   */\n    tag_166:\n        /* \"#utility.yul\":12573:12597   */\n      tag_297\n        /* \"#utility.yul\":12591:12596   */\n      dup2\n        /* \"#utility.yul\":12573:12597   */\n      tag_141\n      jump\t// in\n    tag_297:\n        /* \"#utility.yul\":12568:12571   */\n      dup3\n        /* \"#utility.yul\":12561:12598   */\n      mstore\n        /* \"#utility.yul\":12486:12604   */\n      pop\n      pop\n      jump\t// out\n        /* \"#utility.yul\":12610:12778   */\n    tag_167:\n        /* \"#utility.yul\":12693:12704   */\n      0x00\n        /* \"#utility.yul\":12727:12733   */\n      dup3\n        /* \"#utility.yul\":12722:12725   */\n      dup3\n        /* \"#utility.yul\":12715:12734   */\n      mstore\n        /* \"#utility.yul\":12767:12771   */\n      0x20\n        /* \"#utility.yul\":12762:12765   */\n      dup3\n        /* \"#utility.yul\":12758:12772   */\n      add\n        /* \"#utility.yul\":12743:12772   */\n      swap1\n      pop\n        /* \"#utility.yul\":12610:12778   */\n      swap3\n      swap2\n      pop\n      pop\n      jump\t// out\n        /* \"#utility.yul\":12784:12932   */\n    tag_168:\n        /* \"#utility.yul\":12882:12888   */\n      dup3\n        /* \"#utility.yul\":12877:12880   */\n      dup2\n        /* \"#utility.yul\":12872:12875   */\n      dup4\n        /* \"#utility.yul\":12859:12889   */\n      calldatacopy\n        /* \"#utility.yul\":12923:12924   */\n      0x00\n        /* \"#utility.yul\":12914:12920   */\n      dup4\n        /* \"#utility.yul\":12909:12912   */\n      dup4\n        /* \"#utility.yul\":12905:12921   */\n      add\n        /* \"#utility.yul\":12898:12925   */\n      mstore\n        /* \"#utility.yul\":12784:12932   */\n      pop\n      pop\n      pop\n      jump\t// out\n        /* \"#utility.yul\":12960:13274   */\n    tag_169:\n        /* \"#utility.yul\":13056:13059   */\n      0x00\n        /* \"#utility.yul\":13077:13147   */\n      tag_301\n        /* \"#utility.yul\":13140:13146   */\n      dup4\n        /* \"#utility.yul\":13135:13138   */\n      dup6\n        /* \"#utility.yul\":13077:13147   */\n      tag_167\n      jump\t// in\n    tag_301:\n        /* \"#utility.yul\":13070:13147   */\n      swap4\n      pop\n        /* \"#utility.yul\":13157:13213   */\n      tag_302\n        /* \"#utility.yul\":13206:13212   */\n      dup4\n        /* \"#utility.yul\":13201:13204   */\n      dup6\n        /* \"#utility.yul\":13194:13199   */\n      dup5\n        /* \"#utility.yul\":13157:13213   */\n      tag_168\n      jump\t// in\n    tag_302:\n        /* \"#utility.yul\":13238:13267   */\n      tag_303\n        /* \"#utility.yul\":13260:13266   */\n      dup4\n        /* \"#utility.yul\":13238:13267   */\n      tag_135\n      jump\t// in\n    tag_303:\n        /* \"#utility.yul\":13233:13236   */\n      dup5\n        /* \"#utility.yul\":13229:13268   */\n      add\n        /* \"#utility.yul\":13222:13268   */\n      swap1\n      pop\n        /* \"#utility.yul\":12960:13274   */\n      swap4\n      swap3\n      pop\n      pop\n      pop\n      jump\t// out\n        /* \"#utility.yul\":13280:13829   */\n    tag_121:\n        /* \"#utility.yul\":13457:13461   */\n      0x00\n        /* \"#utility.yul\":13495:13497   */\n      0x60\n        /* \"#utility.yul\":13484:13493   */\n      dup3\n        /* \"#utility.yul\":13480:13498   */\n      add\n        /* \"#utility.yul\":13472:13498   */\n      swap1\n      pop\n        /* \"#utility.yul\":13508:13579   */\n      tag_305\n        /* \"#utility.yul\":13576:13577   */\n      0x00\n        /* \"#utility.yul\":13565:13574   */\n      dup4\n        /* \"#utility.yul\":13561:13578   */\n      add\n        /* \"#utility.yul\":13552:13558   */\n      dup8\n        /* \"#utility.yul\":13508:13579   */\n      tag_166\n      jump\t// in\n    tag_305:\n        /* \"#utility.yul\":13589:13661   */\n      tag_306\n        /* \"#utility.yul\":13657:13659   */\n      0x20\n        /* \"#utility.yul\":13646:13655   */\n      dup4\n        /* \"#utility.yul\":13642:13660   */\n      add\n        /* \"#utility.yul\":13633:13639   */\n      dup7\n        /* \"#utility.yul\":13589:13661   */\n      tag_149\n      jump\t// in\n    tag_306:\n        /* \"#utility.yul\":13708:13717   */\n      dup2\n        /* \"#utility.yul\":13702:13706   */\n      dup2\n        /* \"#utility.yul\":13698:13718   */\n      sub\n        /* \"#utility.yul\":13693:13695   */\n      0x40\n        /* \"#utility.yul\":13682:13691   */\n      dup4\n        /* \"#utility.yul\":13678:13696   */\n      add\n        /* \"#utility.yul\":13671:13719   */\n      mstore\n        /* \"#utility.yul\":13736:13822   */\n      tag_307\n        /* \"#utility.yul\":13817:13821   */\n      dup2\n        /* \"#utility.yul\":13808:13814   */\n      dup5\n        /* \"#utility.yul\":13800:13806   */\n      dup7\n        /* \"#utility.yul\":13736:13822   */\n      tag_169\n      jump\t// in\n    tag_307:\n        /* \"#utility.yul\":13728:13822   */\n      swap1\n      pop\n        /* \"#utility.yul\":13280:13829   */\n      swap6\n      swap5\n      pop\n      pop\n      pop\n      pop\n      pop\n      jump\t// out\n        /* \"#utility.yul\":13835:13933   */\n    tag_170:\n        /* \"#utility.yul\":13886:13892   */\n      0x00\n        /* \"#utility.yul\":13920:13925   */\n      dup2\n        /* \"#utility.yul\":13914:13926   */\n      mload\n        /* \"#utility.yul\":13904:13926   */\n      swap1\n      pop\n        /* \"#utility.yul\":13835:13933   */\n      swap2\n      swap1\n      pop\n      jump\t// out\n        /* \"#utility.yul\":13939:14086   */\n    tag_171:\n        /* \"#utility.yul\":14040:14051   */\n      0x00\n        /* \"#utility.yul\":14077:14080   */\n      dup2\n        /* \"#utility.yul\":14062:14080   */\n      swap1\n      pop\n        /* \"#utility.yul\":13939:14086   */\n      swap3\n      swap2\n      pop\n      pop\n      jump\t// out\n        /* \"#utility.yul\":14092:14478   */\n    tag_172:\n        /* \"#utility.yul\":14196:14199   */\n      0x00\n        /* \"#utility.yul\":14224:14262   */\n      tag_311\n        /* \"#utility.yul\":14256:14261   */\n      dup3\n        /* \"#utility.yul\":14224:14262   */\n      tag_170\n      jump\t// in\n    tag_311:\n        /* \"#utility.yul\":14278:14366   */\n      tag_312\n        /* \"#utility.yul\":14359:14365   */\n      dup2\n        /* \"#utility.yul\":14354:14357   */\n      dup6\n        /* \"#utility.yul\":14278:14366   */\n      tag_171\n      jump\t// in\n    tag_312:\n        /* \"#utility.yul\":14271:14366   */\n      swap4\n      pop\n        /* \"#utility.yul\":14375:14440   */\n      tag_313\n        /* \"#utility.yul\":14433:14439   */\n      dup2\n        /* \"#utility.yul\":14428:14431   */\n      dup6\n        /* \"#utility.yul\":14421:14425   */\n      0x20\n        /* \"#utility.yul\":14414:14419   */\n      dup7\n        /* \"#utility.yul\":14410:14426   */\n      add\n        /* \"#utility.yul\":14375:14440   */\n      tag_134\n      jump\t// in\n    tag_313:\n        /* \"#utility.yul\":14465:14471   */\n      dup1\n        /* \"#utility.yul\":14460:14463   */\n      dup5\n        /* \"#utility.yul\":14456:14472   */\n      add\n        /* \"#utility.yul\":14449:14472   */\n      swap2\n      pop\n        /* \"#utility.yul\":14200:14478   */\n      pop\n        /* \"#utility.yul\":14092:14478   */\n      swap3\n      swap2\n      pop\n      pop\n      jump\t// out\n        /* \"#utility.yul\":14484:14755   */\n    tag_123:\n        /* \"#utility.yul\":14614:14617   */\n      0x00\n        /* \"#utility.yul\":14636:14729   */\n      tag_315\n        /* \"#utility.yul\":14725:14728   */\n      dup3\n        /* \"#utility.yul\":14716:14722   */\n      dup5\n        /* \"#utility.yul\":14636:14729   */\n      tag_172\n      jump\t// in\n    tag_315:\n        /* \"#utility.yul\":14629:14729   */\n      swap2\n      pop\n        /* \"#utility.yul\":14746:14749   */\n      dup2\n        /* \"#utility.yul\":14739:14749   */\n      swap1\n      pop\n        /* \"#utility.yul\":14484:14755   */\n      swap3\n      swap2\n      pop\n      pop\n      jump\t// out\n        /* \"#utility.yul\":14761:14982   */\n    tag_173:\n        /* \"#utility.yul\":14901:14935   */\n      0x45524332303a2063616c6c20746f6b656e735265636569766564206661696c65\n        /* \"#utility.yul\":14897:14898   */\n      0x00\n        /* \"#utility.yul\":14889:14895   */\n      dup3\n        /* \"#utility.yul\":14885:14899   */\n      add\n        /* \"#utility.yul\":14878:14936   */\n      mstore\n        /* \"#utility.yul\":14970:14974   */\n      0x6421000000000000000000000000000000000000000000000000000000000000\n        /* \"#utility.yul\":14965:14967   */\n      0x20\n        /* \"#utility.yul\":14957:14963   */\n      dup3\n        /* \"#utility.yul\":14953:14968   */\n      add\n        /* \"#utility.yul\":14946:14975   */\n      mstore\n        /* \"#utility.yul\":14761:14982   */\n      pop\n      jump\t// out\n        /* \"#utility.yul\":14988:15354   */\n    tag_174:\n        /* \"#utility.yul\":15130:15133   */\n      0x00\n        /* \"#utility.yul\":15151:15218   */\n      tag_318\n        /* \"#utility.yul\":15215:15217   */\n      0x22\n        /* \"#utility.yul\":15210:15213   */\n      dup4\n        /* \"#utility.yul\":15151:15218   */\n      tag_133\n      jump\t// in\n    tag_318:\n        /* \"#utility.yul\":15144:15218   */\n      swap2\n      pop\n        /* \"#utility.yul\":15227:15320   */\n      tag_319\n        /* \"#utility.yul\":15316:15319   */\n      dup3\n        /* \"#utility.yul\":15227:15320   */\n      tag_173\n      jump\t// in\n    tag_319:\n        /* \"#utility.yul\":15345:15347   */\n      0x40\n        /* \"#utility.yul\":15340:15343   */\n      dup3\n        /* \"#utility.yul\":15336:15348   */\n      add\n        /* \"#utility.yul\":15329:15348   */\n      swap1\n      pop\n        /* \"#utility.yul\":14988:15354   */\n      swap2\n      swap1\n      pop\n      jump\t// out\n        /* \"#utility.yul\":15360:15779   */\n    tag_129:\n        /* \"#utility.yul\":15526:15530   */\n      0x00\n        /* \"#utility.yul\":15564:15566   */\n      0x20\n        /* \"#utility.yul\":15553:15562   */\n      dup3\n        /* \"#utility.yul\":15549:15567   */\n      add\n        /* \"#utility.yul\":15541:15567   */\n      swap1\n      pop\n        /* \"#utility.yul\":15613:15622   */\n      dup2\n        /* \"#utility.yul\":15607:15611   */\n      dup2\n        /* \"#utility.yul\":15603:15623   */\n      sub\n        /* \"#utility.yul\":15599:15600   */\n      0x00\n        /* \"#utility.yul\":15588:15597   */\n      dup4\n        /* \"#utility.yul\":15584:15601   */\n      add\n        /* \"#utility.yul\":15577:15624   */\n      mstore\n        /* \"#utility.yul\":15641:15772   */\n      tag_321\n        /* \"#utility.yul\":15767:15771   */\n      dup2\n        /* \"#utility.yul\":15641:15772   */\n      tag_174\n      jump\t// in\n    tag_321:\n        /* \"#utility.yul\":15633:15772   */\n      swap1\n      pop\n        /* \"#utility.yul\":15360:15779   */\n      swap2\n      swap1\n      pop\n      jump\t// out\n\n    auxdata: 0xa26469706673582212201a7e5bb5c43a5d36ea8aded8eb3747be1c23c696b3d30b4cc6baa98d45c77da064736f6c63430008190033\n}\n",
				"bytecode": {
					"linkReferences": {},
					"object": "608060405234801561000f575f80fd5b506040518060400160405280600981526020017f42617365455243323000000000000000000000000000000000000000000000008152505f90816100539190610367565b506040518060400160405280600681526020017f4245524332300000000000000000000000000000000000000000000000000000815250600190816100989190610367565b50601260025f6101000a81548160ff021916908360ff16021790555060025f9054906101000a900460ff16600a6100cf919061059e565b6305f5e1006100de91906105e8565b60038190555060035460045f3373ffffffffffffffffffffffffffffffffffffffff1673ffffffffffffffffffffffffffffffffffffffff1681526020019081526020015f2081905550610629565b5f81519050919050565b7f4e487b71000000000000000000000000000000000000000000000000000000005f52604160045260245ffd5b7f4e487b71000000000000000000000000000000000000000000000000000000005f52602260045260245ffd5b5f60028204905060018216806101a857607f821691505b6020821081036101bb576101ba610164565b5b50919050565b5f819050815f5260205f209050919050565b5f6020601f8301049050919050565b5f82821b905092915050565b5f6008830261021d7fffffffffffffffffffffffffffffffffffffffffffffffffffffffffffffffff826101e2565b61022786836101e2565b95508019841693508086168417925050509392505050565b5f819050919050565b5f819050919050565b5f61026b6102666102618461023f565b610248565b61023f565b9050919050565b5f819050919050565b61028483610251565b61029861029082610272565b8484546101ee565b825550505050565b5f90565b6102ac6102a0565b6102b781848461027b565b505050565b5b818110156102da576102cf5f826102a4565b6001810190506102bd565b5050565b601f82111561031f576102f0816101c1565b6102f9846101d3565b81016020851015610308578190505b61031c610314856101d3565b8301826102bc565b50505b505050565b5f82821c905092915050565b5f61033f5f1984600802610324565b1980831691505092915050565b5f6103578383610330565b9150826002028217905092915050565b6103708261012d565b67ffffffffffffffff81111561038957610388610137565b5b6103938254610191565b61039e8282856102de565b5f60209050601f8311600181146103cf575f84156103bd578287015190505b6103c7858261034c565b86555061042e565b601f1984166103dd866101c1565b5f5b82811015610404578489015182556001820191506020850194506020810190506103df565b86831015610421578489015161041d601f891682610330565b8355505b6001600288020188555050505b505050505050565b7f4e487b71000000000000000000000000000000000000000000000000000000005f52601160045260245ffd5b5f8160011c9050919050565b5f808291508390505b60018511156104b85780860481111561049457610493610436565b5b60018516156104a35780820291505b80810290506104b185610463565b9450610478565b94509492505050565b5f826104d0576001905061058b565b816104dd575f905061058b565b81600181146104f357600281146104fd5761052c565b600191505061058b565b60ff84111561050f5761050e610436565b5b8360020a91508482111561052657610525610436565b5b5061058b565b5060208310610133831016604e8410600b84101617156105615782820a90508381111561055c5761055b610436565b5b61058b565b61056e848484600161046f565b9250905081840481111561058557610584610436565b5b81810290505b9392505050565b5f60ff82169050919050565b5f6105a88261023f565b91506105b383610592565b92506105e07fffffffffffffffffffffffffffffffffffffffffffffffffffffffffffffffff84846104c1565b905092915050565b5f6105f28261023f565b91506105fd8361023f565b925082820261060b8161023f565b9150828204841483151761062257610621610436565b5b5092915050565b611695806106365f395ff3fe608060405234801561000f575f80fd5b506004361061009c575f3560e01c806370a082311161006457806370a082311461015a57806395d89b411461018a578063a9059cbb146101a8578063d3139195146101d8578063dd62ed3e146102085761009c565b806306fdde03146100a0578063095ea7b3146100be57806318160ddd146100ee57806323b872dd1461010c578063313ce5671461013c575b5f80fd5b6100a8610238565b6040516100b59190610ed1565b60405180910390f35b6100d860048036038101906100d39190610f86565b6102c3565b6040516100e59190610fde565b60405180910390f35b6100f6610420565b6040516101039190611006565b60405180910390f35b6101266004803603810190610121919061101f565b610426565b6040516101339190610fde565b60405180910390f35b610144610780565b604051610151919061108a565b60405180910390f35b610174600480360381019061016f91906110a3565b610792565b6040516101819190611006565b60405180910390f35b6101926107d8565b60405161019f9190610ed1565b60405180910390f35b6101c260048036038101906101bd9190610f86565b610864565b6040516101cf9190610fde565b60405180910390f35b6101f260048036038101906101ed919061112f565b610a6e565b6040516101ff9190610fde565b60405180910390f35b610222600480360381019061021d91906111a0565b610dce565b60405161022f9190611006565b60405180910390f35b5f80546102449061120b565b80601f01602080910402602001604051908101604052809291908181526020018280546102709061120b565b80156102bb5780601f10610292576101008083540402835291602001916102bb565b820191905f5260205f20905b81548152906001019060200180831161029e57829003601f168201915b505050505081565b5f825f73ffffffffffffffffffffffffffffffffffffffff168173ffffffffffffffffffffffffffffffffffffffff1603610333576040517f08c379a000000000000000000000000000000000000000000000000000000000815260040161032a90611285565b60405180910390fd5b8260055f3373ffffffffffffffffffffffffffffffffffffffff1673ffffffffffffffffffffffffffffffffffffffff1681526020019081526020015f205f8673ffffffffffffffffffffffffffffffffffffffff1673ffffffffffffffffffffffffffffffffffffffff1681526020019081526020015f20819055508373ffffffffffffffffffffffffffffffffffffffff163373ffffffffffffffffffffffffffffffffffffffff167f8c5be1e5ebec7d5bd14f71427d1e84f3dd0314c0f7b2291e5b200ac8c7c3b9258560405161040d9190611006565b60405180910390a3600191505092915050565b60035481565b5f825f73ffffffffffffffffffffffffffffffffffffffff168173ffffffffffffffffffffffffffffffffffffffff1603610496576040517f08c379a000000000000000000000000000000000000000000000000000000000815260040161048d90611285565b60405180910390fd5b84838060045f8473ffffffffffffffffffffffffffffffffffffffff1673ffffffffffffffffffffffffffffffffffffffff1681526020019081526020015f20541015610518576040517f08c379a000000000000000000000000000000000000000000000000000000000815260040161050f90611313565b60405180910390fd5b8633868060055f8573ffffffffffffffffffffffffffffffffffffffff1673ffffffffffffffffffffffffffffffffffffffff1681526020019081526020015f205f8473ffffffffffffffffffffffffffffffffffffffff1673ffffffffffffffffffffffffffffffffffffffff1681526020019081526020015f205410156105d6576040517f08c379a00000000000000000000000000000000000000000000000000000000081526004016105cd906113a1565b60405180910390fd5b8760045f8c73ffffffffffffffffffffffffffffffffffffffff1673ffffffffffffffffffffffffffffffffffffffff1681526020019081526020015f205f82825461062291906113ec565b925050819055508760045f8b73ffffffffffffffffffffffffffffffffffffffff1673ffffffffffffffffffffffffffffffffffffffff1681526020019081526020015f205f828254610675919061141f565b925050819055508760055f8c73ffffffffffffffffffffffffffffffffffffffff1673ffffffffffffffffffffffffffffffffffffffff1681526020019081526020015f205f3373ffffffffffffffffffffffffffffffffffffffff1673ffffffffffffffffffffffffffffffffffffffff1681526020019081526020015f205f82825461070391906113ec565b925050819055508873ffffffffffffffffffffffffffffffffffffffff168a73ffffffffffffffffffffffffffffffffffffffff167fddf252ad1be2c89b69c2b068fc378daa952ba7f163c4a11628f55a4df523b3ef8a6040516107679190611006565b60405180910390a3600196505050505050509392505050565b60025f9054906101000a900460ff1681565b5f60045f8373ffffffffffffffffffffffffffffffffffffffff1673ffffffffffffffffffffffffffffffffffffffff1681526020019081526020015f20549050919050565b600180546107e59061120b565b80601f01602080910402602001604051908101604052809291908181526020018280546108119061120b565b801561085c5780601f106108335761010080835404028352916020019161085c565b820191905f5260205f20905b81548152906001019060200180831161083f57829003601f168201915b505050505081565b5f825f73ffffffffffffffffffffffffffffffffffffffff168173ffffffffffffffffffffffffffffffffffffffff16036108d4576040517f08c379a00000000000000000000000000000000000000000000000000000000081526004016108cb90611285565b60405180910390fd5b33838060045f8473ffffffffffffffffffffffffffffffffffffffff1673ffffffffffffffffffffffffffffffffffffffff1681526020019081526020015f20541015610956576040517f08c379a000000000000000000000000000000000000000000000000000000000815260040161094d90611313565b60405180910390fd5b8460045f3373ffffffffffffffffffffffffffffffffffffffff1673ffffffffffffffffffffffffffffffffffffffff1681526020019081526020015f205f8282546109a291906113ec565b925050819055508460045f8873ffffffffffffffffffffffffffffffffffffffff1673ffffffffffffffffffffffffffffffffffffffff1681526020019081526020015f205f8282546109f5919061141f565b925050819055508573ffffffffffffffffffffffffffffffffffffffff163373ffffffffffffffffffffffffffffffffffffffff167fddf252ad1be2c89b69c2b068fc378daa952ba7f163c4a11628f55a4df523b3ef87604051610a599190611006565b60405180910390a36001935050505092915050565b5f845f73ffffffffffffffffffffffffffffffffffffffff168173ffffffffffffffffffffffffffffffffffffffff1603610ade576040517f08c379a0000000000000000000000000000000000000000000000000000000008152600401610ad590611285565b60405180910390fd5b33858060045f8473ffffffffffffffffffffffffffffffffffffffff1673ffffffffffffffffffffffffffffffffffffffff1681526020019081526020015f20541015610b60576040517f08c379a0000000000000000000000000000000000000000000000000000000008152600401610b5790611313565b60405180910390fd5b8773ffffffffffffffffffffffffffffffffffffffff163373ffffffffffffffffffffffffffffffffffffffff1603610bce576040517f08c379a0000000000000000000000000000000000000000000000000000000008152600401610bc5906114c2565b60405180910390fd5b8660045f3373ffffffffffffffffffffffffffffffffffffffff1673ffffffffffffffffffffffffffffffffffffffff1681526020019081526020015f205f828254610c1a91906113ec565b925050819055508660045f8a73ffffffffffffffffffffffffffffffffffffffff1673ffffffffffffffffffffffffffffffffffffffff1681526020019081526020015f205f828254610c6d919061141f565b92505081905550610c7d88610e50565b15610dbf575f8873ffffffffffffffffffffffffffffffffffffffff1633898989604051602401610cb19493929190611539565b6040516020818303038152906040527fd0314263000000000000000000000000000000000000000000000000000000007bffffffffffffffffffffffffffffffffffffffffffffffffffffffff19166020820180517bffffffffffffffffffffffffffffffffffffffffffffffffffffffff8381831617835250505050604051610d3b91906115bb565b5f604051808303815f865af19150503d805f8114610d74576040519150601f19603f3d011682016040523d82523d5f602084013e610d79565b606091505b5050905080610dbd576040517f08c379a0000000000000000000000000000000000000000000000000000000008152600401610db490611641565b60405180910390fd5b505b60019350505050949350505050565b5f60055f8473ffffffffffffffffffffffffffffffffffffffff1673ffffffffffffffffffffffffffffffffffffffff1681526020019081526020015f205f8373ffffffffffffffffffffffffffffffffffffffff1673ffffffffffffffffffffffffffffffffffffffff1681526020019081526020015f2054905092915050565b5f80823b90505f8111915050919050565b5f81519050919050565b5f82825260208201905092915050565b8281835e5f83830152505050565b5f601f19601f8301169050919050565b5f610ea382610e61565b610ead8185610e6b565b9350610ebd818560208601610e7b565b610ec681610e89565b840191505092915050565b5f6020820190508181035f830152610ee98184610e99565b905092915050565b5f80fd5b5f80fd5b5f73ffffffffffffffffffffffffffffffffffffffff82169050919050565b5f610f2282610ef9565b9050919050565b610f3281610f18565b8114610f3c575f80fd5b50565b5f81359050610f4d81610f29565b92915050565b5f819050919050565b610f6581610f53565b8114610f6f575f80fd5b50565b5f81359050610f8081610f5c565b92915050565b5f8060408385031215610f9c57610f9b610ef1565b5b5f610fa985828601610f3f565b9250506020610fba85828601610f72565b9150509250929050565b5f8115159050919050565b610fd881610fc4565b82525050565b5f602082019050610ff15f830184610fcf565b92915050565b61100081610f53565b82525050565b5f6020820190506110195f830184610ff7565b92915050565b5f805f6060848603121561103657611035610ef1565b5b5f61104386828701610f3f565b935050602061105486828701610f3f565b925050604061106586828701610f72565b9150509250925092565b5f60ff82169050919050565b6110848161106f565b82525050565b5f60208201905061109d5f83018461107b565b92915050565b5f602082840312156110b8576110b7610ef1565b5b5f6110c584828501610f3f565b91505092915050565b5f80fd5b5f80fd5b5f80fd5b5f8083601f8401126110ef576110ee6110ce565b5b8235905067ffffffffffffffff81111561110c5761110b6110d2565b5b602083019150836001820283011115611128576111276110d6565b5b9250929050565b5f805f806060858703121561114757611146610ef1565b5b5f61115487828801610f3f565b945050602061116587828801610f72565b935050604085013567ffffffffffffffff81111561118657611185610ef5565b5b611192878288016110da565b925092505092959194509250565b5f80604083850312156111b6576111b5610ef1565b5b5f6111c385828601610f3f565b92505060206111d485828601610f3f565b9150509250929050565b7f4e487b71000000000000000000000000000000000000000000000000000000005f52602260045260245ffd5b5f600282049050600182168061122257607f821691505b602082108103611235576112346111de565b5b50919050565b7f45524332303a207472616e7366657220746f207a65726f2061646472657373005f82015250565b5f61126f601f83610e6b565b915061127a8261123b565b602082019050919050565b5f6020820190508181035f83015261129c81611263565b9050919050565b7f45524332303a207472616e7366657220616d6f756e74206578636565647320625f8201527f616c616e63650000000000000000000000000000000000000000000000000000602082015250565b5f6112fd602683610e6b565b9150611308826112a3565b604082019050919050565b5f6020820190508181035f83015261132a816112f1565b9050919050565b7f45524332303a207472616e7366657220616d6f756e74206578636565647320615f8201527f6c6c6f77616e6365000000000000000000000000000000000000000000000000602082015250565b5f61138b602883610e6b565b915061139682611331565b604082019050919050565b5f6020820190508181035f8301526113b88161137f565b9050919050565b7f4e487b71000000000000000000000000000000000000000000000000000000005f52601160045260245ffd5b5f6113f682610f53565b915061140183610f53565b9250828203905081811115611419576114186113bf565b5b92915050565b5f61142982610f53565b915061143483610f53565b925082820190508082111561144c5761144b6113bf565b5b92915050565b7f45524332303a2063616e206e6f74207472616e7366657220746f20796f7572735f8201527f656c660000000000000000000000000000000000000000000000000000000000602082015250565b5f6114ac602383610e6b565b91506114b782611452565b604082019050919050565b5f6020820190508181035f8301526114d9816114a0565b9050919050565b6114e981610f18565b82525050565b5f82825260208201905092915050565b828183375f83830152505050565b5f61151883856114ef565b93506115258385846114ff565b61152e83610e89565b840190509392505050565b5f60608201905061154c5f8301876114e0565b6115596020830186610ff7565b818103604083015261156c81848661150d565b905095945050505050565b5f81519050919050565b5f81905092915050565b5f61159582611577565b61159f8185611581565b93506115af818560208601610e7b565b80840191505092915050565b5f6115c6828461158b565b915081905092915050565b7f45524332303a2063616c6c20746f6b656e735265636569766564206661696c655f8201527f6421000000000000000000000000000000000000000000000000000000000000602082015250565b5f61162b602283610e6b565b9150611636826115d1565b604082019050919050565b5f6020820190508181035f8301526116588161161f565b905091905056fea26469706673582212201a7e5bb5c43a5d36ea8aded8eb3747be1c23c696b3d30b4cc6baa98d45c77da064736f6c63430008190033",
					"opcodes": "PUSH1 0x80 PUSH1 0x40 MSTORE CALLVALUE DUP1 ISZERO PUSH2 0xF JUMPI PUSH0 DUP1 REVERT JUMPDEST POP PUSH1 0x40 MLOAD DUP1 PUSH1 0x40 ADD PUSH1 0x40 MSTORE DUP1 PUSH1 0x9 DUP2 MSTORE PUSH1 0x20 ADD PUSH32 0x4261736545524332300000000000000000000000000000000000000000000000 DUP2 MSTORE POP PUSH0 SWAP1 DUP2 PUSH2 0x53 SWAP2 SWAP1 PUSH2 0x367 JUMP JUMPDEST POP PUSH1 0x40 MLOAD DUP1 PUSH1 0x40 ADD PUSH1 0x40 MSTORE DUP1 PUSH1 0x6 DUP2 MSTORE PUSH1 0x20 ADD PUSH32 0x4245524332300000000000000000000000000000000000000000000000000000 DUP2 MSTORE POP PUSH1 0x1 SWAP1 DUP2 PUSH2 0x98 SWAP2 SWAP1 PUSH2 0x367 JUMP JUMPDEST POP PUSH1 0x12 PUSH1 0x2 PUSH0 PUSH2 0x100 EXP DUP2 SLOAD DUP2 PUSH1 0xFF MUL NOT AND SWAP1 DUP4 PUSH1 0xFF AND MUL OR SWAP1 SSTORE POP PUSH1 0x2 PUSH0 SWAP1 SLOAD SWAP1 PUSH2 0x100 EXP SWAP1 DIV PUSH1 0xFF AND PUSH1 0xA PUSH2 0xCF SWAP2 SWAP1 PUSH2 0x59E JUMP JUMPDEST PUSH4 0x5F5E100 PUSH2 0xDE SWAP2 SWAP1 PUSH2 0x5E8 JUMP JUMPDEST PUSH1 0x3 DUP2 SWAP1 SSTORE POP PUSH1 0x3 SLOAD PUSH1 0x4 PUSH0 CALLER PUSH20 0xFFFFFFFFFFFFFFFFFFFFFFFFFFFFFFFFFFFFFFFF AND PUSH20 0xFFFFFFFFFFFFFFFFFFFFFFFFFFFFFFFFFFFFFFFF AND DUP2 MSTORE PUSH1 0x20 ADD SWAP1 DUP2 MSTORE PUSH1 0x20 ADD PUSH0 KECCAK256 DUP2 SWAP1 SSTORE POP PUSH2 0x629 JUMP JUMPDEST PUSH0 DUP2 MLOAD SWAP1 POP SWAP2 SWAP1 POP JUMP JUMPDEST PUSH32 0x4E487B7100000000000000000000000000000000000000000000000000000000 PUSH0 MSTORE PUSH1 0x41 PUSH1 0x4 MSTORE PUSH1 0x24 PUSH0 REVERT JUMPDEST PUSH32 0x4E487B7100000000000000000000000000000000000000000000000000000000 PUSH0 MSTORE PUSH1 0x22 PUSH1 0x4 MSTORE PUSH1 0x24 PUSH0 REVERT JUMPDEST PUSH0 PUSH1 0x2 DUP3 DIV SWAP1 POP PUSH1 0x1 DUP3 AND DUP1 PUSH2 0x1A8 JUMPI PUSH1 0x7F DUP3 AND SWAP2 POP JUMPDEST PUSH1 0x20 DUP3 LT DUP2 SUB PUSH2 0x1BB JUMPI PUSH2 0x1BA PUSH2 0x164 JUMP JUMPDEST JUMPDEST POP SWAP2 SWAP1 POP JUMP JUMPDEST PUSH0 DUP2 SWAP1 POP DUP2 PUSH0 MSTORE PUSH1 0x20 PUSH0 KECCAK256 SWAP1 POP SWAP2 SWAP1 POP JUMP JUMPDEST PUSH0 PUSH1 0x20 PUSH1 0x1F DUP4 ADD DIV SWAP1 POP SWAP2 SWAP1 POP JUMP JUMPDEST PUSH0 DUP3 DUP3 SHL SWAP1 POP SWAP3 SWAP2 POP POP JUMP JUMPDEST PUSH0 PUSH1 0x8 DUP4 MUL PUSH2 0x21D PUSH32 0xFFFFFFFFFFFFFFFFFFFFFFFFFFFFFFFFFFFFFFFFFFFFFFFFFFFFFFFFFFFFFFFF DUP3 PUSH2 0x1E2 JUMP JUMPDEST PUSH2 0x227 DUP7 DUP4 PUSH2 0x1E2 JUMP JUMPDEST SWAP6 POP DUP1 NOT DUP5 AND SWAP4 POP DUP1 DUP7 AND DUP5 OR SWAP3 POP POP POP SWAP4 SWAP3 POP POP POP JUMP JUMPDEST PUSH0 DUP2 SWAP1 POP SWAP2 SWAP1 POP JUMP JUMPDEST PUSH0 DUP2 SWAP1 POP SWAP2 SWAP1 POP JUMP JUMPDEST PUSH0 PUSH2 0x26B PUSH2 0x266 PUSH2 0x261 DUP5 PUSH2 0x23F JUMP JUMPDEST PUSH2 0x248 JUMP JUMPDEST PUSH2 0x23F JUMP JUMPDEST SWAP1 POP SWAP2 SWAP1 POP JUMP JUMPDEST PUSH0 DUP2 SWAP1 POP SWAP2 SWAP1 POP JUMP JUMPDEST PUSH2 0x284 DUP4 PUSH2 0x251 JUMP JUMPDEST PUSH2 0x298 PUSH2 0x290 DUP3 PUSH2 0x272 JUMP JUMPDEST DUP5 DUP5 SLOAD PUSH2 0x1EE JUMP JUMPDEST DUP3 SSTORE POP POP POP POP JUMP JUMPDEST PUSH0 SWAP1 JUMP JUMPDEST PUSH2 0x2AC PUSH2 0x2A0 JUMP JUMPDEST PUSH2 0x2B7 DUP2 DUP5 DUP5 PUSH2 0x27B JUMP JUMPDEST POP POP POP JUMP JUMPDEST JUMPDEST DUP2 DUP2 LT ISZERO PUSH2 0x2DA JUMPI PUSH2 0x2CF PUSH0 DUP3 PUSH2 0x2A4 JUMP JUMPDEST PUSH1 0x1 DUP2 ADD SWAP1 POP PUSH2 0x2BD JUMP JUMPDEST POP POP JUMP JUMPDEST PUSH1 0x1F DUP3 GT ISZERO PUSH2 0x31F JUMPI PUSH2 0x2F0 DUP2 PUSH2 0x1C1 JUMP JUMPDEST PUSH2 0x2F9 DUP5 PUSH2 0x1D3 JUMP JUMPDEST DUP2 ADD PUSH1 0x20 DUP6 LT ISZERO PUSH2 0x308 JUMPI DUP2 SWAP1 POP JUMPDEST PUSH2 0x31C PUSH2 0x314 DUP6 PUSH2 0x1D3 JUMP JUMPDEST DUP4 ADD DUP3 PUSH2 0x2BC JUMP JUMPDEST POP POP JUMPDEST POP POP POP JUMP JUMPDEST PUSH0 DUP3 DUP3 SHR SWAP1 POP SWAP3 SWAP2 POP POP JUMP JUMPDEST PUSH0 PUSH2 0x33F PUSH0 NOT DUP5 PUSH1 0x8 MUL PUSH2 0x324 JUMP JUMPDEST NOT DUP1 DUP4 AND SWAP2 POP POP SWAP3 SWAP2 POP POP JUMP JUMPDEST PUSH0 PUSH2 0x357 DUP4 DUP4 PUSH2 0x330 JUMP JUMPDEST SWAP2 POP DUP3 PUSH1 0x2 MUL DUP3 OR SWAP1 POP SWAP3 SWAP2 POP POP JUMP JUMPDEST PUSH2 0x370 DUP3 PUSH2 0x12D JUMP JUMPDEST PUSH8 0xFFFFFFFFFFFFFFFF DUP2 GT ISZERO PUSH2 0x389 JUMPI PUSH2 0x388 PUSH2 0x137 JUMP JUMPDEST JUMPDEST PUSH2 0x393 DUP3 SLOAD PUSH2 0x191 JUMP JUMPDEST PUSH2 0x39E DUP3 DUP3 DUP6 PUSH2 0x2DE JUMP JUMPDEST PUSH0 PUSH1 0x20 SWAP1 POP PUSH1 0x1F DUP4 GT PUSH1 0x1 DUP2 EQ PUSH2 0x3CF JUMPI PUSH0 DUP5 ISZERO PUSH2 0x3BD JUMPI DUP3 DUP8 ADD MLOAD SWAP1 POP JUMPDEST PUSH2 0x3C7 DUP6 DUP3 PUSH2 0x34C JUMP JUMPDEST DUP7 SSTORE POP PUSH2 0x42E JUMP JUMPDEST PUSH1 0x1F NOT DUP5 AND PUSH2 0x3DD DUP7 PUSH2 0x1C1 JUMP JUMPDEST PUSH0 JUMPDEST DUP3 DUP2 LT ISZERO PUSH2 0x404 JUMPI DUP5 DUP10 ADD MLOAD DUP3 SSTORE PUSH1 0x1 DUP3 ADD SWAP2 POP PUSH1 0x20 DUP6 ADD SWAP5 POP PUSH1 0x20 DUP2 ADD SWAP1 POP PUSH2 0x3DF JUMP JUMPDEST DUP7 DUP4 LT ISZERO PUSH2 0x421 JUMPI DUP5 DUP10 ADD MLOAD PUSH2 0x41D PUSH1 0x1F DUP10 AND DUP3 PUSH2 0x330 JUMP JUMPDEST DUP4 SSTORE POP JUMPDEST PUSH1 0x1 PUSH1 0x2 DUP9 MUL ADD DUP9 SSTORE POP POP POP JUMPDEST POP POP POP POP POP POP JUMP JUMPDEST PUSH32 0x4E487B7100000000000000000000000000000000000000000000000000000000 PUSH0 MSTORE PUSH1 0x11 PUSH1 0x4 MSTORE PUSH1 0x24 PUSH0 REVERT JUMPDEST PUSH0 DUP2 PUSH1 0x1 SHR SWAP1 POP SWAP2 SWAP1 POP JUMP JUMPDEST PUSH0 DUP1 DUP3 SWAP2 POP DUP4 SWAP1 POP JUMPDEST PUSH1 0x1 DUP6 GT ISZERO PUSH2 0x4B8 JUMPI DUP1 DUP7 DIV DUP2 GT ISZERO PUSH2 0x494 JUMPI PUSH2 0x493 PUSH2 0x436 JUMP JUMPDEST JUMPDEST PUSH1 0x1 DUP6 AND ISZERO PUSH2 0x4A3 JUMPI DUP1 DUP3 MUL SWAP2 POP JUMPDEST DUP1 DUP2 MUL SWAP1 POP PUSH2 0x4B1 DUP6 PUSH2 0x463 JUMP JUMPDEST SWAP5 POP PUSH2 0x478 JUMP JUMPDEST SWAP5 POP SWAP5 SWAP3 POP POP POP JUMP JUMPDEST PUSH0 DUP3 PUSH2 0x4D0 JUMPI PUSH1 0x1 SWAP1 POP PUSH2 0x58B JUMP JUMPDEST DUP2 PUSH2 0x4DD JUMPI PUSH0 SWAP1 POP PUSH2 0x58B JUMP JUMPDEST DUP2 PUSH1 0x1 DUP2 EQ PUSH2 0x4F3 JUMPI PUSH1 0x2 DUP2 EQ PUSH2 0x4FD JUMPI PUSH2 0x52C JUMP JUMPDEST PUSH1 0x1 SWAP2 POP POP PUSH2 0x58B JUMP JUMPDEST PUSH1 0xFF DUP5 GT ISZERO PUSH2 0x50F JUMPI PUSH2 0x50E PUSH2 0x436 JUMP JUMPDEST JUMPDEST DUP4 PUSH1 0x2 EXP SWAP2 POP DUP5 DUP3 GT ISZERO PUSH2 0x526 JUMPI PUSH2 0x525 PUSH2 0x436 JUMP JUMPDEST JUMPDEST POP PUSH2 0x58B JUMP JUMPDEST POP PUSH1 0x20 DUP4 LT PUSH2 0x133 DUP4 LT AND PUSH1 0x4E DUP5 LT PUSH1 0xB DUP5 LT AND OR ISZERO PUSH2 0x561 JUMPI DUP3 DUP3 EXP SWAP1 POP DUP4 DUP2 GT ISZERO PUSH2 0x55C JUMPI PUSH2 0x55B PUSH2 0x436 JUMP JUMPDEST JUMPDEST PUSH2 0x58B JUMP JUMPDEST PUSH2 0x56E DUP5 DUP5 DUP5 PUSH1 0x1 PUSH2 0x46F JUMP JUMPDEST SWAP3 POP SWAP1 POP DUP2 DUP5 DIV DUP2 GT ISZERO PUSH2 0x585 JUMPI PUSH2 0x584 PUSH2 0x436 JUMP JUMPDEST JUMPDEST DUP2 DUP2 MUL SWAP1 POP JUMPDEST SWAP4 SWAP3 POP POP POP JUMP JUMPDEST PUSH0 PUSH1 0xFF DUP3 AND SWAP1 POP SWAP2 SWAP1 POP JUMP JUMPDEST PUSH0 PUSH2 0x5A8 DUP3 PUSH2 0x23F JUMP JUMPDEST SWAP2 POP PUSH2 0x5B3 DUP4 PUSH2 0x592 JUMP JUMPDEST SWAP3 POP PUSH2 0x5E0 PUSH32 0xFFFFFFFFFFFFFFFFFFFFFFFFFFFFFFFFFFFFFFFFFFFFFFFFFFFFFFFFFFFFFFFF DUP5 DUP5 PUSH2 0x4C1 JUMP JUMPDEST SWAP1 POP SWAP3 SWAP2 POP POP JUMP JUMPDEST PUSH0 PUSH2 0x5F2 DUP3 PUSH2 0x23F JUMP JUMPDEST SWAP2 POP PUSH2 0x5FD DUP4 PUSH2 0x23F JUMP JUMPDEST SWAP3 POP DUP3 DUP3 MUL PUSH2 0x60B DUP2 PUSH2 0x23F JUMP JUMPDEST SWAP2 POP DUP3 DUP3 DIV DUP5 EQ DUP4 ISZERO OR PUSH2 0x622 JUMPI PUSH2 0x621 PUSH2 0x436 JUMP JUMPDEST JUMPDEST POP SWAP3 SWAP2 POP POP JUMP JUMPDEST PUSH2 0x1695 DUP1 PUSH2 0x636 PUSH0 CODECOPY PUSH0 RETURN INVALID PUSH1 0x80 PUSH1 0x40 MSTORE CALLVALUE DUP1 ISZERO PUSH2 0xF JUMPI PUSH0 DUP1 REVERT JUMPDEST POP PUSH1 0x4 CALLDATASIZE LT PUSH2 0x9C JUMPI PUSH0 CALLDATALOAD PUSH1 0xE0 SHR DUP1 PUSH4 0x70A08231 GT PUSH2 0x64 JUMPI DUP1 PUSH4 0x70A08231 EQ PUSH2 0x15A JUMPI DUP1 PUSH4 0x95D89B41 EQ PUSH2 0x18A JUMPI DUP1 PUSH4 0xA9059CBB EQ PUSH2 0x1A8 JUMPI DUP1 PUSH4 0xD3139195 EQ PUSH2 0x1D8 JUMPI DUP1 PUSH4 0xDD62ED3E EQ PUSH2 0x208 JUMPI PUSH2 0x9C JUMP JUMPDEST DUP1 PUSH4 0x6FDDE03 EQ PUSH2 0xA0 JUMPI DUP1 PUSH4 0x95EA7B3 EQ PUSH2 0xBE JUMPI DUP1 PUSH4 0x18160DDD EQ PUSH2 0xEE JUMPI DUP1 PUSH4 0x23B872DD EQ PUSH2 0x10C JUMPI DUP1 PUSH4 0x313CE567 EQ PUSH2 0x13C JUMPI JUMPDEST PUSH0 DUP1 REVERT JUMPDEST PUSH2 0xA8 PUSH2 0x238 JUMP JUMPDEST PUSH1 0x40 MLOAD PUSH2 0xB5 SWAP2 SWAP1 PUSH2 0xED1 JUMP JUMPDEST PUSH1 0x40 MLOAD DUP1 SWAP2 SUB SWAP1 RETURN JUMPDEST PUSH2 0xD8 PUSH1 0x4 DUP1 CALLDATASIZE SUB DUP2 ADD SWAP1 PUSH2 0xD3 SWAP2 SWAP1 PUSH2 0xF86 JUMP JUMPDEST PUSH2 0x2C3 JUMP JUMPDEST PUSH1 0x40 MLOAD PUSH2 0xE5 SWAP2 SWAP1 PUSH2 0xFDE JUMP JUMPDEST PUSH1 0x40 MLOAD DUP1 SWAP2 SUB SWAP1 RETURN JUMPDEST PUSH2 0xF6 PUSH2 0x420 JUMP JUMPDEST PUSH1 0x40 MLOAD PUSH2 0x103 SWAP2 SWAP1 PUSH2 0x1006 JUMP JUMPDEST PUSH1 0x40 MLOAD DUP1 SWAP2 SUB SWAP1 RETURN JUMPDEST PUSH2 0x126 PUSH1 0x4 DUP1 CALLDATASIZE SUB DUP2 ADD SWAP1 PUSH2 0x121 SWAP2 SWAP1 PUSH2 0x101F JUMP JUMPDEST PUSH2 0x426 JUMP JUMPDEST PUSH1 0x40 MLOAD PUSH2 0x133 SWAP2 SWAP1 PUSH2 0xFDE JUMP JUMPDEST PUSH1 0x40 MLOAD DUP1 SWAP2 SUB SWAP1 RETURN JUMPDEST PUSH2 0x144 PUSH2 0x780 JUMP JUMPDEST PUSH1 0x40 MLOAD PUSH2 0x151 SWAP2 SWAP1 PUSH2 0x108A JUMP JUMPDEST PUSH1 0x40 MLOAD DUP1 SWAP2 SUB SWAP1 RETURN JUMPDEST PUSH2 0x174 PUSH1 0x4 DUP1 CALLDATASIZE SUB DUP2 ADD SWAP1 PUSH2 0x16F SWAP2 SWAP1 PUSH2 0x10A3 JUMP JUMPDEST PUSH2 0x792 JUMP JUMPDEST PUSH1 0x40 MLOAD PUSH2 0x181 SWAP2 SWAP1 PUSH2 0x1006 JUMP JUMPDEST PUSH1 0x40 MLOAD DUP1 SWAP2 SUB SWAP1 RETURN JUMPDEST PUSH2 0x192 PUSH2 0x7D8 JUMP JUMPDEST PUSH1 0x40 MLOAD PUSH2 0x19F SWAP2 SWAP1 PUSH2 0xED1 JUMP JUMPDEST PUSH1 0x40 MLOAD DUP1 SWAP2 SUB SWAP1 RETURN JUMPDEST PUSH2 0x1C2 PUSH1 0x4 DUP1 CALLDATASIZE SUB DUP2 ADD SWAP1 PUSH2 0x1BD SWAP2 SWAP1 PUSH2 0xF86 JUMP JUMPDEST PUSH2 0x864 JUMP JUMPDEST PUSH1 0x40 MLOAD PUSH2 0x1CF SWAP2 SWAP1 PUSH2 0xFDE JUMP JUMPDEST PUSH1 0x40 MLOAD DUP1 SWAP2 SUB SWAP1 RETURN JUMPDEST PUSH2 0x1F2 PUSH1 0x4 DUP1 CALLDATASIZE SUB DUP2 ADD SWAP1 PUSH2 0x1ED SWAP2 SWAP1 PUSH2 0x112F JUMP JUMPDEST PUSH2 0xA6E JUMP JUMPDEST PUSH1 0x40 MLOAD PUSH2 0x1FF SWAP2 SWAP1 PUSH2 0xFDE JUMP JUMPDEST PUSH1 0x40 MLOAD DUP1 SWAP2 SUB SWAP1 RETURN JUMPDEST PUSH2 0x222 PUSH1 0x4 DUP1 CALLDATASIZE SUB DUP2 ADD SWAP1 PUSH2 0x21D SWAP2 SWAP1 PUSH2 0x11A0 JUMP JUMPDEST PUSH2 0xDCE JUMP JUMPDEST PUSH1 0x40 MLOAD PUSH2 0x22F SWAP2 SWAP1 PUSH2 0x1006 JUMP JUMPDEST PUSH1 0x40 MLOAD DUP1 SWAP2 SUB SWAP1 RETURN JUMPDEST PUSH0 DUP1 SLOAD PUSH2 0x244 SWAP1 PUSH2 0x120B JUMP JUMPDEST DUP1 PUSH1 0x1F ADD PUSH1 0x20 DUP1 SWAP2 DIV MUL PUSH1 0x20 ADD PUSH1 0x40 MLOAD SWAP1 DUP2 ADD PUSH1 0x40 MSTORE DUP1 SWAP3 SWAP2 SWAP1 DUP2 DUP2 MSTORE PUSH1 0x20 ADD DUP3 DUP1 SLOAD PUSH2 0x270 SWAP1 PUSH2 0x120B JUMP JUMPDEST DUP1 ISZERO PUSH2 0x2BB JUMPI DUP1 PUSH1 0x1F LT PUSH2 0x292 JUMPI PUSH2 0x100 DUP1 DUP4 SLOAD DIV MUL DUP4 MSTORE SWAP2 PUSH1 0x20 ADD SWAP2 PUSH2 0x2BB JUMP JUMPDEST DUP3 ADD SWAP2 SWAP1 PUSH0 MSTORE PUSH1 0x20 PUSH0 KECCAK256 SWAP1 JUMPDEST DUP2 SLOAD DUP2 MSTORE SWAP1 PUSH1 0x1 ADD SWAP1 PUSH1 0x20 ADD DUP1 DUP4 GT PUSH2 0x29E JUMPI DUP3 SWAP1 SUB PUSH1 0x1F AND DUP3 ADD SWAP2 JUMPDEST POP POP POP POP POP DUP2 JUMP JUMPDEST PUSH0 DUP3 PUSH0 PUSH20 0xFFFFFFFFFFFFFFFFFFFFFFFFFFFFFFFFFFFFFFFF AND DUP2 PUSH20 0xFFFFFFFFFFFFFFFFFFFFFFFFFFFFFFFFFFFFFFFF AND SUB PUSH2 0x333 JUMPI PUSH1 0x40 MLOAD PUSH32 0x8C379A000000000000000000000000000000000000000000000000000000000 DUP2 MSTORE PUSH1 0x4 ADD PUSH2 0x32A SWAP1 PUSH2 0x1285 JUMP JUMPDEST PUSH1 0x40 MLOAD DUP1 SWAP2 SUB SWAP1 REVERT JUMPDEST DUP3 PUSH1 0x5 PUSH0 CALLER PUSH20 0xFFFFFFFFFFFFFFFFFFFFFFFFFFFFFFFFFFFFFFFF AND PUSH20 0xFFFFFFFFFFFFFFFFFFFFFFFFFFFFFFFFFFFFFFFF AND DUP2 MSTORE PUSH1 0x20 ADD SWAP1 DUP2 MSTORE PUSH1 0x20 ADD PUSH0 KECCAK256 PUSH0 DUP7 PUSH20 0xFFFFFFFFFFFFFFFFFFFFFFFFFFFFFFFFFFFFFFFF AND PUSH20 0xFFFFFFFFFFFFFFFFFFFFFFFFFFFFFFFFFFFFFFFF AND DUP2 MSTORE PUSH1 0x20 ADD SWAP1 DUP2 MSTORE PUSH1 0x20 ADD PUSH0 KECCAK256 DUP2 SWAP1 SSTORE POP DUP4 PUSH20 0xFFFFFFFFFFFFFFFFFFFFFFFFFFFFFFFFFFFFFFFF AND CALLER PUSH20 0xFFFFFFFFFFFFFFFFFFFFFFFFFFFFFFFFFFFFFFFF AND PUSH32 0x8C5BE1E5EBEC7D5BD14F71427D1E84F3DD0314C0F7B2291E5B200AC8C7C3B925 DUP6 PUSH1 0x40 MLOAD PUSH2 0x40D SWAP2 SWAP1 PUSH2 0x1006 JUMP JUMPDEST PUSH1 0x40 MLOAD DUP1 SWAP2 SUB SWAP1 LOG3 PUSH1 0x1 SWAP2 POP POP SWAP3 SWAP2 POP POP JUMP JUMPDEST PUSH1 0x3 SLOAD DUP2 JUMP JUMPDEST PUSH0 DUP3 PUSH0 PUSH20 0xFFFFFFFFFFFFFFFFFFFFFFFFFFFFFFFFFFFFFFFF AND DUP2 PUSH20 0xFFFFFFFFFFFFFFFFFFFFFFFFFFFFFFFFFFFFFFFF AND SUB PUSH2 0x496 JUMPI PUSH1 0x40 MLOAD PUSH32 0x8C379A000000000000000000000000000000000000000000000000000000000 DUP2 MSTORE PUSH1 0x4 ADD PUSH2 0x48D SWAP1 PUSH2 0x1285 JUMP JUMPDEST PUSH1 0x40 MLOAD DUP1 SWAP2 SUB SWAP1 REVERT JUMPDEST DUP5 DUP4 DUP1 PUSH1 0x4 PUSH0 DUP5 PUSH20 0xFFFFFFFFFFFFFFFFFFFFFFFFFFFFFFFFFFFFFFFF AND PUSH20 0xFFFFFFFFFFFFFFFFFFFFFFFFFFFFFFFFFFFFFFFF AND DUP2 MSTORE PUSH1 0x20 ADD SWAP1 DUP2 MSTORE PUSH1 0x20 ADD PUSH0 KECCAK256 SLOAD LT ISZERO PUSH2 0x518 JUMPI PUSH1 0x40 MLOAD PUSH32 0x8C379A000000000000000000000000000000000000000000000000000000000 DUP2 MSTORE PUSH1 0x4 ADD PUSH2 0x50F SWAP1 PUSH2 0x1313 JUMP JUMPDEST PUSH1 0x40 MLOAD DUP1 SWAP2 SUB SWAP1 REVERT JUMPDEST DUP7 CALLER DUP7 DUP1 PUSH1 0x5 PUSH0 DUP6 PUSH20 0xFFFFFFFFFFFFFFFFFFFFFFFFFFFFFFFFFFFFFFFF AND PUSH20 0xFFFFFFFFFFFFFFFFFFFFFFFFFFFFFFFFFFFFFFFF AND DUP2 MSTORE PUSH1 0x20 ADD SWAP1 DUP2 MSTORE PUSH1 0x20 ADD PUSH0 KECCAK256 PUSH0 DUP5 PUSH20 0xFFFFFFFFFFFFFFFFFFFFFFFFFFFFFFFFFFFFFFFF AND PUSH20 0xFFFFFFFFFFFFFFFFFFFFFFFFFFFFFFFFFFFFFFFF AND DUP2 MSTORE PUSH1 0x20 ADD SWAP1 DUP2 MSTORE PUSH1 0x20 ADD PUSH0 KECCAK256 SLOAD LT ISZERO PUSH2 0x5D6 JUMPI PUSH1 0x40 MLOAD PUSH32 0x8C379A000000000000000000000000000000000000000000000000000000000 DUP2 MSTORE PUSH1 0x4 ADD PUSH2 0x5CD SWAP1 PUSH2 0x13A1 JUMP JUMPDEST PUSH1 0x40 MLOAD DUP1 SWAP2 SUB SWAP1 REVERT JUMPDEST DUP8 PUSH1 0x4 PUSH0 DUP13 PUSH20 0xFFFFFFFFFFFFFFFFFFFFFFFFFFFFFFFFFFFFFFFF AND PUSH20 0xFFFFFFFFFFFFFFFFFFFFFFFFFFFFFFFFFFFFFFFF AND DUP2 MSTORE PUSH1 0x20 ADD SWAP1 DUP2 MSTORE PUSH1 0x20 ADD PUSH0 KECCAK256 PUSH0 DUP3 DUP3 SLOAD PUSH2 0x622 SWAP2 SWAP1 PUSH2 0x13EC JUMP JUMPDEST SWAP3 POP POP DUP2 SWAP1 SSTORE POP DUP8 PUSH1 0x4 PUSH0 DUP12 PUSH20 0xFFFFFFFFFFFFFFFFFFFFFFFFFFFFFFFFFFFFFFFF AND PUSH20 0xFFFFFFFFFFFFFFFFFFFFFFFFFFFFFFFFFFFFFFFF AND DUP2 MSTORE PUSH1 0x20 ADD SWAP1 DUP2 MSTORE PUSH1 0x20 ADD PUSH0 KECCAK256 PUSH0 DUP3 DUP3 SLOAD PUSH2 0x675 SWAP2 SWAP1 PUSH2 0x141F JUMP JUMPDEST SWAP3 POP POP DUP2 SWAP1 SSTORE POP DUP8 PUSH1 0x5 PUSH0 DUP13 PUSH20 0xFFFFFFFFFFFFFFFFFFFFFFFFFFFFFFFFFFFFFFFF AND PUSH20 0xFFFFFFFFFFFFFFFFFFFFFFFFFFFFFFFFFFFFFFFF AND DUP2 MSTORE PUSH1 0x20 ADD SWAP1 DUP2 MSTORE PUSH1 0x20 ADD PUSH0 KECCAK256 PUSH0 CALLER PUSH20 0xFFFFFFFFFFFFFFFFFFFFFFFFFFFFFFFFFFFFFFFF AND PUSH20 0xFFFFFFFFFFFFFFFFFFFFFFFFFFFFFFFFFFFFFFFF AND DUP2 MSTORE PUSH1 0x20 ADD SWAP1 DUP2 MSTORE PUSH1 0x20 ADD PUSH0 KECCAK256 PUSH0 DUP3 DUP3 SLOAD PUSH2 0x703 SWAP2 SWAP1 PUSH2 0x13EC JUMP JUMPDEST SWAP3 POP POP DUP2 SWAP1 SSTORE POP DUP9 PUSH20 0xFFFFFFFFFFFFFFFFFFFFFFFFFFFFFFFFFFFFFFFF AND DUP11 PUSH20 0xFFFFFFFFFFFFFFFFFFFFFFFFFFFFFFFFFFFFFFFF AND PUSH32 0xDDF252AD1BE2C89B69C2B068FC378DAA952BA7F163C4A11628F55A4DF523B3EF DUP11 PUSH1 0x40 MLOAD PUSH2 0x767 SWAP2 SWAP1 PUSH2 0x1006 JUMP JUMPDEST PUSH1 0x40 MLOAD DUP1 SWAP2 SUB SWAP1 LOG3 PUSH1 0x1 SWAP7 POP POP POP POP POP POP POP SWAP4 SWAP3 POP POP POP JUMP JUMPDEST PUSH1 0x2 PUSH0 SWAP1 SLOAD SWAP1 PUSH2 0x100 EXP SWAP1 DIV PUSH1 0xFF AND DUP2 JUMP JUMPDEST PUSH0 PUSH1 0x4 PUSH0 DUP4 PUSH20 0xFFFFFFFFFFFFFFFFFFFFFFFFFFFFFFFFFFFFFFFF AND PUSH20 0xFFFFFFFFFFFFFFFFFFFFFFFFFFFFFFFFFFFFFFFF AND DUP2 MSTORE PUSH1 0x20 ADD SWAP1 DUP2 MSTORE PUSH1 0x20 ADD PUSH0 KECCAK256 SLOAD SWAP1 POP SWAP2 SWAP1 POP JUMP JUMPDEST PUSH1 0x1 DUP1 SLOAD PUSH2 0x7E5 SWAP1 PUSH2 0x120B JUMP JUMPDEST DUP1 PUSH1 0x1F ADD PUSH1 0x20 DUP1 SWAP2 DIV MUL PUSH1 0x20 ADD PUSH1 0x40 MLOAD SWAP1 DUP2 ADD PUSH1 0x40 MSTORE DUP1 SWAP3 SWAP2 SWAP1 DUP2 DUP2 MSTORE PUSH1 0x20 ADD DUP3 DUP1 SLOAD PUSH2 0x811 SWAP1 PUSH2 0x120B JUMP JUMPDEST DUP1 ISZERO PUSH2 0x85C JUMPI DUP1 PUSH1 0x1F LT PUSH2 0x833 JUMPI PUSH2 0x100 DUP1 DUP4 SLOAD DIV MUL DUP4 MSTORE SWAP2 PUSH1 0x20 ADD SWAP2 PUSH2 0x85C JUMP JUMPDEST DUP3 ADD SWAP2 SWAP1 PUSH0 MSTORE PUSH1 0x20 PUSH0 KECCAK256 SWAP1 JUMPDEST DUP2 SLOAD DUP2 MSTORE SWAP1 PUSH1 0x1 ADD SWAP1 PUSH1 0x20 ADD DUP1 DUP4 GT PUSH2 0x83F JUMPI DUP3 SWAP1 SUB PUSH1 0x1F AND DUP3 ADD SWAP2 JUMPDEST POP POP POP POP POP DUP2 JUMP JUMPDEST PUSH0 DUP3 PUSH0 PUSH20 0xFFFFFFFFFFFFFFFFFFFFFFFFFFFFFFFFFFFFFFFF AND DUP2 PUSH20 0xFFFFFFFFFFFFFFFFFFFFFFFFFFFFFFFFFFFFFFFF AND SUB PUSH2 0x8D4 JUMPI PUSH1 0x40 MLOAD PUSH32 0x8C379A000000000000000000000000000000000000000000000000000000000 DUP2 MSTORE PUSH1 0x4 ADD PUSH2 0x8CB SWAP1 PUSH2 0x1285 JUMP JUMPDEST PUSH1 0x40 MLOAD DUP1 SWAP2 SUB SWAP1 REVERT JUMPDEST CALLER DUP4 DUP1 PUSH1 0x4 PUSH0 DUP5 PUSH20 0xFFFFFFFFFFFFFFFFFFFFFFFFFFFFFFFFFFFFFFFF AND PUSH20 0xFFFFFFFFFFFFFFFFFFFFFFFFFFFFFFFFFFFFFFFF AND DUP2 MSTORE PUSH1 0x20 ADD SWAP1 DUP2 MSTORE PUSH1 0x20 ADD PUSH0 KECCAK256 SLOAD LT ISZERO PUSH2 0x956 JUMPI PUSH1 0x40 MLOAD PUSH32 0x8C379A000000000000000000000000000000000000000000000000000000000 DUP2 MSTORE PUSH1 0x4 ADD PUSH2 0x94D SWAP1 PUSH2 0x1313 JUMP JUMPDEST PUSH1 0x40 MLOAD DUP1 SWAP2 SUB SWAP1 REVERT JUMPDEST DUP5 PUSH1 0x4 PUSH0 CALLER PUSH20 0xFFFFFFFFFFFFFFFFFFFFFFFFFFFFFFFFFFFFFFFF AND PUSH20 0xFFFFFFFFFFFFFFFFFFFFFFFFFFFFFFFFFFFFFFFF AND DUP2 MSTORE PUSH1 0x20 ADD SWAP1 DUP2 MSTORE PUSH1 0x20 ADD PUSH0 KECCAK256 PUSH0 DUP3 DUP3 SLOAD PUSH2 0x9A2 SWAP2 SWAP1 PUSH2 0x13EC JUMP JUMPDEST SWAP3 POP POP DUP2 SWAP1 SSTORE POP DUP5 PUSH1 0x4 PUSH0 DUP9 PUSH20 0xFFFFFFFFFFFFFFFFFFFFFFFFFFFFFFFFFFFFFFFF AND PUSH20 0xFFFFFFFFFFFFFFFFFFFFFFFFFFFFFFFFFFFFFFFF AND DUP2 MSTORE PUSH1 0x20 ADD SWAP1 DUP2 MSTORE PUSH1 0x20 ADD PUSH0 KECCAK256 PUSH0 DUP3 DUP3 SLOAD PUSH2 0x9F5 SWAP2 SWAP1 PUSH2 0x141F JUMP JUMPDEST SWAP3 POP POP DUP2 SWAP1 SSTORE POP DUP6 PUSH20 0xFFFFFFFFFFFFFFFFFFFFFFFFFFFFFFFFFFFFFFFF AND CALLER PUSH20 0xFFFFFFFFFFFFFFFFFFFFFFFFFFFFFFFFFFFFFFFF AND PUSH32 0xDDF252AD1BE2C89B69C2B068FC378DAA952BA7F163C4A11628F55A4DF523B3EF DUP8 PUSH1 0x40 MLOAD PUSH2 0xA59 SWAP2 SWAP1 PUSH2 0x1006 JUMP JUMPDEST PUSH1 0x40 MLOAD DUP1 SWAP2 SUB SWAP1 LOG3 PUSH1 0x1 SWAP4 POP POP POP POP SWAP3 SWAP2 POP POP JUMP JUMPDEST PUSH0 DUP5 PUSH0 PUSH20 0xFFFFFFFFFFFFFFFFFFFFFFFFFFFFFFFFFFFFFFFF AND DUP2 PUSH20 0xFFFFFFFFFFFFFFFFFFFFFFFFFFFFFFFFFFFFFFFF AND SUB PUSH2 0xADE JUMPI PUSH1 0x40 MLOAD PUSH32 0x8C379A000000000000000000000000000000000000000000000000000000000 DUP2 MSTORE PUSH1 0x4 ADD PUSH2 0xAD5 SWAP1 PUSH2 0x1285 JUMP JUMPDEST PUSH1 0x40 MLOAD DUP1 SWAP2 SUB SWAP1 REVERT JUMPDEST CALLER DUP6 DUP1 PUSH1 0x4 PUSH0 DUP5 PUSH20 0xFFFFFFFFFFFFFFFFFFFFFFFFFFFFFFFFFFFFFFFF AND PUSH20 0xFFFFFFFFFFFFFFFFFFFFFFFFFFFFFFFFFFFFFFFF AND DUP2 MSTORE PUSH1 0x20 ADD SWAP1 DUP2 MSTORE PUSH1 0x20 ADD PUSH0 KECCAK256 SLOAD LT ISZERO PUSH2 0xB60 JUMPI PUSH1 0x40 MLOAD PUSH32 0x8C379A000000000000000000000000000000000000000000000000000000000 DUP2 MSTORE PUSH1 0x4 ADD PUSH2 0xB57 SWAP1 PUSH2 0x1313 JUMP JUMPDEST PUSH1 0x40 MLOAD DUP1 SWAP2 SUB SWAP1 REVERT JUMPDEST DUP8 PUSH20 0xFFFFFFFFFFFFFFFFFFFFFFFFFFFFFFFFFFFFFFFF AND CALLER PUSH20 0xFFFFFFFFFFFFFFFFFFFFFFFFFFFFFFFFFFFFFFFF AND SUB PUSH2 0xBCE JUMPI PUSH1 0x40 MLOAD PUSH32 0x8C379A000000000000000000000000000000000000000000000000000000000 DUP2 MSTORE PUSH1 0x4 ADD PUSH2 0xBC5 SWAP1 PUSH2 0x14C2 JUMP JUMPDEST PUSH1 0x40 MLOAD DUP1 SWAP2 SUB SWAP1 REVERT JUMPDEST DUP7 PUSH1 0x4 PUSH0 CALLER PUSH20 0xFFFFFFFFFFFFFFFFFFFFFFFFFFFFFFFFFFFFFFFF AND PUSH20 0xFFFFFFFFFFFFFFFFFFFFFFFFFFFFFFFFFFFFFFFF AND DUP2 MSTORE PUSH1 0x20 ADD SWAP1 DUP2 MSTORE PUSH1 0x20 ADD PUSH0 KECCAK256 PUSH0 DUP3 DUP3 SLOAD PUSH2 0xC1A SWAP2 SWAP1 PUSH2 0x13EC JUMP JUMPDEST SWAP3 POP POP DUP2 SWAP1 SSTORE POP DUP7 PUSH1 0x4 PUSH0 DUP11 PUSH20 0xFFFFFFFFFFFFFFFFFFFFFFFFFFFFFFFFFFFFFFFF AND PUSH20 0xFFFFFFFFFFFFFFFFFFFFFFFFFFFFFFFFFFFFFFFF AND DUP2 MSTORE PUSH1 0x20 ADD SWAP1 DUP2 MSTORE PUSH1 0x20 ADD PUSH0 KECCAK256 PUSH0 DUP3 DUP3 SLOAD PUSH2 0xC6D SWAP2 SWAP1 PUSH2 0x141F JUMP JUMPDEST SWAP3 POP POP DUP2 SWAP1 SSTORE POP PUSH2 0xC7D DUP9 PUSH2 0xE50 JUMP JUMPDEST ISZERO PUSH2 0xDBF JUMPI PUSH0 DUP9 PUSH20 0xFFFFFFFFFFFFFFFFFFFFFFFFFFFFFFFFFFFFFFFF AND CALLER DUP10 DUP10 DUP10 PUSH1 0x40 MLOAD PUSH1 0x24 ADD PUSH2 0xCB1 SWAP5 SWAP4 SWAP3 SWAP2 SWAP1 PUSH2 0x1539 JUMP JUMPDEST PUSH1 0x40 MLOAD PUSH1 0x20 DUP2 DUP4 SUB SUB DUP2 MSTORE SWAP1 PUSH1 0x40 MSTORE PUSH32 0xD031426300000000000000000000000000000000000000000000000000000000 PUSH28 0xFFFFFFFFFFFFFFFFFFFFFFFFFFFFFFFFFFFFFFFFFFFFFFFFFFFFFFFF NOT AND PUSH1 0x20 DUP3 ADD DUP1 MLOAD PUSH28 0xFFFFFFFFFFFFFFFFFFFFFFFFFFFFFFFFFFFFFFFFFFFFFFFFFFFFFFFF DUP4 DUP2 DUP4 AND OR DUP4 MSTORE POP POP POP POP PUSH1 0x40 MLOAD PUSH2 0xD3B SWAP2 SWAP1 PUSH2 0x15BB JUMP JUMPDEST PUSH0 PUSH1 0x40 MLOAD DUP1 DUP4 SUB DUP2 PUSH0 DUP7 GAS CALL SWAP2 POP POP RETURNDATASIZE DUP1 PUSH0 DUP2 EQ PUSH2 0xD74 JUMPI PUSH1 0x40 MLOAD SWAP2 POP PUSH1 0x1F NOT PUSH1 0x3F RETURNDATASIZE ADD AND DUP3 ADD PUSH1 0x40 MSTORE RETURNDATASIZE DUP3 MSTORE RETURNDATASIZE PUSH0 PUSH1 0x20 DUP5 ADD RETURNDATACOPY PUSH2 0xD79 JUMP JUMPDEST PUSH1 0x60 SWAP2 POP JUMPDEST POP POP SWAP1 POP DUP1 PUSH2 0xDBD JUMPI PUSH1 0x40 MLOAD PUSH32 0x8C379A000000000000000000000000000000000000000000000000000000000 DUP2 MSTORE PUSH1 0x4 ADD PUSH2 0xDB4 SWAP1 PUSH2 0x1641 JUMP JUMPDEST PUSH1 0x40 MLOAD DUP1 SWAP2 SUB SWAP1 REVERT JUMPDEST POP JUMPDEST PUSH1 0x1 SWAP4 POP POP POP POP SWAP5 SWAP4 POP POP POP POP JUMP JUMPDEST PUSH0 PUSH1 0x5 PUSH0 DUP5 PUSH20 0xFFFFFFFFFFFFFFFFFFFFFFFFFFFFFFFFFFFFFFFF AND PUSH20 0xFFFFFFFFFFFFFFFFFFFFFFFFFFFFFFFFFFFFFFFF AND DUP2 MSTORE PUSH1 0x20 ADD SWAP1 DUP2 MSTORE PUSH1 0x20 ADD PUSH0 KECCAK256 PUSH0 DUP4 PUSH20 0xFFFFFFFFFFFFFFFFFFFFFFFFFFFFFFFFFFFFFFFF AND PUSH20 0xFFFFFFFFFFFFFFFFFFFFFFFFFFFFFFFFFFFFFFFF AND DUP2 MSTORE PUSH1 0x20 ADD SWAP1 DUP2 MSTORE PUSH1 0x20 ADD PUSH0 KECCAK256 SLOAD SWAP1 POP SWAP3 SWAP2 POP POP JUMP JUMPDEST PUSH0 DUP1 DUP3 EXTCODESIZE SWAP1 POP PUSH0 DUP2 GT SWAP2 POP POP SWAP2 SWAP1 POP JUMP JUMPDEST PUSH0 DUP2 MLOAD SWAP1 POP SWAP2 SWAP1 POP JUMP JUMPDEST PUSH0 DUP3 DUP3 MSTORE PUSH1 0x20 DUP3 ADD SWAP1 POP SWAP3 SWAP2 POP POP JUMP JUMPDEST DUP3 DUP2 DUP4 MCOPY PUSH0 DUP4 DUP4 ADD MSTORE POP POP POP JUMP JUMPDEST PUSH0 PUSH1 0x1F NOT PUSH1 0x1F DUP4 ADD AND SWAP1 POP SWAP2 SWAP1 POP JUMP JUMPDEST PUSH0 PUSH2 0xEA3 DUP3 PUSH2 0xE61 JUMP JUMPDEST PUSH2 0xEAD DUP2 DUP6 PUSH2 0xE6B JUMP JUMPDEST SWAP4 POP PUSH2 0xEBD DUP2 DUP6 PUSH1 0x20 DUP7 ADD PUSH2 0xE7B JUMP JUMPDEST PUSH2 0xEC6 DUP2 PUSH2 0xE89 JUMP JUMPDEST DUP5 ADD SWAP2 POP POP SWAP3 SWAP2 POP POP JUMP JUMPDEST PUSH0 PUSH1 0x20 DUP3 ADD SWAP1 POP DUP2 DUP2 SUB PUSH0 DUP4 ADD MSTORE PUSH2 0xEE9 DUP2 DUP5 PUSH2 0xE99 JUMP JUMPDEST SWAP1 POP SWAP3 SWAP2 POP POP JUMP JUMPDEST PUSH0 DUP1 REVERT JUMPDEST PUSH0 DUP1 REVERT JUMPDEST PUSH0 PUSH20 0xFFFFFFFFFFFFFFFFFFFFFFFFFFFFFFFFFFFFFFFF DUP3 AND SWAP1 POP SWAP2 SWAP1 POP JUMP JUMPDEST PUSH0 PUSH2 0xF22 DUP3 PUSH2 0xEF9 JUMP JUMPDEST SWAP1 POP SWAP2 SWAP1 POP JUMP JUMPDEST PUSH2 0xF32 DUP2 PUSH2 0xF18 JUMP JUMPDEST DUP2 EQ PUSH2 0xF3C JUMPI PUSH0 DUP1 REVERT JUMPDEST POP JUMP JUMPDEST PUSH0 DUP2 CALLDATALOAD SWAP1 POP PUSH2 0xF4D DUP2 PUSH2 0xF29 JUMP JUMPDEST SWAP3 SWAP2 POP POP JUMP JUMPDEST PUSH0 DUP2 SWAP1 POP SWAP2 SWAP1 POP JUMP JUMPDEST PUSH2 0xF65 DUP2 PUSH2 0xF53 JUMP JUMPDEST DUP2 EQ PUSH2 0xF6F JUMPI PUSH0 DUP1 REVERT JUMPDEST POP JUMP JUMPDEST PUSH0 DUP2 CALLDATALOAD SWAP1 POP PUSH2 0xF80 DUP2 PUSH2 0xF5C JUMP JUMPDEST SWAP3 SWAP2 POP POP JUMP JUMPDEST PUSH0 DUP1 PUSH1 0x40 DUP4 DUP6 SUB SLT ISZERO PUSH2 0xF9C JUMPI PUSH2 0xF9B PUSH2 0xEF1 JUMP JUMPDEST JUMPDEST PUSH0 PUSH2 0xFA9 DUP6 DUP3 DUP7 ADD PUSH2 0xF3F JUMP JUMPDEST SWAP3 POP POP PUSH1 0x20 PUSH2 0xFBA DUP6 DUP3 DUP7 ADD PUSH2 0xF72 JUMP JUMPDEST SWAP2 POP POP SWAP3 POP SWAP3 SWAP1 POP JUMP JUMPDEST PUSH0 DUP2 ISZERO ISZERO SWAP1 POP SWAP2 SWAP1 POP JUMP JUMPDEST PUSH2 0xFD8 DUP2 PUSH2 0xFC4 JUMP JUMPDEST DUP3 MSTORE POP POP JUMP JUMPDEST PUSH0 PUSH1 0x20 DUP3 ADD SWAP1 POP PUSH2 0xFF1 PUSH0 DUP4 ADD DUP5 PUSH2 0xFCF JUMP JUMPDEST SWAP3 SWAP2 POP POP JUMP JUMPDEST PUSH2 0x1000 DUP2 PUSH2 0xF53 JUMP JUMPDEST DUP3 MSTORE POP POP JUMP JUMPDEST PUSH0 PUSH1 0x20 DUP3 ADD SWAP1 POP PUSH2 0x1019 PUSH0 DUP4 ADD DUP5 PUSH2 0xFF7 JUMP JUMPDEST SWAP3 SWAP2 POP POP JUMP JUMPDEST PUSH0 DUP1 PUSH0 PUSH1 0x60 DUP5 DUP7 SUB SLT ISZERO PUSH2 0x1036 JUMPI PUSH2 0x1035 PUSH2 0xEF1 JUMP JUMPDEST JUMPDEST PUSH0 PUSH2 0x1043 DUP7 DUP3 DUP8 ADD PUSH2 0xF3F JUMP JUMPDEST SWAP4 POP POP PUSH1 0x20 PUSH2 0x1054 DUP7 DUP3 DUP8 ADD PUSH2 0xF3F JUMP JUMPDEST SWAP3 POP POP PUSH1 0x40 PUSH2 0x1065 DUP7 DUP3 DUP8 ADD PUSH2 0xF72 JUMP JUMPDEST SWAP2 POP POP SWAP3 POP SWAP3 POP SWAP3 JUMP JUMPDEST PUSH0 PUSH1 0xFF DUP3 AND SWAP1 POP SWAP2 SWAP1 POP JUMP JUMPDEST PUSH2 0x1084 DUP2 PUSH2 0x106F JUMP JUMPDEST DUP3 MSTORE POP POP JUMP JUMPDEST PUSH0 PUSH1 0x20 DUP3 ADD SWAP1 POP PUSH2 0x109D PUSH0 DUP4 ADD DUP5 PUSH2 0x107B JUMP JUMPDEST SWAP3 SWAP2 POP POP JUMP JUMPDEST PUSH0 PUSH1 0x20 DUP3 DUP5 SUB SLT ISZERO PUSH2 0x10B8 JUMPI PUSH2 0x10B7 PUSH2 0xEF1 JUMP JUMPDEST JUMPDEST PUSH0 PUSH2 0x10C5 DUP5 DUP3 DUP6 ADD PUSH2 0xF3F JUMP JUMPDEST SWAP2 POP POP SWAP3 SWAP2 POP POP JUMP JUMPDEST PUSH0 DUP1 REVERT JUMPDEST PUSH0 DUP1 REVERT JUMPDEST PUSH0 DUP1 REVERT JUMPDEST PUSH0 DUP1 DUP4 PUSH1 0x1F DUP5 ADD SLT PUSH2 0x10EF JUMPI PUSH2 0x10EE PUSH2 0x10CE JUMP JUMPDEST JUMPDEST DUP3 CALLDATALOAD SWAP1 POP PUSH8 0xFFFFFFFFFFFFFFFF DUP2 GT ISZERO PUSH2 0x110C JUMPI PUSH2 0x110B PUSH2 0x10D2 JUMP JUMPDEST JUMPDEST PUSH1 0x20 DUP4 ADD SWAP2 POP DUP4 PUSH1 0x1 DUP3 MUL DUP4 ADD GT ISZERO PUSH2 0x1128 JUMPI PUSH2 0x1127 PUSH2 0x10D6 JUMP JUMPDEST JUMPDEST SWAP3 POP SWAP3 SWAP1 POP JUMP JUMPDEST PUSH0 DUP1 PUSH0 DUP1 PUSH1 0x60 DUP6 DUP8 SUB SLT ISZERO PUSH2 0x1147 JUMPI PUSH2 0x1146 PUSH2 0xEF1 JUMP JUMPDEST JUMPDEST PUSH0 PUSH2 0x1154 DUP8 DUP3 DUP9 ADD PUSH2 0xF3F JUMP JUMPDEST SWAP5 POP POP PUSH1 0x20 PUSH2 0x1165 DUP8 DUP3 DUP9 ADD PUSH2 0xF72 JUMP JUMPDEST SWAP4 POP POP PUSH1 0x40 DUP6 ADD CALLDATALOAD PUSH8 0xFFFFFFFFFFFFFFFF DUP2 GT ISZERO PUSH2 0x1186 JUMPI PUSH2 0x1185 PUSH2 0xEF5 JUMP JUMPDEST JUMPDEST PUSH2 0x1192 DUP8 DUP3 DUP9 ADD PUSH2 0x10DA JUMP JUMPDEST SWAP3 POP SWAP3 POP POP SWAP3 SWAP6 SWAP2 SWAP5 POP SWAP3 POP JUMP JUMPDEST PUSH0 DUP1 PUSH1 0x40 DUP4 DUP6 SUB SLT ISZERO PUSH2 0x11B6 JUMPI PUSH2 0x11B5 PUSH2 0xEF1 JUMP JUMPDEST JUMPDEST PUSH0 PUSH2 0x11C3 DUP6 DUP3 DUP7 ADD PUSH2 0xF3F JUMP JUMPDEST SWAP3 POP POP PUSH1 0x20 PUSH2 0x11D4 DUP6 DUP3 DUP7 ADD PUSH2 0xF3F JUMP JUMPDEST SWAP2 POP POP SWAP3 POP SWAP3 SWAP1 POP JUMP JUMPDEST PUSH32 0x4E487B7100000000000000000000000000000000000000000000000000000000 PUSH0 MSTORE PUSH1 0x22 PUSH1 0x4 MSTORE PUSH1 0x24 PUSH0 REVERT JUMPDEST PUSH0 PUSH1 0x2 DUP3 DIV SWAP1 POP PUSH1 0x1 DUP3 AND DUP1 PUSH2 0x1222 JUMPI PUSH1 0x7F DUP3 AND SWAP2 POP JUMPDEST PUSH1 0x20 DUP3 LT DUP2 SUB PUSH2 0x1235 JUMPI PUSH2 0x1234 PUSH2 0x11DE JUMP JUMPDEST JUMPDEST POP SWAP2 SWAP1 POP JUMP JUMPDEST PUSH32 0x45524332303A207472616E7366657220746F207A65726F206164647265737300 PUSH0 DUP3 ADD MSTORE POP JUMP JUMPDEST PUSH0 PUSH2 0x126F PUSH1 0x1F DUP4 PUSH2 0xE6B JUMP JUMPDEST SWAP2 POP PUSH2 0x127A DUP3 PUSH2 0x123B JUMP JUMPDEST PUSH1 0x20 DUP3 ADD SWAP1 POP SWAP2 SWAP1 POP JUMP JUMPDEST PUSH0 PUSH1 0x20 DUP3 ADD SWAP1 POP DUP2 DUP2 SUB PUSH0 DUP4 ADD MSTORE PUSH2 0x129C DUP2 PUSH2 0x1263 JUMP JUMPDEST SWAP1 POP SWAP2 SWAP1 POP JUMP JUMPDEST PUSH32 0x45524332303A207472616E7366657220616D6F756E7420657863656564732062 PUSH0 DUP3 ADD MSTORE PUSH32 0x616C616E63650000000000000000000000000000000000000000000000000000 PUSH1 0x20 DUP3 ADD MSTORE POP JUMP JUMPDEST PUSH0 PUSH2 0x12FD PUSH1 0x26 DUP4 PUSH2 0xE6B JUMP JUMPDEST SWAP2 POP PUSH2 0x1308 DUP3 PUSH2 0x12A3 JUMP JUMPDEST PUSH1 0x40 DUP3 ADD SWAP1 POP SWAP2 SWAP1 POP JUMP JUMPDEST PUSH0 PUSH1 0x20 DUP3 ADD SWAP1 POP DUP2 DUP2 SUB PUSH0 DUP4 ADD MSTORE PUSH2 0x132A DUP2 PUSH2 0x12F1 JUMP JUMPDEST SWAP1 POP SWAP2 SWAP1 POP JUMP JUMPDEST PUSH32 0x45524332303A207472616E7366657220616D6F756E7420657863656564732061 PUSH0 DUP3 ADD MSTORE PUSH32 0x6C6C6F77616E6365000000000000000000000000000000000000000000000000 PUSH1 0x20 DUP3 ADD MSTORE POP JUMP JUMPDEST PUSH0 PUSH2 0x138B PUSH1 0x28 DUP4 PUSH2 0xE6B JUMP JUMPDEST SWAP2 POP PUSH2 0x1396 DUP3 PUSH2 0x1331 JUMP JUMPDEST PUSH1 0x40 DUP3 ADD SWAP1 POP SWAP2 SWAP1 POP JUMP JUMPDEST PUSH0 PUSH1 0x20 DUP3 ADD SWAP1 POP DUP2 DUP2 SUB PUSH0 DUP4 ADD MSTORE PUSH2 0x13B8 DUP2 PUSH2 0x137F JUMP JUMPDEST SWAP1 POP SWAP2 SWAP1 POP JUMP JUMPDEST PUSH32 0x4E487B7100000000000000000000000000000000000000000000000000000000 PUSH0 MSTORE PUSH1 0x11 PUSH1 0x4 MSTORE PUSH1 0x24 PUSH0 REVERT JUMPDEST PUSH0 PUSH2 0x13F6 DUP3 PUSH2 0xF53 JUMP JUMPDEST SWAP2 POP PUSH2 0x1401 DUP4 PUSH2 0xF53 JUMP JUMPDEST SWAP3 POP DUP3 DUP3 SUB SWAP1 POP DUP2 DUP2 GT ISZERO PUSH2 0x1419 JUMPI PUSH2 0x1418 PUSH2 0x13BF JUMP JUMPDEST JUMPDEST SWAP3 SWAP2 POP POP JUMP JUMPDEST PUSH0 PUSH2 0x1429 DUP3 PUSH2 0xF53 JUMP JUMPDEST SWAP2 POP PUSH2 0x1434 DUP4 PUSH2 0xF53 JUMP JUMPDEST SWAP3 POP DUP3 DUP3 ADD SWAP1 POP DUP1 DUP3 GT ISZERO PUSH2 0x144C JUMPI PUSH2 0x144B PUSH2 0x13BF JUMP JUMPDEST JUMPDEST SWAP3 SWAP2 POP POP JUMP JUMPDEST PUSH32 0x45524332303A2063616E206E6F74207472616E7366657220746F20796F757273 PUSH0 DUP3 ADD MSTORE PUSH32 0x656C660000000000000000000000000000000000000000000000000000000000 PUSH1 0x20 DUP3 ADD MSTORE POP JUMP JUMPDEST PUSH0 PUSH2 0x14AC PUSH1 0x23 DUP4 PUSH2 0xE6B JUMP JUMPDEST SWAP2 POP PUSH2 0x14B7 DUP3 PUSH2 0x1452 JUMP JUMPDEST PUSH1 0x40 DUP3 ADD SWAP1 POP SWAP2 SWAP1 POP JUMP JUMPDEST PUSH0 PUSH1 0x20 DUP3 ADD SWAP1 POP DUP2 DUP2 SUB PUSH0 DUP4 ADD MSTORE PUSH2 0x14D9 DUP2 PUSH2 0x14A0 JUMP JUMPDEST SWAP1 POP SWAP2 SWAP1 POP JUMP JUMPDEST PUSH2 0x14E9 DUP2 PUSH2 0xF18 JUMP JUMPDEST DUP3 MSTORE POP POP JUMP JUMPDEST PUSH0 DUP3 DUP3 MSTORE PUSH1 0x20 DUP3 ADD SWAP1 POP SWAP3 SWAP2 POP POP JUMP JUMPDEST DUP3 DUP2 DUP4 CALLDATACOPY PUSH0 DUP4 DUP4 ADD MSTORE POP POP POP JUMP JUMPDEST PUSH0 PUSH2 0x1518 DUP4 DUP6 PUSH2 0x14EF JUMP JUMPDEST SWAP4 POP PUSH2 0x1525 DUP4 DUP6 DUP5 PUSH2 0x14FF JUMP JUMPDEST PUSH2 0x152E DUP4 PUSH2 0xE89 JUMP JUMPDEST DUP5 ADD SWAP1 POP SWAP4 SWAP3 POP POP POP JUMP JUMPDEST PUSH0 PUSH1 0x60 DUP3 ADD SWAP1 POP PUSH2 0x154C PUSH0 DUP4 ADD DUP8 PUSH2 0x14E0 JUMP JUMPDEST PUSH2 0x1559 PUSH1 0x20 DUP4 ADD DUP7 PUSH2 0xFF7 JUMP JUMPDEST DUP2 DUP2 SUB PUSH1 0x40 DUP4 ADD MSTORE PUSH2 0x156C DUP2 DUP5 DUP7 PUSH2 0x150D JUMP JUMPDEST SWAP1 POP SWAP6 SWAP5 POP POP POP POP POP JUMP JUMPDEST PUSH0 DUP2 MLOAD SWAP1 POP SWAP2 SWAP1 POP JUMP JUMPDEST PUSH0 DUP2 SWAP1 POP SWAP3 SWAP2 POP POP JUMP JUMPDEST PUSH0 PUSH2 0x1595 DUP3 PUSH2 0x1577 JUMP JUMPDEST PUSH2 0x159F DUP2 DUP6 PUSH2 0x1581 JUMP JUMPDEST SWAP4 POP PUSH2 0x15AF DUP2 DUP6 PUSH1 0x20 DUP7 ADD PUSH2 0xE7B JUMP JUMPDEST DUP1 DUP5 ADD SWAP2 POP POP SWAP3 SWAP2 POP POP JUMP JUMPDEST PUSH0 PUSH2 0x15C6 DUP3 DUP5 PUSH2 0x158B JUMP JUMPDEST SWAP2 POP DUP2 SWAP1 POP SWAP3 SWAP2 POP POP JUMP JUMPDEST PUSH32 0x45524332303A2063616C6C20746F6B656E735265636569766564206661696C65 PUSH0 DUP3 ADD MSTORE PUSH32 0x6421000000000000000000000000000000000000000000000000000000000000 PUSH1 0x20 DUP3 ADD MSTORE POP JUMP JUMPDEST PUSH0 PUSH2 0x162B PUSH1 0x22 DUP4 PUSH2 0xE6B JUMP JUMPDEST SWAP2 POP PUSH2 0x1636 DUP3 PUSH2 0x15D1 JUMP JUMPDEST PUSH1 0x40 DUP3 ADD SWAP1 POP SWAP2 SWAP1 POP JUMP JUMPDEST PUSH0 PUSH1 0x20 DUP3 ADD SWAP1 POP DUP2 DUP2 SUB PUSH0 DUP4 ADD MSTORE PUSH2 0x1658 DUP2 PUSH2 0x161F JUMP JUMPDEST SWAP1 POP SWAP2 SWAP1 POP JUMP INVALID LOG2 PUSH5 0x6970667358 0x22 SLT KECCAK256 BYTE PUSH31 0x5BB5C43A5D36EA8ADED8EB3747BE1C23C696B3D30B4CC6BAA98D45C77DA064 PUSH20 0x6F6C634300081900330000000000000000000000 "
				},
				"gasEstimates": {
					"creation": {
						"codeDepositCost": "1156200",
						"executionCost": "infinite",
						"totalCost": "infinite"
					},
					"external": {
						"allowance(address,address)": "infinite",
						"approve(address,uint256)": "infinite",
						"balanceOf(address)": "2829",
						"decimals()": "2555",
						"name()": "infinite",
						"symbol()": "infinite",
						"totalSupply()": "2470",
						"transfer(address,uint256)": "infinite",
						"transferFrom(address,address,uint256)": "infinite",
						"transferWithCallback(address,uint256,bytes)": "infinite"
					},
					"internal": {
						"_isContract(address)": "2645"
					}
				},
				"methodIdentifiers": {
					"allowance(address,address)": "dd62ed3e",
					"approve(address,uint256)": "095ea7b3",
					"balanceOf(address)": "70a08231",
					"decimals()": "313ce567",
					"name()": "06fdde03",
					"symbol()": "95d89b41",
					"totalSupply()": "18160ddd",
					"transfer(address,uint256)": "a9059cbb",
					"transferFrom(address,address,uint256)": "23b872dd",
					"transferWithCallback(address,uint256,bytes)": "d3139195"
				}
			},
			"storageLayout": {
				"storage": [
					{
						"astId": 3,
						"contract": "BaseERC20/BaseERC20.sol:BaseERC20",
						"label": "name",
						"offset": 0,
						"slot": "0",
						"type": "t_string_storage"
					},
					{
						"astId": 5,
						"contract": "BaseERC20/BaseERC20.sol:BaseERC20",
						"label": "symbol",
						"offset": 0,
						"slot": "1",
						"type": "t_string_storage"
					},
					{
						"astId": 7,
						"contract": "BaseERC20/BaseERC20.sol:BaseERC20",
						"label": "decimals",
						"offset": 0,
						"slot": "2",
						"type": "t_uint8"
					},
					{
						"astId": 9,
						"contract": "BaseERC20/BaseERC20.sol:BaseERC20",
						"label": "totalSupply",
						"offset": 0,
						"slot": "3",
						"type": "t_uint256"
					},
					{
						"astId": 13,
						"contract": "BaseERC20/BaseERC20.sol:BaseERC20",
						"label": "balances",
						"offset": 0,
						"slot": "4",
						"type": "t_mapping(t_address,t_uint256)"
					},
					{
						"astId": 19,
						"contract": "BaseERC20/BaseERC20.sol:BaseERC20",
						"label": "allowances",
						"offset": 0,
						"slot": "5",
						"type": "t_mapping(t_address,t_mapping(t_address,t_uint256))"
					}
				],
				"types": {
					"t_address": {
						"encoding": "inplace",
						"label": "address",
						"numberOfBytes": "20"
					},
					"t_mapping(t_address,t_mapping(t_address,t_uint256))": {
						"encoding": "mapping",
						"key": "t_address",
						"label": "mapping(address => mapping(address => uint256))",
						"numberOfBytes": "32",
						"value": "t_mapping(t_address,t_uint256)"
					},
					"t_mapping(t_address,t_uint256)": {
						"encoding": "mapping",
						"key": "t_address",
						"label": "mapping(address => uint256)",
						"numberOfBytes": "32",
						"value": "t_uint256"
					},
					"t_string_storage": {
						"encoding": "bytes",
						"label": "string",
						"numberOfBytes": "32"
					},
					"t_uint256": {
						"encoding": "inplace",
						"label": "uint256",
						"numberOfBytes": "32"
					},
					"t_uint8": {
						"encoding": "inplace",
						"label": "uint8",
						"numberOfBytes": "1"
					}
				}
			},
			"userdoc": {
				"kind": "user",
				"methods": {},
				"version": 1
			}
		}
	}
}