{
	"data": {
		"bytecode": {
			"linkReferences": {},
			"object": "6080604052348015600e575f80fd5b5061030b8061001c5f395ff3fe60806040526004361061001d575f3560e01c80633e58c58c14610021575b5f80fd5b61003b60048036038101906100369190610189565b61003d565b005b5f341161007f576040517f08c379a00000000000000000000000000000000000000000000000000000000081526004016100769061020e565b60405180910390fd5b5f8173ffffffffffffffffffffffffffffffffffffffff16346040516100a490610259565b5f6040518083038185875af1925050503d805f81146100de576040519150601f19603f3d011682016040523d82523d5f602084013e6100e3565b606091505b5050905080610127576040517f08c379a000000000000000000000000000000000000000000000000000000000815260040161011e906102b7565b60405180910390fd5b5050565b5f80fd5b5f73ffffffffffffffffffffffffffffffffffffffff82169050919050565b5f6101588261012f565b9050919050565b6101688161014e565b8114610172575f80fd5b50565b5f813590506101838161015f565b92915050565b5f6020828403121561019e5761019d61012b565b5b5f6101ab84828501610175565b91505092915050565b5f82825260208201905092915050565b7fe8bdace8b4a6e98791e9a29de5bf85e9a1bbe5a4a7e4ba8e30000000000000005f82015250565b5f6101f86019836101b4565b9150610203826101c4565b602082019050919050565b5f6020820190508181035f830152610225816101ec565b9050919050565b5f81905092915050565b50565b5f6102445f8361022c565b915061024f82610236565b5f82019050919050565b5f61026382610239565b9150819050919050565b7fe58f91e98081e5a4b1e8b4a500000000000000000000000000000000000000005f82015250565b5f6102a1600c836101b4565b91506102ac8261026d565b602082019050919050565b5f6020820190508181035f8301526102ce81610295565b905091905056fea264697066735822122038c33fb6cb5ba23782d6b88b2dd893e182fa53714821003730e9cd6653e3f48764736f6c634300081a0033",
			"opcodes": "PUSH1 0x80 PUSH1 0x40 MSTORE CALLVALUE DUP1 ISZERO PUSH1 0xE JUMPI PUSH0 DUP1 REVERT JUMPDEST POP PUSH2 0x30B DUP1 PUSH2 0x1C PUSH0 CODECOPY PUSH0 RETURN INVALID PUSH1 0x80 PUSH1 0x40 MSTORE PUSH1 0x4 CALLDATASIZE LT PUSH2 0x1D JUMPI PUSH0 CALLDATALOAD PUSH1 0xE0 SHR DUP1 PUSH4 0x3E58C58C EQ PUSH2 0x21 JUMPI JUMPDEST PUSH0 DUP1 REVERT JUMPDEST PUSH2 0x3B PUSH1 0x4 DUP1 CALLDATASIZE SUB DUP2 ADD SWAP1 PUSH2 0x36 SWAP2 SWAP1 PUSH2 0x189 JUMP JUMPDEST PUSH2 0x3D JUMP JUMPDEST STOP JUMPDEST PUSH0 CALLVALUE GT PUSH2 0x7F JUMPI PUSH1 0x40 MLOAD PUSH32 0x8C379A000000000000000000000000000000000000000000000000000000000 DUP2 MSTORE PUSH1 0x4 ADD PUSH2 0x76 SWAP1 PUSH2 0x20E JUMP JUMPDEST PUSH1 0x40 MLOAD DUP1 SWAP2 SUB SWAP1 REVERT JUMPDEST PUSH0 DUP2 PUSH20 0xFFFFFFFFFFFFFFFFFFFFFFFFFFFFFFFFFFFFFFFF AND CALLVALUE PUSH1 0x40 MLOAD PUSH2 0xA4 SWAP1 PUSH2 0x259 JUMP JUMPDEST PUSH0 PUSH1 0x40 MLOAD DUP1 DUP4 SUB DUP2 DUP6 DUP8 GAS CALL SWAP3 POP POP POP RETURNDATASIZE DUP1 PUSH0 DUP2 EQ PUSH2 0xDE JUMPI PUSH1 0x40 MLOAD SWAP2 POP PUSH1 0x1F NOT PUSH1 0x3F RETURNDATASIZE ADD AND DUP3 ADD PUSH1 0x40 MSTORE RETURNDATASIZE DUP3 MSTORE RETURNDATASIZE PUSH0 PUSH1 0x20 DUP5 ADD RETURNDATACOPY PUSH2 0xE3 JUMP JUMPDEST PUSH1 0x60 SWAP2 POP JUMPDEST POP POP SWAP1 POP DUP1 PUSH2 0x127 JUMPI PUSH1 0x40 MLOAD PUSH32 0x8C379A000000000000000000000000000000000000000000000000000000000 DUP2 MSTORE PUSH1 0x4 ADD PUSH2 0x11E SWAP1 PUSH2 0x2B7 JUMP JUMPDEST PUSH1 0x40 MLOAD DUP1 SWAP2 SUB SWAP1 REVERT JUMPDEST POP POP JUMP JUMPDEST PUSH0 DUP1 REVERT JUMPDEST PUSH0 PUSH20 0xFFFFFFFFFFFFFFFFFFFFFFFFFFFFFFFFFFFFFFFF DUP3 AND SWAP1 POP SWAP2 SWAP1 POP JUMP JUMPDEST PUSH0 PUSH2 0x158 DUP3 PUSH2 0x12F JUMP JUMPDEST SWAP1 POP SWAP2 SWAP1 POP JUMP JUMPDEST PUSH2 0x168 DUP2 PUSH2 0x14E JUMP JUMPDEST DUP2 EQ PUSH2 0x172 JUMPI PUSH0 DUP1 REVERT JUMPDEST POP JUMP JUMPDEST PUSH0 DUP2 CALLDATALOAD SWAP1 POP PUSH2 0x183 DUP2 PUSH2 0x15F JUMP JUMPDEST SWAP3 SWAP2 POP POP JUMP JUMPDEST PUSH0 PUSH1 0x20 DUP3 DUP5 SUB SLT ISZERO PUSH2 0x19E JUMPI PUSH2 0x19D PUSH2 0x12B JUMP JUMPDEST JUMPDEST PUSH0 PUSH2 0x1AB DUP5 DUP3 DUP6 ADD PUSH2 0x175 JUMP JUMPDEST SWAP2 POP POP SWAP3 SWAP2 POP POP JUMP JUMPDEST PUSH0 DUP3 DUP3 MSTORE PUSH1 0x20 DUP3 ADD SWAP1 POP SWAP3 SWAP2 POP POP JUMP JUMPDEST PUSH32 0xE8BDACE8B4A6E98791E9A29DE5BF85E9A1BBE5A4A7E4BA8E3000000000000000 PUSH0 DUP3 ADD MSTORE POP JUMP JUMPDEST PUSH0 PUSH2 0x1F8 PUSH1 0x19 DUP4 PUSH2 0x1B4 JUMP JUMPDEST SWAP2 POP PUSH2 0x203 DUP3 PUSH2 0x1C4 JUMP JUMPDEST PUSH1 0x20 DUP3 ADD SWAP1 POP SWAP2 SWAP1 POP JUMP JUMPDEST PUSH0 PUSH1 0x20 DUP3 ADD SWAP1 POP DUP2 DUP2 SUB PUSH0 DUP4 ADD MSTORE PUSH2 0x225 DUP2 PUSH2 0x1EC JUMP JUMPDEST SWAP1 POP SWAP2 SWAP1 POP JUMP JUMPDEST PUSH0 DUP2 SWAP1 POP SWAP3 SWAP2 POP POP JUMP JUMPDEST POP JUMP JUMPDEST PUSH0 PUSH2 0x244 PUSH0 DUP4 PUSH2 0x22C JUMP JUMPDEST SWAP2 POP PUSH2 0x24F DUP3 PUSH2 0x236 JUMP JUMPDEST PUSH0 DUP3 ADD SWAP1 POP SWAP2 SWAP1 POP JUMP JUMPDEST PUSH0 PUSH2 0x263 DUP3 PUSH2 0x239 JUMP JUMPDEST SWAP2 POP DUP2 SWAP1 POP SWAP2 SWAP1 POP JUMP JUMPDEST PUSH32 0xE58F91E98081E5A4B1E8B4A50000000000000000000000000000000000000000 PUSH0 DUP3 ADD MSTORE POP JUMP JUMPDEST PUSH0 PUSH2 0x2A1 PUSH1 0xC DUP4 PUSH2 0x1B4 JUMP JUMPDEST SWAP2 POP PUSH2 0x2AC DUP3 PUSH2 0x26D JUMP JUMPDEST PUSH1 0x20 DUP3 ADD SWAP1 POP SWAP2 SWAP1 POP JUMP JUMPDEST PUSH0 PUSH1 0x20 DUP3 ADD SWAP1 POP DUP2 DUP2 SUB PUSH0 DUP4 ADD MSTORE PUSH2 0x2CE DUP2 PUSH2 0x295 JUMP JUMPDEST SWAP1 POP SWAP2 SWAP1 POP JUMP INVALID LOG2 PUSH5 0x6970667358 0x22 SLT KECCAK256 CODESIZE 0xC3 EXTCODEHASH 0xB6 0xCB JUMPDEST LOG2 CALLDATACOPY DUP3 0xD6 0xB8 DUP12 0x2D 0xD8 SWAP4 0xE1 DUP3 STATICCALL MSTORE8 PUSH18 0x4821003730E9CD6653E3F48764736F6C6343 STOP ADDMOD BYTE STOP CALLER "
		},
		"gasEstimates": {
			"creation": {
				"codeDepositCost": "155800",
				"executionCost": "200",
				"totalCost": "156000"
			},
			"external": {
				"send(address)": "infinite"
			}
		},
		"methodIdentifiers": {
			"send(address)": "3e58c58c"
		}
	},
	"abi": [
		{
			"inputs": [
				{
					"internalType": "address",
					"name": "dest",
					"type": "address"
				}
			],
			"name": "send",
			"outputs": [],
			"stateMutability": "payable",
			"type": "function"
		}
	]
}